{
  "contractName": "ContractOwner",
  "abi": [
    {
      "anonymous": false,
      "inputs": [
        {
          "indexed": true,
          "internalType": "address",
          "name": "previousOwner",
          "type": "address"
        },
        {
          "indexed": true,
          "internalType": "address",
          "name": "newOwner",
          "type": "address"
        }
      ],
      "name": "OwnershipTransferred",
      "type": "event"
    },
    {
      "inputs": [],
      "name": "commission",
      "outputs": [
        {
          "internalType": "uint256",
          "name": "",
          "type": "uint256"
        }
      ],
      "stateMutability": "view",
      "type": "function"
    },
    {
      "inputs": [],
      "name": "newContractAddress",
      "outputs": [
        {
          "internalType": "address",
          "name": "",
          "type": "address"
        }
      ],
      "stateMutability": "view",
      "type": "function"
    },
    {
      "inputs": [],
      "name": "owner",
      "outputs": [
        {
          "internalType": "address",
          "name": "",
          "type": "address"
        }
      ],
      "stateMutability": "view",
      "type": "function"
    },
    {
      "inputs": [],
      "name": "renounceOwnership",
      "outputs": [],
      "stateMutability": "nonpayable",
      "type": "function"
    },
    {
      "inputs": [],
      "name": "transactionFee",
      "outputs": [
        {
          "internalType": "uint256",
          "name": "",
          "type": "uint256"
        }
      ],
      "stateMutability": "view",
      "type": "function"
    },
    {
      "inputs": [
        {
          "internalType": "address",
          "name": "newOwner",
          "type": "address"
        }
      ],
      "name": "transferOwnership",
      "outputs": [],
      "stateMutability": "nonpayable",
      "type": "function"
    },
    {
      "inputs": [
        {
          "internalType": "address",
          "name": "_address",
          "type": "address"
        }
      ],
      "name": "setNewContractAddress",
      "outputs": [],
      "stateMutability": "nonpayable",
      "type": "function"
    },
    {
      "inputs": [
        {
          "internalType": "uint256",
          "name": "_devFee",
          "type": "uint256"
        }
      ],
      "name": "setDevFee",
      "outputs": [],
      "stateMutability": "nonpayable",
      "type": "function"
    },
    {
      "inputs": [],
      "name": "withdrawDevCommission",
      "outputs": [],
      "stateMutability": "nonpayable",
      "type": "function"
    }
  ],
  "bytecode": "0x608060405234801561001057600080fd5b5061002d61002261003260201b60201c565b61003a60201b60201c565b6100fe565b600033905090565b60008060009054906101000a900473ffffffffffffffffffffffffffffffffffffffff169050816000806101000a81548173ffffffffffffffffffffffffffffffffffffffff021916908373ffffffffffffffffffffffffffffffffffffffff1602179055508173ffffffffffffffffffffffffffffffffffffffff168173ffffffffffffffffffffffffffffffffffffffff167f8be0079c531659141344cd1fd0a4f28419497f9722a3daafe3b4186f6b6457e060405160405180910390a35050565b6108cf8061010d6000396000f3fe608060405234801561001057600080fd5b50600436106100935760003560e01c80638da5cb5b116100665780638da5cb5b146100e65780639ed3edf014610104578063e148919114610122578063f2fde38b14610140578063f3022de81461015c57610093565b80631c75b6b214610098578063699333aa146100b45780636af04a57146100be578063715018a6146100dc575b600080fd5b6100b260048036038101906100ad919061067e565b610178565b005b6100bc6101fe565b005b6100c66102dd565b6040516100d391906106ec565b60405180910390f35b6100e4610303565b005b6100ee61038b565b6040516100fb91906106ec565b60405180910390f35b61010c6103b4565b6040516101199190610716565b60405180910390f35b61012a6103ba565b6040516101379190610716565b60405180910390f35b61015a6004803603810190610155919061075d565b6103c0565b005b6101766004803603810190610171919061075d565b6104b7565b005b610180610577565b73ffffffffffffffffffffffffffffffffffffffff1661019e61038b565b73ffffffffffffffffffffffffffffffffffffffff16146101f4576040517f08c379a00000000000000000000000000000000000000000000000000000000081526004016101eb906107e7565b60405180910390fd5b8060018190555050565b610206610577565b73ffffffffffffffffffffffffffffffffffffffff1661022461038b565b73ffffffffffffffffffffffffffffffffffffffff161461027a576040517f08c379a0000000000000000000000000000000000000000000000000000000008152600401610271906107e7565b60405180910390fd5b600061028461038b565b905060006002541161029557600080fd5b8073ffffffffffffffffffffffffffffffffffffffff166108fc6002549081150290604051600060405180830381858888f19350505050156102da5760006002819055505b50565b600360009054906101000a900473ffffffffffffffffffffffffffffffffffffffff1681565b61030b610577565b73ffffffffffffffffffffffffffffffffffffffff1661032961038b565b73ffffffffffffffffffffffffffffffffffffffff161461037f576040517f08c379a0000000000000000000000000000000000000000000000000000000008152600401610376906107e7565b60405180910390fd5b610389600061057f565b565b60008060009054906101000a900473ffffffffffffffffffffffffffffffffffffffff16905090565b60015481565b60025481565b6103c8610577565b73ffffffffffffffffffffffffffffffffffffffff166103e661038b565b73ffffffffffffffffffffffffffffffffffffffff161461043c576040517f08c379a0000000000000000000000000000000000000000000000000000000008152600401610433906107e7565b60405180910390fd5b600073ffffffffffffffffffffffffffffffffffffffff168173ffffffffffffffffffffffffffffffffffffffff16036104ab576040517f08c379a00000000000000000000000000000000000000000000000000000000081526004016104a290610879565b60405180910390fd5b6104b48161057f565b50565b6104bf610577565b73ffffffffffffffffffffffffffffffffffffffff166104dd61038b565b73ffffffffffffffffffffffffffffffffffffffff1614610533576040517f08c379a000000000000000000000000000000000000000000000000000000000815260040161052a906107e7565b60405180910390fd5b80600360006101000a81548173ffffffffffffffffffffffffffffffffffffffff021916908373ffffffffffffffffffffffffffffffffffffffff16021790555050565b600033905090565b60008060009054906101000a900473ffffffffffffffffffffffffffffffffffffffff169050816000806101000a81548173ffffffffffffffffffffffffffffffffffffffff021916908373ffffffffffffffffffffffffffffffffffffffff1602179055508173ffffffffffffffffffffffffffffffffffffffff168173ffffffffffffffffffffffffffffffffffffffff167f8be0079c531659141344cd1fd0a4f28419497f9722a3daafe3b4186f6b6457e060405160405180910390a35050565b600080fd5b6000819050919050565b61065b81610648565b811461066657600080fd5b50565b60008135905061067881610652565b92915050565b60006020828403121561069457610693610643565b5b60006106a284828501610669565b91505092915050565b600073ffffffffffffffffffffffffffffffffffffffff82169050919050565b60006106d6826106ab565b9050919050565b6106e6816106cb565b82525050565b600060208201905061070160008301846106dd565b92915050565b61071081610648565b82525050565b600060208201905061072b6000830184610707565b92915050565b61073a816106cb565b811461074557600080fd5b50565b60008135905061075781610731565b92915050565b60006020828403121561077357610772610643565b5b600061078184828501610748565b91505092915050565b600082825260208201905092915050565b7f4f776e61626c653a2063616c6c6572206973206e6f7420746865206f776e6572600082015250565b60006107d160208361078a565b91506107dc8261079b565b602082019050919050565b60006020820190508181036000830152610800816107c4565b9050919050565b7f4f776e61626c653a206e6577206f776e657220697320746865207a65726f206160008201527f6464726573730000000000000000000000000000000000000000000000000000602082015250565b600061086360268361078a565b915061086e82610807565b604082019050919050565b6000602082019050818103600083015261089281610856565b905091905056fea26469706673582212205da4266f1bfe0de8ec86ca56d45c1538e4e574becad229b25d8c5cc1a788deba64736f6c634300080e0033",
  "immutableReferences": {},
  "source": "pragma solidity >= 0.0.8;\r\n\r\nimport \"@openzeppelin/contracts/access/Ownable.sol\";\r\n\r\n\r\ncontract ContractOwner is Ownable {\r\n\r\n    \r\n    uint public transactionFee;\r\n    uint public commission;    \r\n    address public newContractAddress;\r\n    function setNewContractAddress(address _address) public onlyOwner {\r\n\r\n        newContractAddress = _address;\r\n\r\n    }\r\n    \r\n    //Owner sets the fee they will deduct on each deposit. Fee percentage = developerFee/1000\r\n    function setDevFee(uint _devFee) public onlyOwner {\r\n\r\n        transactionFee = _devFee;\r\n\r\n    }\r\n\r\n    //Owner can withdraw his commission \r\n    function withdrawDevCommission() public onlyOwner{\r\n        address payable receiver = payable(owner());\r\n        require(commission>0);\r\n\r\n        if(receiver.send(commission)){\r\n            commission =0;\r\n\r\n        }\r\n    }\r\n\r\n  \r\n    \r\n\r\n    //Owner can add the address of new contract when they upgrade\r\n    \r\n\r\n}\r\n\r\n\r\n",
  "sourcePath": "C:\\Users\\jayfo\\Desktop\\Web3\\nft_example\\contracts\\ContractOwner.sol",
  "compiler": {
    "name": "solc",
    "version": "0.8.14+commit.80d49f37.Emscripten.clang"
  },
  "schemaVersion": "3.4.4",
  "updatedAt": "2022-06-05T23:56:43.288Z",
  "devdoc": {
    "kind": "dev",
    "methods": {
      "owner()": {
        "details": "Returns the address of the current owner."
      },
      "renounceOwnership()": {
        "details": "Leaves the contract without owner. It will not be possible to call `onlyOwner` functions anymore. Can only be called by the current owner. NOTE: Renouncing ownership will leave the contract without an owner, thereby removing any functionality that is only available to the owner."
      },
      "transferOwnership(address)": {
        "details": "Transfers ownership of the contract to a new account (`newOwner`). Can only be called by the current owner."
      }
    },
    "version": 1
  },
  "userdoc": {
    "kind": "user",
    "methods": {},
    "version": 1
  }
}