{
  "contractName": "DiamondHands",
  "abi": [
    {
      "inputs": [],
      "stateMutability": "nonpayable",
      "type": "constructor"
    },
    {
      "inputs": [
        {
          "internalType": "address",
          "name": "",
          "type": "address"
        }
      ],
      "name": "accounts",
      "outputs": [
        {
          "internalType": "address",
          "name": "_address",
          "type": "address"
        },
        {
          "internalType": "uint256",
          "name": "_expiry",
          "type": "uint256"
        },
        {
          "internalType": "uint256",
          "name": "_lockedEth",
          "type": "uint256"
        },
        {
          "internalType": "bool",
          "name": "_initialized",
          "type": "bool"
        }
      ],
      "stateMutability": "view",
      "type": "function",
      "constant": true
    },
    {
      "inputs": [],
      "name": "devCommission",
      "outputs": [
        {
          "internalType": "uint256",
          "name": "",
          "type": "uint256"
        }
      ],
      "stateMutability": "view",
      "type": "function",
      "constant": true
    },
    {
      "inputs": [],
      "name": "developerFee",
      "outputs": [
        {
          "internalType": "uint256",
          "name": "",
          "type": "uint256"
        }
      ],
      "stateMutability": "view",
      "type": "function",
      "constant": true
    },
    {
      "inputs": [],
      "name": "newContractAddress",
      "outputs": [
        {
          "internalType": "address",
          "name": "",
          "type": "address"
        }
      ],
      "stateMutability": "view",
      "type": "function",
      "constant": true
    },
    {
      "inputs": [],
      "name": "pauseContract",
      "outputs": [
        {
          "internalType": "bool",
          "name": "",
          "type": "bool"
        }
      ],
      "stateMutability": "view",
      "type": "function",
      "constant": true
    },
    {
      "inputs": [
        {
          "internalType": "uint256",
          "name": "_expiry",
          "type": "uint256"
        }
      ],
      "name": "startAccount",
      "outputs": [],
      "stateMutability": "payable",
      "type": "function",
      "payable": true
    },
    {
      "inputs": [],
      "name": "addToAccount",
      "outputs": [],
      "stateMutability": "payable",
      "type": "function",
      "payable": true
    },
    {
      "inputs": [],
      "name": "withdrawETH",
      "outputs": [],
      "stateMutability": "nonpayable",
      "type": "function"
    },
    {
      "inputs": [
        {
          "internalType": "address",
          "name": "_owner",
          "type": "address"
        }
      ],
      "name": "setNewOwner",
      "outputs": [],
      "stateMutability": "nonpayable",
      "type": "function"
    },
    {
      "inputs": [
        {
          "internalType": "bool",
          "name": "_state",
          "type": "bool"
        }
      ],
      "name": "setContractState",
      "outputs": [],
      "stateMutability": "nonpayable",
      "type": "function"
    },
    {
      "inputs": [
        {
          "internalType": "address",
          "name": "_address",
          "type": "address"
        }
      ],
      "name": "setNewContractAddress",
      "outputs": [],
      "stateMutability": "nonpayable",
      "type": "function"
    },
    {
      "inputs": [
        {
          "internalType": "uint256",
          "name": "_devFee",
          "type": "uint256"
        }
      ],
      "name": "setDevFee",
      "outputs": [],
      "stateMutability": "nonpayable",
      "type": "function"
    },
    {
      "inputs": [],
      "name": "withdrawDevCommission",
      "outputs": [],
      "stateMutability": "nonpayable",
      "type": "function"
    }
  ],
  "bytecode": "0x608060405234801561001057600080fd5b50336000806101000a81548173ffffffffffffffffffffffffffffffffffffffff021916908373ffffffffffffffffffffffffffffffffffffffff160217905550611003806100606000396000f3fe6080604052600436106100c25760003560e01c8063699333aa1161007f578063b858b1ab11610059578063b858b1ab146102b6578063e086e5ec146102e4578063f3022de8146102fb578063f5a1f5b41461034c576100c2565b8063699333aa146102215780636af04a5714610238578063aefd8dc714610279576100c2565b80630a32e91e146100c75780631c75b6b2146100f257806331c2ad531461012d578063439766ce146101585780634f4ba861146101855780635e5c06e21461018f575b600080fd5b3480156100d357600080fd5b506100dc61039d565b6040518082815260200191505060405180910390f35b3480156100fe57600080fd5b5061012b6004803603602081101561011557600080fd5b81019080803590602001909291905050506103a3565b005b34801561013957600080fd5b50610142610425565b6040518082815260200191505060405180910390f35b34801561016457600080fd5b5061016d61042b565b60405180821515815260200191505060405180910390f35b61018d61043e565b005b34801561019b57600080fd5b506101de600480360360208110156101b257600080fd5b81019080803573ffffffffffffffffffffffffffffffffffffffff1690602001909291905050506106de565b604051808573ffffffffffffffffffffffffffffffffffffffff168152602001848152602001838152602001821515815260200194505050505060405180910390f35b34801561022d57600080fd5b5061023661073b565b005b34801561024457600080fd5b5061024d610879565b604051808273ffffffffffffffffffffffffffffffffffffffff16815260200191505060405180910390f35b34801561028557600080fd5b506102b46004803603602081101561029c57600080fd5b8101908080351515906020019092919050505061089f565b005b6102e2600480360360208110156102cc57600080fd5b8101908080359060200190929190505050610914565b005b3480156102f057600080fd5b506102f9610b92565b005b34801561030757600080fd5b5061034a6004803603602081101561031e57600080fd5b81019080803573ffffffffffffffffffffffffffffffffffffffff169060200190929190505050610e96565b005b34801561035857600080fd5b5061039b6004803603602081101561036f57600080fd5b81019080803573ffffffffffffffffffffffffffffffffffffffff169060200190929190505050610f32565b005b60025481565b60008054906101000a900473ffffffffffffffffffffffffffffffffffffffff1673ffffffffffffffffffffffffffffffffffffffff163373ffffffffffffffffffffffffffffffffffffffff16146103fb57600080fd5b60001515600360009054906101000a900460ff1615151461041b57600080fd5b8060018190555050565b60015481565b600360009054906101000a900460ff1681565b60001515600360009054906101000a900460ff1615151461045e57600080fd5b6000341161046b57600080fd5b60011515600460003373ffffffffffffffffffffffffffffffffffffffff1673ffffffffffffffffffffffffffffffffffffffff16815260200190815260200160002060030160009054906101000a900460ff16151514610534576040517f08c379a00000000000000000000000000000000000000000000000000000000081526004018080602001828103825260168152602001807f4163636f756e7420446f6573204e6f742045786973740000000000000000000081525060200191505060405180910390fd5b600034600460003373ffffffffffffffffffffffffffffffffffffffff1673ffffffffffffffffffffffffffffffffffffffff1681526020019081526020016000206002015401905060405180608001604052803373ffffffffffffffffffffffffffffffffffffffff168152602001600460003373ffffffffffffffffffffffffffffffffffffffff1673ffffffffffffffffffffffffffffffffffffffff16815260200190815260200160002060010154815260200182815260200160011515815250600460003373ffffffffffffffffffffffffffffffffffffffff1673ffffffffffffffffffffffffffffffffffffffff16815260200190815260200160002060008201518160000160006101000a81548173ffffffffffffffffffffffffffffffffffffffff021916908373ffffffffffffffffffffffffffffffffffffffff160217905550602082015181600101556040820151816002015560608201518160030160006101000a81548160ff02191690831515021790555090505060006103e86001543402816106c757fe5b049050806002600082825401925050819055505050565b60046020528060005260406000206000915090508060000160009054906101000a900473ffffffffffffffffffffffffffffffffffffffff16908060010154908060020154908060030160009054906101000a900460ff16905084565b60008054906101000a900473ffffffffffffffffffffffffffffffffffffffff1673ffffffffffffffffffffffffffffffffffffffff163373ffffffffffffffffffffffffffffffffffffffff161461079357600080fd5b60008060009054906101000a900473ffffffffffffffffffffffffffffffffffffffff169050600060025411610831576040517f08c379a00000000000000000000000000000000000000000000000000000000081526004018080602001828103825260168152602001807f44657620436f6d6d697373696f6e206973207a65726f0000000000000000000081525060200191505060405180910390fd5b8073ffffffffffffffffffffffffffffffffffffffff166108fc6002549081150290604051600060405180830381858888f19350505050156108765760006002819055505b50565b600360019054906101000a900473ffffffffffffffffffffffffffffffffffffffff1681565b60008054906101000a900473ffffffffffffffffffffffffffffffffffffffff1673ffffffffffffffffffffffffffffffffffffffff163373ffffffffffffffffffffffffffffffffffffffff16146108f757600080fd5b80600360006101000a81548160ff02191690831515021790555050565b60001515600360009054906101000a900460ff1615151461093457600080fd5b600034116109aa576040517f08c379a000000000000000000000000000000000000000000000000000000000815260040180806020018281038252600b8152602001807f4e6f204554482073656e7400000000000000000000000000000000000000000081525060200191505060405180910390fd5b60001515600460003373ffffffffffffffffffffffffffffffffffffffff1673ffffffffffffffffffffffffffffffffffffffff16815260200190815260200160002060030160009054906101000a900460ff16151514610a73576040517f08c379a00000000000000000000000000000000000000000000000000000000081526004018080602001828103825260168152602001807f4163636f756e7420416c7265616479204578697374730000000000000000000081525060200191505060405180910390fd5b60405180608001604052803373ffffffffffffffffffffffffffffffffffffffff16815260200182815260200134815260200160011515815250600460003373ffffffffffffffffffffffffffffffffffffffff1673ffffffffffffffffffffffffffffffffffffffff16815260200190815260200160002060008201518160000160006101000a81548173ffffffffffffffffffffffffffffffffffffffff021916908373ffffffffffffffffffffffffffffffffffffffff160217905550602082015181600101556040820151816002015560608201518160030160006101000a81548160ff02191690831515021790555090505060006103e8600154340281610b7b57fe5b049050806002600082825401925050819055505050565b60011515600460003373ffffffffffffffffffffffffffffffffffffffff1673ffffffffffffffffffffffffffffffffffffffff16815260200190815260200160002060030160009054906101000a900460ff16151514610c5b576040517f08c379a00000000000000000000000000000000000000000000000000000000081526004018080602001828103825260168152602001807f4163636f756e7420446f6573204e6f742045786973740000000000000000000081525060200191505060405180910390fd5b600460003373ffffffffffffffffffffffffffffffffffffffff1673ffffffffffffffffffffffffffffffffffffffff168152602001908152602001600020600101544211610d12576040517f08c379a00000000000000000000000000000000000000000000000000000000081526004018080602001828103825260168152602001807f457870697279204e6f742052656163686564205965740000000000000000000081525060200191505060405180910390fd5b6000600460003373ffffffffffffffffffffffffffffffffffffffff1673ffffffffffffffffffffffffffffffffffffffff16815260200190815260200160002060020154905060003390508073ffffffffffffffffffffffffffffffffffffffff166108fc839081150290604051600060405180830381858888f1935050505015610e925760405180608001604052803373ffffffffffffffffffffffffffffffffffffffff168152602001600081526020016000815260200160001515815250600460003373ffffffffffffffffffffffffffffffffffffffff1673ffffffffffffffffffffffffffffffffffffffff16815260200190815260200160002060008201518160000160006101000a81548173ffffffffffffffffffffffffffffffffffffffff021916908373ffffffffffffffffffffffffffffffffffffffff160217905550602082015181600101556040820151816002015560608201518160030160006101000a81548160ff0219169083151502179055509050505b5050565b60008054906101000a900473ffffffffffffffffffffffffffffffffffffffff1673ffffffffffffffffffffffffffffffffffffffff163373ffffffffffffffffffffffffffffffffffffffff1614610eee57600080fd5b80600360016101000a81548173ffffffffffffffffffffffffffffffffffffffff021916908373ffffffffffffffffffffffffffffffffffffffff16021790555050565b60008054906101000a900473ffffffffffffffffffffffffffffffffffffffff1673ffffffffffffffffffffffffffffffffffffffff163373ffffffffffffffffffffffffffffffffffffffff1614610f8a57600080fd5b806000806101000a81548173ffffffffffffffffffffffffffffffffffffffff021916908373ffffffffffffffffffffffffffffffffffffffff1602179055505056fea26469706673582212208c8dce8f8862492e2aebd982864d4dbeec0b5716af0715040bdec88ce89e995d64736f6c634300060c0033",
  "immutableReferences": {},
  "source": "pragma solidity >=0.6.0;\r\n\r\ncontract DiamondHands {\r\n\r\n    address owner;\r\n    uint public developerFee;\r\n    uint public devCommission;\r\n    bool public pauseContract;\r\n    address public newContractAddress;\r\n\r\n    constructor() public {\r\n        owner = msg.sender;\r\n    }\r\n\r\n    modifier onlyOwner(){\r\n        require(msg.sender == owner);\r\n        _;\r\n    }\r\n\r\n    modifier contractPaused(){\r\n        require(pauseContract == true);\r\n        _;\r\n    }\r\n\r\n    modifier contractNotPaused(){\r\n        require(pauseContract == false);\r\n        _;\r\n    }\r\n\r\n    struct account{\r\n        address _address;\r\n        uint _expiry;\r\n        uint _lockedEth;\r\n        bool _initialized;\r\n    }\r\n\r\n    mapping(address=>account) public accounts;\r\n    \r\n    function startAccount (uint _expiry) public payable contractNotPaused {\r\n        require(msg.value>0, \"No ETH sent\");\r\n        require(accounts[msg.sender]._initialized==false,\"Account Already Exists\");\r\n        accounts[msg.sender] = account(msg.sender, _expiry, msg.value, true);\r\n        uint commission = (msg.value*developerFee)/1000;\r\n        devCommission+=commission;\r\n        \r\n\r\n    }\r\n    function addToAccount () public payable contractNotPaused {\r\n        require(msg.value>0);\r\n        require(accounts[msg.sender]._initialized==true, \"Account Does Not Exist\");\r\n        \r\n        uint netAmount = accounts[msg.sender]._lockedEth+msg.value;\r\n        accounts[msg.sender] = account(msg.sender, accounts[msg.sender]._expiry, netAmount, true);\r\n        uint commission = (msg.value*developerFee)/1000;\r\n        devCommission+=commission;\r\n        \r\n\r\n    }\r\n    function withdrawETH() public {\r\n        require(accounts[msg.sender]._initialized==true, \"Account Does Not Exist\");\r\n        require(block.timestamp > accounts[msg.sender]._expiry, \"Expiry Not Reached Yet\");\r\n        uint withdrawAmount = accounts[msg.sender]._lockedEth;\r\n        address payable receiver = payable(msg.sender);\r\n        if(receiver.send(withdrawAmount)){\r\n            accounts[msg.sender] = account(msg.sender, 0, 0, false);\r\n        }\r\n        //require(payable(msg.sender).transfer(withdrawAmount),\"Withdraw Transaction Failed\");\r\n        \r\n\r\n\r\n    }\r\n\r\n    function setNewOwner(address _owner) public onlyOwner {\r\n\r\n        owner = _owner;\r\n\r\n    }\r\n\r\n    function setContractState(bool _state) public onlyOwner {\r\n\r\n        pauseContract = _state;\r\n\r\n    }\r\n\r\n    function setNewContractAddress(address _address) public onlyOwner {\r\n\r\n        newContractAddress = _address;\r\n\r\n    }\r\n    \r\n\r\n    function setDevFee(uint _devFee) public onlyOwner contractNotPaused{\r\n\r\n        developerFee = _devFee;\r\n\r\n    }\r\n\r\n    function withdrawDevCommission() public onlyOwner{\r\n        address payable dev = payable(owner);\r\n        require(devCommission>0, \"Dev Commission is zero\");\r\n\r\n        if(dev.send(devCommission)){\r\n            devCommission =0;\r\n\r\n        }\r\n\r\n\r\n    }\r\n\r\n\r\n}",
  "sourcePath": "C:\\Users\\jayfo\\Desktop\\Web3\\example\\contracts\\DiamondHands.sol",
  "compiler": {
    "name": "solc",
    "version": "0.6.12+commit.27d51765.Emscripten.clang"
  },
  "schemaVersion": "3.4.4",
  "updatedAt": "2022-06-04T20:41:00.087Z",
  "networkType": "ethereum",
  "devdoc": {
    "kind": "dev",
    "methods": {},
    "version": 1
  },
  "userdoc": {
    "kind": "user",
    "methods": {},
    "version": 1
  }
}