{
  "contractName": "nftCreator",
  "abi": [
    {
      "inputs": [],
      "stateMutability": "nonpayable",
      "type": "constructor"
    },
    {
      "anonymous": false,
      "inputs": [
        {
          "indexed": true,
          "internalType": "address",
          "name": "owner",
          "type": "address"
        },
        {
          "indexed": true,
          "internalType": "address",
          "name": "approved",
          "type": "address"
        },
        {
          "indexed": true,
          "internalType": "uint256",
          "name": "tokenId",
          "type": "uint256"
        }
      ],
      "name": "Approval",
      "type": "event"
    },
    {
      "anonymous": false,
      "inputs": [
        {
          "indexed": true,
          "internalType": "address",
          "name": "owner",
          "type": "address"
        },
        {
          "indexed": true,
          "internalType": "address",
          "name": "operator",
          "type": "address"
        },
        {
          "indexed": false,
          "internalType": "bool",
          "name": "approved",
          "type": "bool"
        }
      ],
      "name": "ApprovalForAll",
      "type": "event"
    },
    {
      "anonymous": false,
      "inputs": [
        {
          "indexed": true,
          "internalType": "address",
          "name": "from",
          "type": "address"
        },
        {
          "indexed": true,
          "internalType": "address",
          "name": "to",
          "type": "address"
        },
        {
          "indexed": true,
          "internalType": "uint256",
          "name": "tokenId",
          "type": "uint256"
        }
      ],
      "name": "Transfer",
      "type": "event"
    },
    {
      "inputs": [
        {
          "internalType": "uint256",
          "name": "",
          "type": "uint256"
        }
      ],
      "name": "allTokens",
      "outputs": [
        {
          "internalType": "uint256",
          "name": "_tokenId",
          "type": "uint256"
        },
        {
          "internalType": "string",
          "name": "_tokenName",
          "type": "string"
        },
        {
          "internalType": "string",
          "name": "_streetAddress",
          "type": "string"
        },
        {
          "internalType": "string",
          "name": "_registrationLink",
          "type": "string"
        }
      ],
      "stateMutability": "view",
      "type": "function",
      "constant": true
    },
    {
      "inputs": [
        {
          "internalType": "address",
          "name": "to",
          "type": "address"
        },
        {
          "internalType": "uint256",
          "name": "tokenId",
          "type": "uint256"
        }
      ],
      "name": "approve",
      "outputs": [],
      "stateMutability": "nonpayable",
      "type": "function"
    },
    {
      "inputs": [
        {
          "internalType": "address",
          "name": "owner",
          "type": "address"
        }
      ],
      "name": "balanceOf",
      "outputs": [
        {
          "internalType": "uint256",
          "name": "",
          "type": "uint256"
        }
      ],
      "stateMutability": "view",
      "type": "function",
      "constant": true
    },
    {
      "inputs": [
        {
          "internalType": "string",
          "name": "",
          "type": "string"
        }
      ],
      "name": "existingStreetAddress",
      "outputs": [
        {
          "internalType": "bool",
          "name": "",
          "type": "bool"
        }
      ],
      "stateMutability": "view",
      "type": "function",
      "constant": true
    },
    {
      "inputs": [
        {
          "internalType": "uint256",
          "name": "tokenId",
          "type": "uint256"
        }
      ],
      "name": "getApproved",
      "outputs": [
        {
          "internalType": "address",
          "name": "",
          "type": "address"
        }
      ],
      "stateMutability": "view",
      "type": "function",
      "constant": true
    },
    {
      "inputs": [
        {
          "internalType": "address",
          "name": "owner",
          "type": "address"
        },
        {
          "internalType": "address",
          "name": "operator",
          "type": "address"
        }
      ],
      "name": "isApprovedForAll",
      "outputs": [
        {
          "internalType": "bool",
          "name": "",
          "type": "bool"
        }
      ],
      "stateMutability": "view",
      "type": "function",
      "constant": true
    },
    {
      "inputs": [
        {
          "internalType": "address",
          "name": "",
          "type": "address"
        }
      ],
      "name": "kribxProperties",
      "outputs": [
        {
          "internalType": "uint256",
          "name": "_tokenId",
          "type": "uint256"
        },
        {
          "internalType": "string",
          "name": "_tokenName",
          "type": "string"
        },
        {
          "internalType": "string",
          "name": "_streetAddress",
          "type": "string"
        },
        {
          "internalType": "string",
          "name": "_registrationLink",
          "type": "string"
        }
      ],
      "stateMutability": "view",
      "type": "function",
      "constant": true
    },
    {
      "inputs": [],
      "name": "name",
      "outputs": [
        {
          "internalType": "string",
          "name": "",
          "type": "string"
        }
      ],
      "stateMutability": "view",
      "type": "function",
      "constant": true
    },
    {
      "inputs": [
        {
          "internalType": "uint256",
          "name": "tokenId",
          "type": "uint256"
        }
      ],
      "name": "ownerOf",
      "outputs": [
        {
          "internalType": "address",
          "name": "",
          "type": "address"
        }
      ],
      "stateMutability": "view",
      "type": "function",
      "constant": true
    },
    {
      "inputs": [
        {
          "internalType": "address",
          "name": "from",
          "type": "address"
        },
        {
          "internalType": "address",
          "name": "to",
          "type": "address"
        },
        {
          "internalType": "uint256",
          "name": "tokenId",
          "type": "uint256"
        }
      ],
      "name": "safeTransferFrom",
      "outputs": [],
      "stateMutability": "nonpayable",
      "type": "function"
    },
    {
      "inputs": [
        {
          "internalType": "address",
          "name": "from",
          "type": "address"
        },
        {
          "internalType": "address",
          "name": "to",
          "type": "address"
        },
        {
          "internalType": "uint256",
          "name": "tokenId",
          "type": "uint256"
        },
        {
          "internalType": "bytes",
          "name": "_data",
          "type": "bytes"
        }
      ],
      "name": "safeTransferFrom",
      "outputs": [],
      "stateMutability": "nonpayable",
      "type": "function"
    },
    {
      "inputs": [
        {
          "internalType": "address",
          "name": "operator",
          "type": "address"
        },
        {
          "internalType": "bool",
          "name": "approved",
          "type": "bool"
        }
      ],
      "name": "setApprovalForAll",
      "outputs": [],
      "stateMutability": "nonpayable",
      "type": "function"
    },
    {
      "inputs": [
        {
          "internalType": "bytes4",
          "name": "interfaceId",
          "type": "bytes4"
        }
      ],
      "name": "supportsInterface",
      "outputs": [
        {
          "internalType": "bool",
          "name": "",
          "type": "bool"
        }
      ],
      "stateMutability": "view",
      "type": "function",
      "constant": true
    },
    {
      "inputs": [],
      "name": "symbol",
      "outputs": [
        {
          "internalType": "string",
          "name": "",
          "type": "string"
        }
      ],
      "stateMutability": "view",
      "type": "function",
      "constant": true
    },
    {
      "inputs": [
        {
          "internalType": "uint256",
          "name": "tokenId",
          "type": "uint256"
        }
      ],
      "name": "tokenURI",
      "outputs": [
        {
          "internalType": "string",
          "name": "",
          "type": "string"
        }
      ],
      "stateMutability": "view",
      "type": "function",
      "constant": true
    },
    {
      "inputs": [
        {
          "internalType": "address",
          "name": "from",
          "type": "address"
        },
        {
          "internalType": "address",
          "name": "to",
          "type": "address"
        },
        {
          "internalType": "uint256",
          "name": "tokenId",
          "type": "uint256"
        }
      ],
      "name": "transferFrom",
      "outputs": [],
      "stateMutability": "nonpayable",
      "type": "function"
    },
    {
      "inputs": [
        {
          "internalType": "string",
          "name": "streetAddress",
          "type": "string"
        },
        {
          "internalType": "string",
          "name": "registrationLink",
          "type": "string"
        },
        {
          "internalType": "string",
          "name": "tokenName",
          "type": "string"
        }
      ],
      "name": "createRealEstateNFT",
      "outputs": [],
      "stateMutability": "nonpayable",
      "type": "function"
    }
  ],
  "bytecode": "0x608060405260006006553480156200001657600080fd5b506040518060400160405280600581526020017f4b726962580000000000000000000000000000000000000000000000000000008152506040518060400160405280600381526020017f4b5258000000000000000000000000000000000000000000000000000000000081525081600090805190602001906200009b929190620000bd565b508060019080519060200190620000b4929190620000bd565b505050620001d1565b828054620000cb906200019c565b90600052602060002090601f016020900481019282620000ef57600085556200013b565b82601f106200010a57805160ff19168380011785556200013b565b828001600101855582156200013b579182015b828111156200013a5782518255916020019190600101906200011d565b5b5090506200014a91906200014e565b5090565b5b80821115620001695760008160009055506001016200014f565b5090565b7f4e487b7100000000000000000000000000000000000000000000000000000000600052602260045260246000fd5b60006002820490506001821680620001b557607f821691505b602082108103620001cb57620001ca6200016d565b5b50919050565b61312080620001e16000396000f3fe608060405234801561001057600080fd5b506004361061010a5760003560e01c8063634282af116100a2578063a22cb46511610071578063a22cb465146102f5578063b196232b14610311578063b88d4fde1461032d578063c87b56dd14610349578063e985e9c5146103795761010a565b8063634282af146102445780636352211e1461027757806370a08231146102a757806395d89b41146102d75761010a565b8063081812fc116100de578063081812fc146101c0578063095ea7b3146101f057806323b872dd1461020c57806342842e0e146102285761010a565b80623d869f1461010f578063013f7ef01461013f57806301ffc9a71461017257806306fdde03146101a2575b600080fd5b61012960048036038101906101249190611eff565b6103a9565b6040516101369190611f63565b60405180910390f35b61015960048036038101906101549190611fdc565b6103df565b60405161016994939291906120aa565b60405180910390f35b61018c6004803603810190610187919061215c565b6105a7565b6040516101999190611f63565b60405180910390f35b6101aa610689565b6040516101b79190612189565b60405180910390f35b6101da60048036038101906101d591906121d7565b61071b565b6040516101e79190612213565b60405180910390f35b61020a6004803603810190610205919061222e565b6107a0565b005b6102266004803603810190610221919061226e565b6108b7565b005b610242600480360381019061023d919061226e565b610917565b005b61025e600480360381019061025991906121d7565b610937565b60405161026e94939291906120aa565b60405180910390f35b610291600480360381019061028c91906121d7565b610aff565b60405161029e9190612213565b60405180910390f35b6102c160048036038101906102bc9190611fdc565b610bb0565b6040516102ce91906122c1565b60405180910390f35b6102df610c67565b6040516102ec9190612189565b60405180910390f35b61030f600480360381019061030a9190612308565b610cf9565b005b61032b60048036038101906103269190612348565b610d0f565b005b61034760048036038101906103429190612490565b610f45565b005b610363600480360381019061035e91906121d7565b610fa7565b6040516103709190612189565b60405180910390f35b610393600480360381019061038e9190612513565b61104e565b6040516103a09190611f63565b60405180910390f35b6009818051602081018201805184825260208301602085012081835280955050505050506000915054906101000a900460ff1681565b600760205280600052604060002060009150905080600001549080600101805461040890612582565b80601f016020809104026020016040519081016040528092919081815260200182805461043490612582565b80156104815780601f1061045657610100808354040283529160200191610481565b820191906000526020600020905b81548152906001019060200180831161046457829003601f168201915b50505050509080600201805461049690612582565b80601f01602080910402602001604051908101604052809291908181526020018280546104c290612582565b801561050f5780601f106104e45761010080835404028352916020019161050f565b820191906000526020600020905b8154815290600101906020018083116104f257829003601f168201915b50505050509080600301805461052490612582565b80601f016020809104026020016040519081016040528092919081815260200182805461055090612582565b801561059d5780601f106105725761010080835404028352916020019161059d565b820191906000526020600020905b81548152906001019060200180831161058057829003601f168201915b5050505050905084565b60007f80ac58cd000000000000000000000000000000000000000000000000000000007bffffffffffffffffffffffffffffffffffffffffffffffffffffffff1916827bffffffffffffffffffffffffffffffffffffffffffffffffffffffff1916148061067257507f5b5e139f000000000000000000000000000000000000000000000000000000007bffffffffffffffffffffffffffffffffffffffffffffffffffffffff1916827bffffffffffffffffffffffffffffffffffffffffffffffffffffffff1916145b806106825750610681826110e2565b5b9050919050565b60606000805461069890612582565b80601f01602080910402602001604051908101604052809291908181526020018280546106c490612582565b80156107115780601f106106e657610100808354040283529160200191610711565b820191906000526020600020905b8154815290600101906020018083116106f457829003601f168201915b5050505050905090565b60006107268261114c565b610765576040517f08c379a000000000000000000000000000000000000000000000000000000000815260040161075c90612625565b60405180910390fd5b6004600083815260200190815260200160002060009054906101000a900473ffffffffffffffffffffffffffffffffffffffff169050919050565b60006107ab82610aff565b90508073ffffffffffffffffffffffffffffffffffffffff168373ffffffffffffffffffffffffffffffffffffffff160361081b576040517f08c379a0000000000000000000000000000000000000000000000000000000008152600401610812906126b7565b60405180910390fd5b8073ffffffffffffffffffffffffffffffffffffffff1661083a6111b8565b73ffffffffffffffffffffffffffffffffffffffff1614806108695750610868816108636111b8565b61104e565b5b6108a8576040517f08c379a000000000000000000000000000000000000000000000000000000000815260040161089f90612749565b60405180910390fd5b6108b283836111c0565b505050565b6108c86108c26111b8565b82611279565b610907576040517f08c379a00000000000000000000000000000000000000000000000000000000081526004016108fe906127db565b60405180910390fd5b610912838383611357565b505050565b61093283838360405180602001604052806000815250610f45565b505050565b600860205280600052604060002060009150905080600001549080600101805461096090612582565b80601f016020809104026020016040519081016040528092919081815260200182805461098c90612582565b80156109d95780601f106109ae576101008083540402835291602001916109d9565b820191906000526020600020905b8154815290600101906020018083116109bc57829003601f168201915b5050505050908060020180546109ee90612582565b80601f0160208091040260200160405190810160405280929190818152602001828054610a1a90612582565b8015610a675780601f10610a3c57610100808354040283529160200191610a67565b820191906000526020600020905b815481529060010190602001808311610a4a57829003601f168201915b505050505090806003018054610a7c90612582565b80601f0160208091040260200160405190810160405280929190818152602001828054610aa890612582565b8015610af55780601f10610aca57610100808354040283529160200191610af5565b820191906000526020600020905b815481529060010190602001808311610ad857829003601f168201915b5050505050905084565b6000806002600084815260200190815260200160002060009054906101000a900473ffffffffffffffffffffffffffffffffffffffff169050600073ffffffffffffffffffffffffffffffffffffffff168173ffffffffffffffffffffffffffffffffffffffff1603610ba7576040517f08c379a0000000000000000000000000000000000000000000000000000000008152600401610b9e9061286d565b60405180910390fd5b80915050919050565b60008073ffffffffffffffffffffffffffffffffffffffff168273ffffffffffffffffffffffffffffffffffffffff1603610c20576040517f08c379a0000000000000000000000000000000000000000000000000000000008152600401610c17906128ff565b60405180910390fd5b600360008373ffffffffffffffffffffffffffffffffffffffff1673ffffffffffffffffffffffffffffffffffffffff168152602001908152602001600020549050919050565b606060018054610c7690612582565b80601f0160208091040260200160405190810160405280929190818152602001828054610ca290612582565b8015610cef5780601f10610cc457610100808354040283529160200191610cef565b820191906000526020600020905b815481529060010190602001808311610cd257829003601f168201915b5050505050905090565b610d0b610d046111b8565b83836115bd565b5050565b60001515600984604051610d23919061295b565b908152602001604051809103902060009054906101000a900460ff16151514610d81576040517f08c379a0000000000000000000000000000000000000000000000000000000008152600401610d78906129e4565b60405180910390fd5b600160066000828254610d949190612a33565b92505081905550610da733600654611729565b6040518060800160405280600654815260200182815260200184815260200183815250600760003373ffffffffffffffffffffffffffffffffffffffff1673ffffffffffffffffffffffffffffffffffffffff168152602001908152602001600020600082015181600001556020820151816001019080519060200190610e2f929190611d02565b506040820151816002019080519060200190610e4c929190611d02565b506060820151816003019080519060200190610e69929190611d02565b509050506040518060800160405280600654815260200182815260200184815260200183815250600860006006548152602001908152602001600020600082015181600001556020820151816001019080519060200190610ecb929190611d02565b506040820151816002019080519060200190610ee8929190611d02565b506060820151816003019080519060200190610f05929190611d02565b509050506001600984604051610f1b919061295b565b908152602001604051809103902060006101000a81548160ff021916908315150217905550505050565b610f56610f506111b8565b83611279565b610f95576040517f08c379a0000000000000000000000000000000000000000000000000000000008152600401610f8c906127db565b60405180910390fd5b610fa184848484611747565b50505050565b6060610fb28261114c565b610ff1576040517f08c379a0000000000000000000000000000000000000000000000000000000008152600401610fe890612afb565b60405180910390fd5b6000610ffb6117a3565b9050600081511161101b5760405180602001604052806000815250611046565b80611025846117ba565b604051602001611036929190612b1b565b6040516020818303038152906040525b915050919050565b6000600560008473ffffffffffffffffffffffffffffffffffffffff1673ffffffffffffffffffffffffffffffffffffffff16815260200190815260200160002060008373ffffffffffffffffffffffffffffffffffffffff1673ffffffffffffffffffffffffffffffffffffffff16815260200190815260200160002060009054906101000a900460ff16905092915050565b60007f01ffc9a7000000000000000000000000000000000000000000000000000000007bffffffffffffffffffffffffffffffffffffffffffffffffffffffff1916827bffffffffffffffffffffffffffffffffffffffffffffffffffffffff1916149050919050565b60008073ffffffffffffffffffffffffffffffffffffffff166002600084815260200190815260200160002060009054906101000a900473ffffffffffffffffffffffffffffffffffffffff1673ffffffffffffffffffffffffffffffffffffffff1614159050919050565b600033905090565b816004600083815260200190815260200160002060006101000a81548173ffffffffffffffffffffffffffffffffffffffff021916908373ffffffffffffffffffffffffffffffffffffffff160217905550808273ffffffffffffffffffffffffffffffffffffffff1661123383610aff565b73ffffffffffffffffffffffffffffffffffffffff167f8c5be1e5ebec7d5bd14f71427d1e84f3dd0314c0f7b2291e5b200ac8c7c3b92560405160405180910390a45050565b60006112848261114c565b6112c3576040517f08c379a00000000000000000000000000000000000000000000000000000000081526004016112ba90612bb1565b60405180910390fd5b60006112ce83610aff565b90508073ffffffffffffffffffffffffffffffffffffffff168473ffffffffffffffffffffffffffffffffffffffff161480611310575061130f818561104e565b5b8061134e57508373ffffffffffffffffffffffffffffffffffffffff166113368461071b565b73ffffffffffffffffffffffffffffffffffffffff16145b91505092915050565b8273ffffffffffffffffffffffffffffffffffffffff1661137782610aff565b73ffffffffffffffffffffffffffffffffffffffff16146113cd576040517f08c379a00000000000000000000000000000000000000000000000000000000081526004016113c490612c43565b60405180910390fd5b600073ffffffffffffffffffffffffffffffffffffffff168273ffffffffffffffffffffffffffffffffffffffff160361143c576040517f08c379a000000000000000000000000000000000000000000000000000000000815260040161143390612cd5565b60405180910390fd5b61144783838361191a565b6114526000826111c0565b6001600360008573ffffffffffffffffffffffffffffffffffffffff1673ffffffffffffffffffffffffffffffffffffffff16815260200190815260200160002060008282546114a29190612cf5565b925050819055506001600360008473ffffffffffffffffffffffffffffffffffffffff1673ffffffffffffffffffffffffffffffffffffffff16815260200190815260200160002060008282546114f99190612a33565b92505081905550816002600083815260200190815260200160002060006101000a81548173ffffffffffffffffffffffffffffffffffffffff021916908373ffffffffffffffffffffffffffffffffffffffff160217905550808273ffffffffffffffffffffffffffffffffffffffff168473ffffffffffffffffffffffffffffffffffffffff167fddf252ad1be2c89b69c2b068fc378daa952ba7f163c4a11628f55a4df523b3ef60405160405180910390a46115b883838361191f565b505050565b8173ffffffffffffffffffffffffffffffffffffffff168373ffffffffffffffffffffffffffffffffffffffff160361162b576040517f08c379a000000000000000000000000000000000000000000000000000000000815260040161162290612d75565b60405180910390fd5b80600560008573ffffffffffffffffffffffffffffffffffffffff1673ffffffffffffffffffffffffffffffffffffffff16815260200190815260200160002060008473ffffffffffffffffffffffffffffffffffffffff1673ffffffffffffffffffffffffffffffffffffffff16815260200190815260200160002060006101000a81548160ff0219169083151502179055508173ffffffffffffffffffffffffffffffffffffffff168373ffffffffffffffffffffffffffffffffffffffff167f17307eab39ab6107e8899845ad3d59bd9653f200f220920489ca2b5937696c318360405161171c9190611f63565b60405180910390a3505050565b611743828260405180602001604052806000815250611924565b5050565b611752848484611357565b61175e8484848461197f565b61179d576040517f08c379a000000000000000000000000000000000000000000000000000000000815260040161179490612e07565b60405180910390fd5b50505050565b606060405180602001604052806000815250905090565b606060008203611801576040518060400160405280600181526020017f30000000000000000000000000000000000000000000000000000000000000008152509050611915565b600082905060005b6000821461183357808061181c90612e27565b915050600a8261182c9190612e9e565b9150611809565b60008167ffffffffffffffff81111561184f5761184e611dd4565b5b6040519080825280601f01601f1916602001820160405280156118815781602001600182028036833780820191505090505b5090505b6000851461190e5760018261189a9190612cf5565b9150600a856118a99190612ecf565b60306118b59190612a33565b60f81b8183815181106118cb576118ca612f00565b5b60200101907effffffffffffffffffffffffffffffffffffffffffffffffffffffffffffff1916908160001a905350600a856119079190612e9e565b9450611885565b8093505050505b919050565b505050565b505050565b61192e8383611b06565b61193b600084848461197f565b61197a576040517f08c379a000000000000000000000000000000000000000000000000000000000815260040161197190612e07565b60405180910390fd5b505050565b60006119a08473ffffffffffffffffffffffffffffffffffffffff16611cdf565b15611af9578373ffffffffffffffffffffffffffffffffffffffff1663150b7a026119c96111b8565b8786866040518563ffffffff1660e01b81526004016119eb9493929190612f84565b6020604051808303816000875af1925050508015611a2757506040513d601f19601f82011682018060405250810190611a249190612fe5565b60015b611aa9573d8060008114611a57576040519150601f19603f3d011682016040523d82523d6000602084013e611a5c565b606091505b506000815103611aa1576040517f08c379a0000000000000000000000000000000000000000000000000000000008152600401611a9890612e07565b60405180910390fd5b805181602001fd5b63150b7a0260e01b7bffffffffffffffffffffffffffffffffffffffffffffffffffffffff1916817bffffffffffffffffffffffffffffffffffffffffffffffffffffffff191614915050611afe565b600190505b949350505050565b600073ffffffffffffffffffffffffffffffffffffffff168273ffffffffffffffffffffffffffffffffffffffff1603611b75576040517f08c379a0000000000000000000000000000000000000000000000000000000008152600401611b6c9061305e565b60405180910390fd5b611b7e8161114c565b15611bbe576040517f08c379a0000000000000000000000000000000000000000000000000000000008152600401611bb5906130ca565b60405180910390fd5b611bca6000838361191a565b6001600360008473ffffffffffffffffffffffffffffffffffffffff1673ffffffffffffffffffffffffffffffffffffffff1681526020019081526020016000206000828254611c1a9190612a33565b92505081905550816002600083815260200190815260200160002060006101000a81548173ffffffffffffffffffffffffffffffffffffffff021916908373ffffffffffffffffffffffffffffffffffffffff160217905550808273ffffffffffffffffffffffffffffffffffffffff16600073ffffffffffffffffffffffffffffffffffffffff167fddf252ad1be2c89b69c2b068fc378daa952ba7f163c4a11628f55a4df523b3ef60405160405180910390a4611cdb6000838361191f565b5050565b6000808273ffffffffffffffffffffffffffffffffffffffff163b119050919050565b828054611d0e90612582565b90600052602060002090601f016020900481019282611d305760008555611d77565b82601f10611d4957805160ff1916838001178555611d77565b82800160010185558215611d77579182015b82811115611d76578251825591602001919060010190611d5b565b5b509050611d849190611d88565b5090565b5b80821115611da1576000816000905550600101611d89565b5090565b6000604051905090565b600080fd5b600080fd5b600080fd5b600080fd5b6000601f19601f8301169050919050565b7f4e487b7100000000000000000000000000000000000000000000000000000000600052604160045260246000fd5b611e0c82611dc3565b810181811067ffffffffffffffff82111715611e2b57611e2a611dd4565b5b80604052505050565b6000611e3e611da5565b9050611e4a8282611e03565b919050565b600067ffffffffffffffff821115611e6a57611e69611dd4565b5b611e7382611dc3565b9050602081019050919050565b82818337600083830152505050565b6000611ea2611e9d84611e4f565b611e34565b905082815260208101848484011115611ebe57611ebd611dbe565b5b611ec9848285611e80565b509392505050565b600082601f830112611ee657611ee5611db9565b5b8135611ef6848260208601611e8f565b91505092915050565b600060208284031215611f1557611f14611daf565b5b600082013567ffffffffffffffff811115611f3357611f32611db4565b5b611f3f84828501611ed1565b91505092915050565b60008115159050919050565b611f5d81611f48565b82525050565b6000602082019050611f786000830184611f54565b92915050565b600073ffffffffffffffffffffffffffffffffffffffff82169050919050565b6000611fa982611f7e565b9050919050565b611fb981611f9e565b8114611fc457600080fd5b50565b600081359050611fd681611fb0565b92915050565b600060208284031215611ff257611ff1611daf565b5b600061200084828501611fc7565b91505092915050565b6000819050919050565b61201c81612009565b82525050565b600081519050919050565b600082825260208201905092915050565b60005b8381101561205c578082015181840152602081019050612041565b8381111561206b576000848401525b50505050565b600061207c82612022565b612086818561202d565b935061209681856020860161203e565b61209f81611dc3565b840191505092915050565b60006080820190506120bf6000830187612013565b81810360208301526120d18186612071565b905081810360408301526120e58185612071565b905081810360608301526120f98184612071565b905095945050505050565b60007fffffffff0000000000000000000000000000000000000000000000000000000082169050919050565b61213981612104565b811461214457600080fd5b50565b60008135905061215681612130565b92915050565b60006020828403121561217257612171611daf565b5b600061218084828501612147565b91505092915050565b600060208201905081810360008301526121a38184612071565b905092915050565b6121b481612009565b81146121bf57600080fd5b50565b6000813590506121d1816121ab565b92915050565b6000602082840312156121ed576121ec611daf565b5b60006121fb848285016121c2565b91505092915050565b61220d81611f9e565b82525050565b60006020820190506122286000830184612204565b92915050565b6000806040838503121561224557612244611daf565b5b600061225385828601611fc7565b9250506020612264858286016121c2565b9150509250929050565b60008060006060848603121561228757612286611daf565b5b600061229586828701611fc7565b93505060206122a686828701611fc7565b92505060406122b7868287016121c2565b9150509250925092565b60006020820190506122d66000830184612013565b92915050565b6122e581611f48565b81146122f057600080fd5b50565b600081359050612302816122dc565b92915050565b6000806040838503121561231f5761231e611daf565b5b600061232d85828601611fc7565b925050602061233e858286016122f3565b9150509250929050565b60008060006060848603121561236157612360611daf565b5b600084013567ffffffffffffffff81111561237f5761237e611db4565b5b61238b86828701611ed1565b935050602084013567ffffffffffffffff8111156123ac576123ab611db4565b5b6123b886828701611ed1565b925050604084013567ffffffffffffffff8111156123d9576123d8611db4565b5b6123e586828701611ed1565b9150509250925092565b600067ffffffffffffffff82111561240a57612409611dd4565b5b61241382611dc3565b9050602081019050919050565b600061243361242e846123ef565b611e34565b90508281526020810184848401111561244f5761244e611dbe565b5b61245a848285611e80565b509392505050565b600082601f83011261247757612476611db9565b5b8135612487848260208601612420565b91505092915050565b600080600080608085870312156124aa576124a9611daf565b5b60006124b887828801611fc7565b94505060206124c987828801611fc7565b93505060406124da878288016121c2565b925050606085013567ffffffffffffffff8111156124fb576124fa611db4565b5b61250787828801612462565b91505092959194509250565b6000806040838503121561252a57612529611daf565b5b600061253885828601611fc7565b925050602061254985828601611fc7565b9150509250929050565b7f4e487b7100000000000000000000000000000000000000000000000000000000600052602260045260246000fd5b6000600282049050600182168061259a57607f821691505b6020821081036125ad576125ac612553565b5b50919050565b7f4552433732313a20617070726f76656420717565727920666f72206e6f6e657860008201527f697374656e7420746f6b656e0000000000000000000000000000000000000000602082015250565b600061260f602c8361202d565b915061261a826125b3565b604082019050919050565b6000602082019050818103600083015261263e81612602565b9050919050565b7f4552433732313a20617070726f76616c20746f2063757272656e74206f776e6560008201527f7200000000000000000000000000000000000000000000000000000000000000602082015250565b60006126a160218361202d565b91506126ac82612645565b604082019050919050565b600060208201905081810360008301526126d081612694565b9050919050565b7f4552433732313a20617070726f76652063616c6c6572206973206e6f74206f7760008201527f6e6572206e6f7220617070726f76656420666f7220616c6c0000000000000000602082015250565b600061273360388361202d565b915061273e826126d7565b604082019050919050565b6000602082019050818103600083015261276281612726565b9050919050565b7f4552433732313a207472616e736665722063616c6c6572206973206e6f74206f60008201527f776e6572206e6f7220617070726f766564000000000000000000000000000000602082015250565b60006127c560318361202d565b91506127d082612769565b604082019050919050565b600060208201905081810360008301526127f4816127b8565b9050919050565b7f4552433732313a206f776e657220717565727920666f72206e6f6e657869737460008201527f656e7420746f6b656e0000000000000000000000000000000000000000000000602082015250565b600061285760298361202d565b9150612862826127fb565b604082019050919050565b600060208201905081810360008301526128868161284a565b9050919050565b7f4552433732313a2062616c616e636520717565727920666f7220746865207a6560008201527f726f206164647265737300000000000000000000000000000000000000000000602082015250565b60006128e9602a8361202d565b91506128f48261288d565b604082019050919050565b60006020820190508181036000830152612918816128dc565b9050919050565b600081905092915050565b600061293582612022565b61293f818561291f565b935061294f81856020860161203e565b80840191505092915050565b6000612967828461292a565b915081905092915050565b7f546869732050726f706572747920416c7265616479204578697374732041732060008201527f4e46540000000000000000000000000000000000000000000000000000000000602082015250565b60006129ce60238361202d565b91506129d982612972565b604082019050919050565b600060208201905081810360008301526129fd816129c1565b9050919050565b7f4e487b7100000000000000000000000000000000000000000000000000000000600052601160045260246000fd5b6000612a3e82612009565b9150612a4983612009565b9250827fffffffffffffffffffffffffffffffffffffffffffffffffffffffffffffffff03821115612a7e57612a7d612a04565b5b828201905092915050565b7f4552433732314d657461646174613a2055524920717565727920666f72206e6f60008201527f6e6578697374656e7420746f6b656e0000000000000000000000000000000000602082015250565b6000612ae5602f8361202d565b9150612af082612a89565b604082019050919050565b60006020820190508181036000830152612b1481612ad8565b9050919050565b6000612b27828561292a565b9150612b33828461292a565b91508190509392505050565b7f4552433732313a206f70657261746f7220717565727920666f72206e6f6e657860008201527f697374656e7420746f6b656e0000000000000000000000000000000000000000602082015250565b6000612b9b602c8361202d565b9150612ba682612b3f565b604082019050919050565b60006020820190508181036000830152612bca81612b8e565b9050919050565b7f4552433732313a207472616e736665722066726f6d20696e636f72726563742060008201527f6f776e6572000000000000000000000000000000000000000000000000000000602082015250565b6000612c2d60258361202d565b9150612c3882612bd1565b604082019050919050565b60006020820190508181036000830152612c5c81612c20565b9050919050565b7f4552433732313a207472616e7366657220746f20746865207a65726f2061646460008201527f7265737300000000000000000000000000000000000000000000000000000000602082015250565b6000612cbf60248361202d565b9150612cca82612c63565b604082019050919050565b60006020820190508181036000830152612cee81612cb2565b9050919050565b6000612d0082612009565b9150612d0b83612009565b925082821015612d1e57612d1d612a04565b5b828203905092915050565b7f4552433732313a20617070726f766520746f2063616c6c657200000000000000600082015250565b6000612d5f60198361202d565b9150612d6a82612d29565b602082019050919050565b60006020820190508181036000830152612d8e81612d52565b9050919050565b7f4552433732313a207472616e7366657220746f206e6f6e20455243373231526560008201527f63656976657220696d706c656d656e7465720000000000000000000000000000602082015250565b6000612df160328361202d565b9150612dfc82612d95565b604082019050919050565b60006020820190508181036000830152612e2081612de4565b9050919050565b6000612e3282612009565b91507fffffffffffffffffffffffffffffffffffffffffffffffffffffffffffffffff8203612e6457612e63612a04565b5b600182019050919050565b7f4e487b7100000000000000000000000000000000000000000000000000000000600052601260045260246000fd5b6000612ea982612009565b9150612eb483612009565b925082612ec457612ec3612e6f565b5b828204905092915050565b6000612eda82612009565b9150612ee583612009565b925082612ef557612ef4612e6f565b5b828206905092915050565b7f4e487b7100000000000000000000000000000000000000000000000000000000600052603260045260246000fd5b600081519050919050565b600082825260208201905092915050565b6000612f5682612f2f565b612f608185612f3a565b9350612f7081856020860161203e565b612f7981611dc3565b840191505092915050565b6000608082019050612f996000830187612204565b612fa66020830186612204565b612fb36040830185612013565b8181036060830152612fc58184612f4b565b905095945050505050565b600081519050612fdf81612130565b92915050565b600060208284031215612ffb57612ffa611daf565b5b600061300984828501612fd0565b91505092915050565b7f4552433732313a206d696e7420746f20746865207a65726f2061646472657373600082015250565b600061304860208361202d565b915061305382613012565b602082019050919050565b600060208201905081810360008301526130778161303b565b9050919050565b7f4552433732313a20746f6b656e20616c7265616479206d696e74656400000000600082015250565b60006130b4601c8361202d565b91506130bf8261307e565b602082019050919050565b600060208201905081810360008301526130e3816130a7565b905091905056fea2646970667358221220d34a8e6a6568b8dff7b1e1a765a24be88a405ce5739d4ee2b81fa04508d588f664736f6c634300080e0033",
  "immutableReferences": {},
  "source": "pragma solidity >=0.8.0;\r\n\r\nimport \"@openzeppelin/contracts/token/ERC721/ERC721.sol\";\r\n\r\n\r\ncontract nftCreator is ERC721 {\r\n\r\n    constructor() ERC721(\"KribX\", \"KRX\") {}\r\n\r\n\r\n    \r\n    uint tokenId =0;\r\n\r\n    \r\n\r\n    \r\n    struct token{\r\n\r\n        \r\n        uint _tokenId;\r\n        string _tokenName;\r\n        string _streetAddress;\r\n        string _registrationLink;\r\n        \r\n    }\r\n\r\n    mapping(address=>token) public kribxProperties;\r\n\r\n    mapping(uint => token) public allTokens;\r\n\r\n    mapping (string=>bool) public existingStreetAddress;\r\n\r\n    function createRealEstateNFT(string memory streetAddress, string memory registrationLink, string memory tokenName) public{\r\n\r\n        require(existingStreetAddress[streetAddress]==false, \"This Property Already Exists As NFT\");\r\n\r\n        tokenId+=1;\r\n\r\n        _safeMint(msg.sender, tokenId);\r\n\r\n        kribxProperties[msg.sender]= token(tokenId, tokenName, streetAddress, registrationLink);\r\n        allTokens[tokenId]= token(tokenId, tokenName, streetAddress, registrationLink);\r\n        existingStreetAddress[streetAddress]= true;\r\n    }\r\n\r\n\r\n}",
  "sourcePath": "C:\\Users\\jayfo\\Desktop\\Web3\\nft_example\\contracts\\NFTCreator.sol",
  "compiler": {
    "name": "solc",
    "version": "0.8.14+commit.80d49f37.Emscripten.clang"
  },
  "schemaVersion": "3.4.4",
  "updatedAt": "2022-06-04T20:44:22.950Z",
  "networkType": "ethereum",
  "devdoc": {
    "kind": "dev",
    "methods": {
      "approve(address,uint256)": {
        "details": "See {IERC721-approve}."
      },
      "balanceOf(address)": {
        "details": "See {IERC721-balanceOf}."
      },
      "getApproved(uint256)": {
        "details": "See {IERC721-getApproved}."
      },
      "isApprovedForAll(address,address)": {
        "details": "See {IERC721-isApprovedForAll}."
      },
      "name()": {
        "details": "See {IERC721Metadata-name}."
      },
      "ownerOf(uint256)": {
        "details": "See {IERC721-ownerOf}."
      },
      "safeTransferFrom(address,address,uint256)": {
        "details": "See {IERC721-safeTransferFrom}."
      },
      "safeTransferFrom(address,address,uint256,bytes)": {
        "details": "See {IERC721-safeTransferFrom}."
      },
      "setApprovalForAll(address,bool)": {
        "details": "See {IERC721-setApprovalForAll}."
      },
      "supportsInterface(bytes4)": {
        "details": "See {IERC165-supportsInterface}."
      },
      "symbol()": {
        "details": "See {IERC721Metadata-symbol}."
      },
      "tokenURI(uint256)": {
        "details": "See {IERC721Metadata-tokenURI}."
      },
      "transferFrom(address,address,uint256)": {
        "details": "See {IERC721-transferFrom}."
      }
    },
    "version": 1
  },
  "userdoc": {
    "kind": "user",
    "methods": {},
    "version": 1
  }
}