{
  "contractName": "Pupper",
  "abi": [
    {
      "inputs": [],
      "stateMutability": "nonpayable",
      "type": "constructor"
    },
    {
      "anonymous": false,
      "inputs": [
        {
          "indexed": true,
          "internalType": "address",
          "name": "owner",
          "type": "address"
        },
        {
          "indexed": true,
          "internalType": "address",
          "name": "approved",
          "type": "address"
        },
        {
          "indexed": true,
          "internalType": "uint256",
          "name": "tokenId",
          "type": "uint256"
        }
      ],
      "name": "Approval",
      "type": "event"
    },
    {
      "anonymous": false,
      "inputs": [
        {
          "indexed": true,
          "internalType": "address",
          "name": "owner",
          "type": "address"
        },
        {
          "indexed": true,
          "internalType": "address",
          "name": "operator",
          "type": "address"
        },
        {
          "indexed": false,
          "internalType": "bool",
          "name": "approved",
          "type": "bool"
        }
      ],
      "name": "ApprovalForAll",
      "type": "event"
    },
    {
      "anonymous": false,
      "inputs": [
        {
          "indexed": true,
          "internalType": "address",
          "name": "previousOwner",
          "type": "address"
        },
        {
          "indexed": true,
          "internalType": "address",
          "name": "newOwner",
          "type": "address"
        }
      ],
      "name": "OwnershipTransferred",
      "type": "event"
    },
    {
      "anonymous": false,
      "inputs": [
        {
          "indexed": true,
          "internalType": "address",
          "name": "from",
          "type": "address"
        },
        {
          "indexed": true,
          "internalType": "address",
          "name": "to",
          "type": "address"
        },
        {
          "indexed": true,
          "internalType": "uint256",
          "name": "tokenId",
          "type": "uint256"
        }
      ],
      "name": "Transfer",
      "type": "event"
    },
    {
      "inputs": [
        {
          "internalType": "uint256",
          "name": "",
          "type": "uint256"
        }
      ],
      "name": "allpuppers",
      "outputs": [
        {
          "internalType": "uint256",
          "name": "_pupperId",
          "type": "uint256"
        },
        {
          "internalType": "string",
          "name": "_pupperName",
          "type": "string"
        },
        {
          "internalType": "string",
          "name": "_breed",
          "type": "string"
        },
        {
          "internalType": "string",
          "name": "_sex",
          "type": "string"
        },
        {
          "internalType": "string",
          "name": "_genome",
          "type": "string"
        },
        {
          "internalType": "string",
          "name": "_genomeTestResultLink",
          "type": "string"
        },
        {
          "internalType": "string",
          "name": "_imageBase64",
          "type": "string"
        },
        {
          "internalType": "uint256",
          "name": "_salePrice",
          "type": "uint256"
        },
        {
          "internalType": "uint256",
          "name": "_breedingPrice",
          "type": "uint256"
        },
        {
          "internalType": "bool",
          "name": "_enableBreeding",
          "type": "bool"
        },
        {
          "internalType": "bool",
          "name": "_enableSale",
          "type": "bool"
        }
      ],
      "stateMutability": "view",
      "type": "function"
    },
    {
      "inputs": [
        {
          "internalType": "address",
          "name": "to",
          "type": "address"
        },
        {
          "internalType": "uint256",
          "name": "tokenId",
          "type": "uint256"
        }
      ],
      "name": "approve",
      "outputs": [],
      "stateMutability": "nonpayable",
      "type": "function"
    },
    {
      "inputs": [
        {
          "internalType": "address",
          "name": "owner",
          "type": "address"
        }
      ],
      "name": "balanceOf",
      "outputs": [
        {
          "internalType": "uint256",
          "name": "",
          "type": "uint256"
        }
      ],
      "stateMutability": "view",
      "type": "function"
    },
    {
      "inputs": [],
      "name": "commission",
      "outputs": [
        {
          "internalType": "uint256",
          "name": "",
          "type": "uint256"
        }
      ],
      "stateMutability": "view",
      "type": "function"
    },
    {
      "inputs": [
        {
          "internalType": "uint256",
          "name": "",
          "type": "uint256"
        }
      ],
      "name": "escrows",
      "outputs": [
        {
          "internalType": "uint256",
          "name": "_amount",
          "type": "uint256"
        },
        {
          "internalType": "address",
          "name": "_sender",
          "type": "address"
        },
        {
          "internalType": "address",
          "name": "_receiver",
          "type": "address"
        },
        {
          "internalType": "string",
          "name": "_type",
          "type": "string"
        },
        {
          "internalType": "bool",
          "name": "_senderApproval",
          "type": "bool"
        },
        {
          "internalType": "bool",
          "name": "_receiverApproval",
          "type": "bool"
        },
        {
          "internalType": "bool",
          "name": "_processed",
          "type": "bool"
        }
      ],
      "stateMutability": "view",
      "type": "function"
    },
    {
      "inputs": [
        {
          "internalType": "string",
          "name": "",
          "type": "string"
        }
      ],
      "name": "genomes",
      "outputs": [
        {
          "internalType": "bool",
          "name": "",
          "type": "bool"
        }
      ],
      "stateMutability": "view",
      "type": "function"
    },
    {
      "inputs": [
        {
          "internalType": "uint256",
          "name": "tokenId",
          "type": "uint256"
        }
      ],
      "name": "getApproved",
      "outputs": [
        {
          "internalType": "address",
          "name": "",
          "type": "address"
        }
      ],
      "stateMutability": "view",
      "type": "function"
    },
    {
      "inputs": [
        {
          "internalType": "address",
          "name": "owner",
          "type": "address"
        },
        {
          "internalType": "address",
          "name": "operator",
          "type": "address"
        }
      ],
      "name": "isApprovedForAll",
      "outputs": [
        {
          "internalType": "bool",
          "name": "",
          "type": "bool"
        }
      ],
      "stateMutability": "view",
      "type": "function"
    },
    {
      "inputs": [],
      "name": "name",
      "outputs": [
        {
          "internalType": "string",
          "name": "",
          "type": "string"
        }
      ],
      "stateMutability": "view",
      "type": "function"
    },
    {
      "inputs": [],
      "name": "owner",
      "outputs": [
        {
          "internalType": "address",
          "name": "",
          "type": "address"
        }
      ],
      "stateMutability": "view",
      "type": "function"
    },
    {
      "inputs": [
        {
          "internalType": "uint256",
          "name": "tokenId",
          "type": "uint256"
        }
      ],
      "name": "ownerOf",
      "outputs": [
        {
          "internalType": "address",
          "name": "",
          "type": "address"
        }
      ],
      "stateMutability": "view",
      "type": "function"
    },
    {
      "inputs": [
        {
          "internalType": "address",
          "name": "",
          "type": "address"
        },
        {
          "internalType": "uint256",
          "name": "",
          "type": "uint256"
        }
      ],
      "name": "puppers",
      "outputs": [
        {
          "internalType": "uint256",
          "name": "_pupperId",
          "type": "uint256"
        },
        {
          "internalType": "string",
          "name": "_pupperName",
          "type": "string"
        },
        {
          "internalType": "string",
          "name": "_breed",
          "type": "string"
        },
        {
          "internalType": "string",
          "name": "_sex",
          "type": "string"
        },
        {
          "internalType": "string",
          "name": "_genome",
          "type": "string"
        },
        {
          "internalType": "string",
          "name": "_genomeTestResultLink",
          "type": "string"
        },
        {
          "internalType": "string",
          "name": "_imageBase64",
          "type": "string"
        },
        {
          "internalType": "uint256",
          "name": "_salePrice",
          "type": "uint256"
        },
        {
          "internalType": "uint256",
          "name": "_breedingPrice",
          "type": "uint256"
        },
        {
          "internalType": "bool",
          "name": "_enableBreeding",
          "type": "bool"
        },
        {
          "internalType": "bool",
          "name": "_enableSale",
          "type": "bool"
        }
      ],
      "stateMutability": "view",
      "type": "function"
    },
    {
      "inputs": [],
      "name": "renounceOwnership",
      "outputs": [],
      "stateMutability": "nonpayable",
      "type": "function"
    },
    {
      "inputs": [
        {
          "internalType": "address",
          "name": "from",
          "type": "address"
        },
        {
          "internalType": "address",
          "name": "to",
          "type": "address"
        },
        {
          "internalType": "uint256",
          "name": "tokenId",
          "type": "uint256"
        }
      ],
      "name": "safeTransferFrom",
      "outputs": [],
      "stateMutability": "nonpayable",
      "type": "function"
    },
    {
      "inputs": [
        {
          "internalType": "address",
          "name": "from",
          "type": "address"
        },
        {
          "internalType": "address",
          "name": "to",
          "type": "address"
        },
        {
          "internalType": "uint256",
          "name": "tokenId",
          "type": "uint256"
        },
        {
          "internalType": "bytes",
          "name": "_data",
          "type": "bytes"
        }
      ],
      "name": "safeTransferFrom",
      "outputs": [],
      "stateMutability": "nonpayable",
      "type": "function"
    },
    {
      "inputs": [
        {
          "internalType": "address",
          "name": "operator",
          "type": "address"
        },
        {
          "internalType": "bool",
          "name": "approved",
          "type": "bool"
        }
      ],
      "name": "setApprovalForAll",
      "outputs": [],
      "stateMutability": "nonpayable",
      "type": "function"
    },
    {
      "inputs": [
        {
          "internalType": "bytes4",
          "name": "interfaceId",
          "type": "bytes4"
        }
      ],
      "name": "supportsInterface",
      "outputs": [
        {
          "internalType": "bool",
          "name": "",
          "type": "bool"
        }
      ],
      "stateMutability": "view",
      "type": "function"
    },
    {
      "inputs": [],
      "name": "symbol",
      "outputs": [
        {
          "internalType": "string",
          "name": "",
          "type": "string"
        }
      ],
      "stateMutability": "view",
      "type": "function"
    },
    {
      "inputs": [
        {
          "internalType": "uint256",
          "name": "tokenId",
          "type": "uint256"
        }
      ],
      "name": "tokenURI",
      "outputs": [
        {
          "internalType": "string",
          "name": "",
          "type": "string"
        }
      ],
      "stateMutability": "view",
      "type": "function"
    },
    {
      "inputs": [],
      "name": "transactionFee",
      "outputs": [
        {
          "internalType": "uint256",
          "name": "",
          "type": "uint256"
        }
      ],
      "stateMutability": "view",
      "type": "function"
    },
    {
      "inputs": [
        {
          "internalType": "address",
          "name": "from",
          "type": "address"
        },
        {
          "internalType": "address",
          "name": "to",
          "type": "address"
        },
        {
          "internalType": "uint256",
          "name": "tokenId",
          "type": "uint256"
        }
      ],
      "name": "transferFrom",
      "outputs": [],
      "stateMutability": "nonpayable",
      "type": "function"
    },
    {
      "inputs": [
        {
          "internalType": "address",
          "name": "newOwner",
          "type": "address"
        }
      ],
      "name": "transferOwnership",
      "outputs": [],
      "stateMutability": "nonpayable",
      "type": "function"
    },
    {
      "inputs": [
        {
          "internalType": "string",
          "name": "pupperName",
          "type": "string"
        },
        {
          "internalType": "string",
          "name": "_breed",
          "type": "string"
        },
        {
          "internalType": "string",
          "name": "sex",
          "type": "string"
        },
        {
          "internalType": "string",
          "name": "genome",
          "type": "string"
        },
        {
          "internalType": "string",
          "name": "genomeLink",
          "type": "string"
        },
        {
          "internalType": "string",
          "name": "base64",
          "type": "string"
        }
      ],
      "name": "createPupper",
      "outputs": [],
      "stateMutability": "nonpayable",
      "type": "function"
    },
    {
      "inputs": [
        {
          "internalType": "uint256",
          "name": "_tokenId",
          "type": "uint256"
        },
        {
          "internalType": "uint256",
          "name": "_salePrice",
          "type": "uint256"
        }
      ],
      "name": "enableSale",
      "outputs": [],
      "stateMutability": "nonpayable",
      "type": "function"
    },
    {
      "inputs": [
        {
          "internalType": "uint256",
          "name": "_tokenId",
          "type": "uint256"
        }
      ],
      "name": "disableSale",
      "outputs": [],
      "stateMutability": "nonpayable",
      "type": "function"
    },
    {
      "inputs": [
        {
          "internalType": "uint256",
          "name": "_tokenId",
          "type": "uint256"
        },
        {
          "internalType": "uint256",
          "name": "_breedingPrice",
          "type": "uint256"
        }
      ],
      "name": "enableBreeding",
      "outputs": [],
      "stateMutability": "nonpayable",
      "type": "function"
    },
    {
      "inputs": [
        {
          "internalType": "uint256",
          "name": "_tokenId",
          "type": "uint256"
        }
      ],
      "name": "disableBreeding",
      "outputs": [],
      "stateMutability": "nonpayable",
      "type": "function"
    },
    {
      "inputs": [
        {
          "internalType": "uint256",
          "name": "_tokenId",
          "type": "uint256"
        }
      ],
      "name": "buy",
      "outputs": [],
      "stateMutability": "payable",
      "type": "function"
    },
    {
      "inputs": [
        {
          "internalType": "uint256",
          "name": "_tokenId",
          "type": "uint256"
        }
      ],
      "name": "breed",
      "outputs": [],
      "stateMutability": "payable",
      "type": "function"
    },
    {
      "inputs": [
        {
          "internalType": "uint256",
          "name": "_tokenId",
          "type": "uint256"
        }
      ],
      "name": "approveTransaction",
      "outputs": [],
      "stateMutability": "nonpayable",
      "type": "function"
    },
    {
      "inputs": [
        {
          "internalType": "uint256",
          "name": "_tokenId",
          "type": "uint256"
        }
      ],
      "name": "processEscrow",
      "outputs": [],
      "stateMutability": "nonpayable",
      "type": "function"
    },
    {
      "inputs": [
        {
          "internalType": "uint256",
          "name": "_tokenId",
          "type": "uint256"
        }
      ],
      "name": "refundEscrow",
      "outputs": [],
      "stateMutability": "nonpayable",
      "type": "function"
    },
    {
      "inputs": [],
      "name": "withdrawDevCommission",
      "outputs": [],
      "stateMutability": "nonpayable",
      "type": "function"
    }
  ],
  "bytecode": "0x608060405260006007553480156200001657600080fd5b506040518060400160405280600681526020017f50757070657200000000000000000000000000000000000000000000000000008152506040518060400160405280600381526020017f505550000000000000000000000000000000000000000000000000000000000081525081600090805190602001906200009b929190620001ab565b508060019080519060200190620000b4929190620001ab565b505050620000d7620000cb620000dd60201b60201c565b620000e560201b60201c565b620002bf565b600033905090565b6000600660009054906101000a900473ffffffffffffffffffffffffffffffffffffffff16905081600660006101000a81548173ffffffffffffffffffffffffffffffffffffffff021916908373ffffffffffffffffffffffffffffffffffffffff1602179055508173ffffffffffffffffffffffffffffffffffffffff168173ffffffffffffffffffffffffffffffffffffffff167f8be0079c531659141344cd1fd0a4f28419497f9722a3daafe3b4186f6b6457e060405160405180910390a35050565b828054620001b9906200028a565b90600052602060002090601f016020900481019282620001dd576000855562000229565b82601f10620001f857805160ff191683800117855562000229565b8280016001018555821562000229579182015b82811115620002285782518255916020019190600101906200020b565b5b5090506200023891906200023c565b5090565b5b80821115620002575760008160009055506001016200023d565b5090565b7f4e487b7100000000000000000000000000000000000000000000000000000000600052602260045260246000fd5b60006002820490506001821680620002a357607f821691505b602082108103620002b957620002b86200025b565b5b50919050565b6160a480620002cf6000396000f3fe6080604052600436106101ee5760003560e01c80638da5cb5b1161010d578063b88d4fde116100a0578063d96a094a1161006f578063d96a094a14610714578063e148919114610730578063e985e9c51461075b578063eba5051a14610798578063f2fde38b146107c1576101ee565b8063b88d4fde1461062a578063c2b8981b14610653578063c87b56dd1461069a578063cdd0a6f0146106d7576101ee565b80639ed3edf0116100dc5780639ed3edf014610573578063a22cb4651461059e578063af9a1cd2146105c7578063b36196e4146105e3576101ee565b80638da5cb5b146104cb57806390b77030146104f657806395d89b411461051f5780639a1d3e421461054a576101ee565b8063356f9dfd116101855780636940e338116101545780636940e33814610437578063699333aa1461046057806370a0823114610477578063715018a6146104b4576101ee565b8063356f9dfd1461037f57806342842e0e146103a85780635da4879b146103d15780636352211e146103fa576101ee565b8063095ea7b3116101c1578063095ea7b3146102db57806312fed7e11461030457806323b872dd1461032d578063242232d114610356576101ee565b8063012f52ee146101f357806301ffc9a71461023657806306fdde0314610273578063081812fc1461029e575b600080fd5b3480156101ff57600080fd5b5061021a60048036038101906102159190614631565b6107ea565b60405161022d9796959493929190614762565b60405180910390f35b34801561024257600080fd5b5061025d60048036038101906102589190614830565b61091b565b60405161026a919061485d565b60405180910390f35b34801561027f57600080fd5b506102886109fd565b6040516102959190614878565b60405180910390f35b3480156102aa57600080fd5b506102c560048036038101906102c09190614631565b610a8f565b6040516102d2919061489a565b60405180910390f35b3480156102e757600080fd5b5061030260048036038101906102fd91906148e1565b610b14565b005b34801561031057600080fd5b5061032b60048036038101906103269190614631565b610c2b565b005b34801561033957600080fd5b50610354600480360381019061034f9190614921565b610e3a565b005b34801561036257600080fd5b5061037d60048036038101906103789190614631565b610e9a565b005b34801561038b57600080fd5b506103a660048036038101906103a19190614631565b611078565b005b3480156103b457600080fd5b506103cf60048036038101906103ca9190614921565b6111ed565b005b3480156103dd57600080fd5b506103f860048036038101906103f39190614974565b61120d565b005b34801561040657600080fd5b50610421600480360381019061041c9190614631565b61144c565b60405161042e919061489a565b60405180910390f35b34801561044357600080fd5b5061045e60048036038101906104599190614631565b6114fd565b005b34801561046c57600080fd5b50610475611829565b005b34801561048357600080fd5b5061049e600480360381019061049991906149b4565b611908565b6040516104ab91906149e1565b60405180910390f35b3480156104c057600080fd5b506104c96119bf565b005b3480156104d757600080fd5b506104e0611a47565b6040516104ed919061489a565b60405180910390f35b34801561050257600080fd5b5061051d60048036038101906105189190614974565b611a71565b005b34801561052b57600080fd5b50610534611cb0565b6040516105419190614878565b60405180910390f35b34801561055657600080fd5b50610571600480360381019061056c9190614631565b611d42565b005b34801561057f57600080fd5b50610588611f51565b60405161059591906149e1565b60405180910390f35b3480156105aa57600080fd5b506105c560048036038101906105c09190614a28565b611f57565b005b6105e160048036038101906105dc9190614631565b611f6d565b005b3480156105ef57600080fd5b5061060a600480360381019061060591906148e1565b6121de565b6040516106219b9a99989796959493929190614a68565b60405180910390f35b34801561063657600080fd5b50610651600480360381019061064c9190614c72565b61259f565b005b34801561065f57600080fd5b5061067a60048036038101906106759190614631565b612601565b6040516106919b9a99989796959493929190614a68565b60405180910390f35b3480156106a657600080fd5b506106c160048036038101906106bc9190614631565b6129a5565b6040516106ce9190614878565b60405180910390f35b3480156106e357600080fd5b506106fe60048036038101906106f99190614d96565b612a4c565b60405161070b919061485d565b60405180910390f35b61072e60048036038101906107299190614631565b612a82565b005b34801561073c57600080fd5b50610745612cf3565b60405161075291906149e1565b60405180910390f35b34801561076757600080fd5b50610782600480360381019061077d9190614ddf565b612cf9565b60405161078f919061485d565b60405180910390f35b3480156107a457600080fd5b506107bf60048036038101906107ba9190614e1f565b612d8d565b005b3480156107cd57600080fd5b506107e860048036038101906107e391906149b4565b6131d0565b005b600b6020528060005260406000206000915090508060000154908060010160009054906101000a900473ffffffffffffffffffffffffffffffffffffffff16908060020160009054906101000a900473ffffffffffffffffffffffffffffffffffffffff169080600301805461085f90614f83565b80601f016020809104026020016040519081016040528092919081815260200182805461088b90614f83565b80156108d85780601f106108ad576101008083540402835291602001916108d8565b820191906000526020600020905b8154815290600101906020018083116108bb57829003601f168201915b5050505050908060040160009054906101000a900460ff16908060040160019054906101000a900460ff16908060040160029054906101000a900460ff16905087565b60007f80ac58cd000000000000000000000000000000000000000000000000000000007bffffffffffffffffffffffffffffffffffffffffffffffffffffffff1916827bffffffffffffffffffffffffffffffffffffffffffffffffffffffff191614806109e657507f5b5e139f000000000000000000000000000000000000000000000000000000007bffffffffffffffffffffffffffffffffffffffffffffffffffffffff1916827bffffffffffffffffffffffffffffffffffffffffffffffffffffffff1916145b806109f657506109f5826132c7565b5b9050919050565b606060008054610a0c90614f83565b80601f0160208091040260200160405190810160405280929190818152602001828054610a3890614f83565b8015610a855780601f10610a5a57610100808354040283529160200191610a85565b820191906000526020600020905b815481529060010190602001808311610a6857829003601f168201915b5050505050905090565b6000610a9a82613331565b610ad9576040517f08c379a0000000000000000000000000000000000000000000000000000000008152600401610ad090615026565b60405180910390fd5b6004600083815260200190815260200160002060009054906101000a900473ffffffffffffffffffffffffffffffffffffffff169050919050565b6000610b1f8261144c565b90508073ffffffffffffffffffffffffffffffffffffffff168373ffffffffffffffffffffffffffffffffffffffff1603610b8f576040517f08c379a0000000000000000000000000000000000000000000000000000000008152600401610b86906150b8565b60405180910390fd5b8073ffffffffffffffffffffffffffffffffffffffff16610bae61339d565b73ffffffffffffffffffffffffffffffffffffffff161480610bdd5750610bdc81610bd761339d565b612cf9565b5b610c1c576040517f08c379a0000000000000000000000000000000000000000000000000000000008152600401610c139061514a565b60405180910390fd5b610c2683836133a5565b505050565b3373ffffffffffffffffffffffffffffffffffffffff16610c4b8261144c565b73ffffffffffffffffffffffffffffffffffffffff1614610ca1576040517f08c379a0000000000000000000000000000000000000000000000000000000008152600401610c98906151dc565b60405180910390fd5b6000600b60008381526020019081526020016000206000015414610cfa576040517f08c379a0000000000000000000000000000000000000000000000000000000008152600401610cf190615248565b60405180910390fd5b6000610d06823361345e565b90506000600c60003373ffffffffffffffffffffffffffffffffffffffff1673ffffffffffffffffffffffffffffffffffffffff1681526020019081526020016000208281548110610d5b57610d5a615268565b5b90600052602060002090600a020160090160006101000a81548160ff0219169083151502179055506000600c60003373ffffffffffffffffffffffffffffffffffffffff1673ffffffffffffffffffffffffffffffffffffffff1681526020019081526020016000208281548110610dd657610dd5615268565b5b90600052602060002090600a0201600801819055506000600d600084815260200190815260200160002060090160006101000a81548160ff0219169083151502179055506000600d6000848152602001908152602001600020600801819055505050565b610e4b610e4561339d565b82613545565b610e8a576040517f08c379a0000000000000000000000000000000000000000000000000000000008152600401610e8190615309565b60405180910390fd5b610e95838383613623565b505050565b600b600082815260200190815260200160002060010160009054906101000a900473ffffffffffffffffffffffffffffffffffffffff1673ffffffffffffffffffffffffffffffffffffffff163373ffffffffffffffffffffffffffffffffffffffff161480610f6b5750600b600082815260200190815260200160002060020160009054906101000a900473ffffffffffffffffffffffffffffffffffffffff1673ffffffffffffffffffffffffffffffffffffffff163373ffffffffffffffffffffffffffffffffffffffff16145b610f7457600080fd5b60001515600b600083815260200190815260200160002060040160029054906101000a900460ff16151514610fa857600080fd5b600b600082815260200190815260200160002060010160009054906101000a900473ffffffffffffffffffffffffffffffffffffffff1673ffffffffffffffffffffffffffffffffffffffff163373ffffffffffffffffffffffffffffffffffffffff1603611045576001600b600083815260200190815260200160002060040160006101000a81548160ff021916908315150217905550611075565b6001600b600083815260200190815260200160002060040160016101000a81548160ff0219169083151502179055505b50565b60001515600b600083815260200190815260200160002060040160009054906101000a900460ff1615151480156110d6575060001515600b600083815260200190815260200160002060040160019054906101000a900460ff161515145b8015611109575060001515600b600083815260200190815260200160002060040160029054906101000a900460ff161515145b61111257600080fd5b6000600b600083815260200190815260200160002060010160009054906101000a900473ffffffffffffffffffffffffffffffffffffffff1690508073ffffffffffffffffffffffffffffffffffffffff166108fc600b6000858152602001908152602001600020600001549081150290604051600060405180830381858888f19350505050156111e9576000600b6000848152602001908152602001600020600001819055506001600b600084815260200190815260200160002060040160026101000a81548160ff0219169083151502179055505b5050565b6112088383836040518060200160405280600081525061259f565b505050565b60001515600860009054906101000a900460ff1615151461122d57600080fd5b3373ffffffffffffffffffffffffffffffffffffffff1661124d8361144c565b73ffffffffffffffffffffffffffffffffffffffff16146112a3576040517f08c379a000000000000000000000000000000000000000000000000000000000815260040161129a9061539b565b60405180910390fd5b60001515600d600084815260200190815260200160002060090160009054906101000a900460ff1615151461130d576040517f08c379a00000000000000000000000000000000000000000000000000000000081526004016113049061542d565b60405180910390fd5b6000611319833361345e565b90506001600c60003373ffffffffffffffffffffffffffffffffffffffff1673ffffffffffffffffffffffffffffffffffffffff168152602001908152602001600020828154811061136e5761136d615268565b5b90600052602060002090600a020160090160016101000a81548160ff02191690831515021790555081600c60003373ffffffffffffffffffffffffffffffffffffffff1673ffffffffffffffffffffffffffffffffffffffff16815260200190815260200160002082815481106113e8576113e7615268565b5b90600052602060002090600a0201600701819055506001600d600085815260200190815260200160002060090160016101000a81548160ff02191690831515021790555081600d600085815260200190815260200160002060070181905550505050565b6000806002600084815260200190815260200160002060009054906101000a900473ffffffffffffffffffffffffffffffffffffffff169050600073ffffffffffffffffffffffffffffffffffffffff168173ffffffffffffffffffffffffffffffffffffffff16036114f4576040517f08c379a00000000000000000000000000000000000000000000000000000000081526004016114eb906154bf565b60405180910390fd5b80915050919050565b6115068161144c565b73ffffffffffffffffffffffffffffffffffffffff163373ffffffffffffffffffffffffffffffffffffffff161461153d57600080fd5b60011515600b600083815260200190815260200160002060040160009054906101000a900460ff16151514801561159b575060011515600b600083815260200190815260200160002060040160019054906101000a900460ff161515145b80156115ce575060001515600b600083815260200190815260200160002060040160029054906101000a900460ff161515145b6115d757600080fd5b6000600b600083815260200190815260200160002060020160009054906101000a900473ffffffffffffffffffffffffffffffffffffffff16905060006103e8600954611624919061553d565b600b600085815260200190815260200160002060000154611645919061556e565b9050600081600b60008681526020019081526020016000206000015461166b91906155c8565b90508273ffffffffffffffffffffffffffffffffffffffff166108fc829081150290604051600060405180830381858888f1935050505015611823576040518060400160405280600481526020017f53414c450000000000000000000000000000000000000000000000000000000081525080519060200120600b6000868152602001908152602001600020600301604051611707919061569b565b6040518091039020036117bd5761175484600b600087815260200190815260200160002060010160009054906101000a900473ffffffffffffffffffffffffffffffffffffffff16613889565b6000600b6000868152602001908152602001600020600001819055506001600b600086815260200190815260200160002060040160026101000a81548160ff02191690831515021790555081600a60008282546117b191906156b2565b92505081905550611822565b6000600b6000868152602001908152602001600020600001819055506001600b600086815260200190815260200160002060040160026101000a81548160ff02191690831515021790555081600a600082825461181a91906156b2565b925050819055505b5b50505050565b61183161339d565b73ffffffffffffffffffffffffffffffffffffffff1661184f611a47565b73ffffffffffffffffffffffffffffffffffffffff16146118a5576040517f08c379a000000000000000000000000000000000000000000000000000000000815260040161189c90615754565b60405180910390fd5b60006118af611a47565b90506000600a54116118c057600080fd5b8073ffffffffffffffffffffffffffffffffffffffff166108fc600a549081150290604051600060405180830381858888f1935050505015611905576000600a819055505b50565b60008073ffffffffffffffffffffffffffffffffffffffff168273ffffffffffffffffffffffffffffffffffffffff1603611978576040517f08c379a000000000000000000000000000000000000000000000000000000000815260040161196f906157e6565b60405180910390fd5b600360008373ffffffffffffffffffffffffffffffffffffffff1673ffffffffffffffffffffffffffffffffffffffff168152602001908152602001600020549050919050565b6119c761339d565b73ffffffffffffffffffffffffffffffffffffffff166119e5611a47565b73ffffffffffffffffffffffffffffffffffffffff1614611a3b576040517f08c379a0000000000000000000000000000000000000000000000000000000008152600401611a3290615754565b60405180910390fd5b611a456000613c6c565b565b6000600660009054906101000a900473ffffffffffffffffffffffffffffffffffffffff16905090565b60001515600860009054906101000a900460ff16151514611a9157600080fd5b3373ffffffffffffffffffffffffffffffffffffffff16611ab18361144c565b73ffffffffffffffffffffffffffffffffffffffff1614611b07576040517f08c379a0000000000000000000000000000000000000000000000000000000008152600401611afe9061539b565b60405180910390fd5b60001515600d600084815260200190815260200160002060090160019054906101000a900460ff16151514611b71576040517f08c379a0000000000000000000000000000000000000000000000000000000008152600401611b6890615878565b60405180910390fd5b6000611b7d833361345e565b90506001600c60003373ffffffffffffffffffffffffffffffffffffffff1673ffffffffffffffffffffffffffffffffffffffff1681526020019081526020016000208281548110611bd257611bd1615268565b5b90600052602060002090600a020160090160006101000a81548160ff02191690831515021790555081600c60003373ffffffffffffffffffffffffffffffffffffffff1673ffffffffffffffffffffffffffffffffffffffff1681526020019081526020016000208281548110611c4c57611c4b615268565b5b90600052602060002090600a0201600801819055506001600d600085815260200190815260200160002060090160006101000a81548160ff02191690831515021790555081600d600085815260200190815260200160002060080181905550505050565b606060018054611cbf90614f83565b80601f0160208091040260200160405190810160405280929190818152602001828054611ceb90614f83565b8015611d385780601f10611d0d57610100808354040283529160200191611d38565b820191906000526020600020905b815481529060010190602001808311611d1b57829003601f168201915b5050505050905090565b3373ffffffffffffffffffffffffffffffffffffffff16611d628261144c565b73ffffffffffffffffffffffffffffffffffffffff1614611db8576040517f08c379a0000000000000000000000000000000000000000000000000000000008152600401611daf906151dc565b60405180910390fd5b6000600b60008381526020019081526020016000206000015414611e11576040517f08c379a0000000000000000000000000000000000000000000000000000000008152600401611e0890615248565b60405180910390fd5b6000611e1d823361345e565b90506000600c60003373ffffffffffffffffffffffffffffffffffffffff1673ffffffffffffffffffffffffffffffffffffffff1681526020019081526020016000208281548110611e7257611e71615268565b5b90600052602060002090600a020160090160016101000a81548160ff0219169083151502179055506000600c60003373ffffffffffffffffffffffffffffffffffffffff1673ffffffffffffffffffffffffffffffffffffffff1681526020019081526020016000208281548110611eed57611eec615268565b5b90600052602060002090600a0201600701819055506000600d600084815260200190815260200160002060090160016101000a81548160ff0219169083151502179055506000600d6000848152602001908152602001600020600701819055505050565b60095481565b611f69611f6261339d565b8383613d32565b5050565b60001515600860009054906101000a900460ff16151514611f8d57600080fd5b60011515600d600083815260200190815260200160002060090160009054906101000a900460ff16151514611fc157600080fd5b600d600082815260200190815260200160002060080154341015611fe457600080fd5b60001515600d600083815260200190815260200160002060090160009054906101000a905050506040518060e001604052803481526020013373ffffffffffffffffffffffffffffffffffffffff1681526020016120418361144c565b73ffffffffffffffffffffffffffffffffffffffff1681526020016040518060400160405280600881526020017f4252454544494e47000000000000000000000000000000000000000000000000815250815260200160001515815260200160001515815260200160001515815250600b60008381526020019081526020016000206000820151816000015560208201518160010160006101000a81548173ffffffffffffffffffffffffffffffffffffffff021916908373ffffffffffffffffffffffffffffffffffffffff16021790555060408201518160020160006101000a81548173ffffffffffffffffffffffffffffffffffffffff021916908373ffffffffffffffffffffffffffffffffffffffff1602179055506060820151816003019080519060200190612177929190614477565b5060808201518160040160006101000a81548160ff02191690831515021790555060a08201518160040160016101000a81548160ff02191690831515021790555060c08201518160040160026101000a81548160ff02191690831515021790555090505050565b600c60205281600052604060002081815481106121fa57600080fd5b90600052602060002090600a02016000915091505080600001549080600101805461222490614f83565b80601f016020809104026020016040519081016040528092919081815260200182805461225090614f83565b801561229d5780601f106122725761010080835404028352916020019161229d565b820191906000526020600020905b81548152906001019060200180831161228057829003601f168201915b5050505050908060020180546122b290614f83565b80601f01602080910402602001604051908101604052809291908181526020018280546122de90614f83565b801561232b5780601f106123005761010080835404028352916020019161232b565b820191906000526020600020905b81548152906001019060200180831161230e57829003601f168201915b50505050509080600301805461234090614f83565b80601f016020809104026020016040519081016040528092919081815260200182805461236c90614f83565b80156123b95780601f1061238e576101008083540402835291602001916123b9565b820191906000526020600020905b81548152906001019060200180831161239c57829003601f168201915b5050505050908060040180546123ce90614f83565b80601f01602080910402602001604051908101604052809291908181526020018280546123fa90614f83565b80156124475780601f1061241c57610100808354040283529160200191612447565b820191906000526020600020905b81548152906001019060200180831161242a57829003601f168201915b50505050509080600501805461245c90614f83565b80601f016020809104026020016040519081016040528092919081815260200182805461248890614f83565b80156124d55780601f106124aa576101008083540402835291602001916124d5565b820191906000526020600020905b8154815290600101906020018083116124b857829003601f168201915b5050505050908060060180546124ea90614f83565b80601f016020809104026020016040519081016040528092919081815260200182805461251690614f83565b80156125635780601f1061253857610100808354040283529160200191612563565b820191906000526020600020905b81548152906001019060200180831161254657829003601f168201915b5050505050908060070154908060080154908060090160009054906101000a900460ff16908060090160019054906101000a900460ff1690508b565b6125b06125aa61339d565b83613545565b6125ef576040517f08c379a00000000000000000000000000000000000000000000000000000000081526004016125e690615309565b60405180910390fd5b6125fb84848484613e9e565b50505050565b600d60205280600052604060002060009150905080600001549080600101805461262a90614f83565b80601f016020809104026020016040519081016040528092919081815260200182805461265690614f83565b80156126a35780601f10612678576101008083540402835291602001916126a3565b820191906000526020600020905b81548152906001019060200180831161268657829003601f168201915b5050505050908060020180546126b890614f83565b80601f01602080910402602001604051908101604052809291908181526020018280546126e490614f83565b80156127315780601f1061270657610100808354040283529160200191612731565b820191906000526020600020905b81548152906001019060200180831161271457829003601f168201915b50505050509080600301805461274690614f83565b80601f016020809104026020016040519081016040528092919081815260200182805461277290614f83565b80156127bf5780601f10612794576101008083540402835291602001916127bf565b820191906000526020600020905b8154815290600101906020018083116127a257829003601f168201915b5050505050908060040180546127d490614f83565b80601f016020809104026020016040519081016040528092919081815260200182805461280090614f83565b801561284d5780601f106128225761010080835404028352916020019161284d565b820191906000526020600020905b81548152906001019060200180831161283057829003601f168201915b50505050509080600501805461286290614f83565b80601f016020809104026020016040519081016040528092919081815260200182805461288e90614f83565b80156128db5780601f106128b0576101008083540402835291602001916128db565b820191906000526020600020905b8154815290600101906020018083116128be57829003601f168201915b5050505050908060060180546128f090614f83565b80601f016020809104026020016040519081016040528092919081815260200182805461291c90614f83565b80156129695780601f1061293e57610100808354040283529160200191612969565b820191906000526020600020905b81548152906001019060200180831161294c57829003601f168201915b5050505050908060070154908060080154908060090160009054906101000a900460ff16908060090160019054906101000a900460ff1690508b565b60606129b082613331565b6129ef576040517f08c379a00000000000000000000000000000000000000000000000000000000081526004016129e69061590a565b60405180910390fd5b60006129f9613efa565b90506000815111612a195760405180602001604052806000815250612a44565b80612a2384613f11565b604051602001612a34929190615966565b6040516020818303038152906040525b915050919050565b600e818051602081018201805184825260208301602085012081835280955050505050506000915054906101000a900460ff1681565b60001515600860009054906101000a900460ff16151514612aa257600080fd5b60011515600d600083815260200190815260200160002060090160019054906101000a900460ff16151514612ad657600080fd5b600d600082815260200190815260200160002060070154341015612af957600080fd5b60001515600d600083815260200190815260200160002060090160019054906101000a905050506040518060e001604052803481526020013373ffffffffffffffffffffffffffffffffffffffff168152602001612b568361144c565b73ffffffffffffffffffffffffffffffffffffffff1681526020016040518060400160405280600481526020017f53414c4500000000000000000000000000000000000000000000000000000000815250815260200160001515815260200160001515815260200160001515815250600b60008381526020019081526020016000206000820151816000015560208201518160010160006101000a81548173ffffffffffffffffffffffffffffffffffffffff021916908373ffffffffffffffffffffffffffffffffffffffff16021790555060408201518160020160006101000a81548173ffffffffffffffffffffffffffffffffffffffff021916908373ffffffffffffffffffffffffffffffffffffffff1602179055506060820151816003019080519060200190612c8c929190614477565b5060808201518160040160006101000a81548160ff02191690831515021790555060a08201518160040160016101000a81548160ff02191690831515021790555060c08201518160040160026101000a81548160ff02191690831515021790555090505050565b600a5481565b6000600560008473ffffffffffffffffffffffffffffffffffffffff1673ffffffffffffffffffffffffffffffffffffffff16815260200190815260200160002060008373ffffffffffffffffffffffffffffffffffffffff1673ffffffffffffffffffffffffffffffffffffffff16815260200190815260200160002060009054906101000a900460ff16905092915050565b60001515600860009054906101000a900460ff16151514612dad57600080fd5b60001515600e84604051612dc1919061598a565b908152602001604051809103902060009054906101000a900460ff16151514612e1f576040517f08c379a0000000000000000000000000000000000000000000000000000000008152600401612e1690615a13565b60405180910390fd5b600160076000828254612e3291906156b2565b92505081905550612e4533600754614071565b600c60003373ffffffffffffffffffffffffffffffffffffffff1673ffffffffffffffffffffffffffffffffffffffff168152602001908152602001600020604051806101600160405280600754815260200188815260200187815260200186815260200185815260200184815260200183815260200160008152602001600081526020016000151581526020016000151581525090806001815401808255809150506001900390600052602060002090600a0201600090919091909150600082015181600001556020820151816001019080519060200190612f29929190614477565b506040820151816002019080519060200190612f46929190614477565b506060820151816003019080519060200190612f63929190614477565b506080820151816004019080519060200190612f80929190614477565b5060a0820151816005019080519060200190612f9d929190614477565b5060c0820151816006019080519060200190612fba929190614477565b5060e0820151816007015561010082015181600801556101208201518160090160006101000a81548160ff0219169083151502179055506101408201518160090160016101000a81548160ff02191690831515021790555050506040518061016001604052806007548152602001878152602001868152602001858152602001848152602001838152602001828152602001600081526020016000815260200160001515815260200160001515815250600d600060075481526020019081526020016000206000820151816000015560208201518160010190805190602001906130a5929190614477565b5060408201518160020190805190602001906130c2929190614477565b5060608201518160030190805190602001906130df929190614477565b5060808201518160040190805190602001906130fc929190614477565b5060a0820151816005019080519060200190613119929190614477565b5060c0820151816006019080519060200190613136929190614477565b5060e0820151816007015561010082015181600801556101208201518160090160006101000a81548160ff0219169083151502179055506101408201518160090160016101000a81548160ff0219169083151502179055509050506001600e846040516131a3919061598a565b908152602001604051809103902060006101000a81548160ff021916908315150217905550505050505050565b6131d861339d565b73ffffffffffffffffffffffffffffffffffffffff166131f6611a47565b73ffffffffffffffffffffffffffffffffffffffff161461324c576040517f08c379a000000000000000000000000000000000000000000000000000000000815260040161324390615754565b60405180910390fd5b600073ffffffffffffffffffffffffffffffffffffffff168173ffffffffffffffffffffffffffffffffffffffff16036132bb576040517f08c379a00000000000000000000000000000000000000000000000000000000081526004016132b290615aa5565b60405180910390fd5b6132c481613c6c565b50565b60007f01ffc9a7000000000000000000000000000000000000000000000000000000007bffffffffffffffffffffffffffffffffffffffffffffffffffffffff1916827bffffffffffffffffffffffffffffffffffffffffffffffffffffffff1916149050919050565b60008073ffffffffffffffffffffffffffffffffffffffff166002600084815260200190815260200160002060009054906101000a900473ffffffffffffffffffffffffffffffffffffffff1673ffffffffffffffffffffffffffffffffffffffff1614159050919050565b600033905090565b816004600083815260200190815260200160002060006101000a81548173ffffffffffffffffffffffffffffffffffffffff021916908373ffffffffffffffffffffffffffffffffffffffff160217905550808273ffffffffffffffffffffffffffffffffffffffff166134188361144c565b73ffffffffffffffffffffffffffffffffffffffff167f8c5be1e5ebec7d5bd14f71427d1e84f3dd0314c0f7b2291e5b200ac8c7c3b92560405160405180910390a45050565b60008060005b6001600c60008673ffffffffffffffffffffffffffffffffffffffff1673ffffffffffffffffffffffffffffffffffffffff168152602001908152602001600020805490506134b391906155c8565b81101561353a5784600c60008673ffffffffffffffffffffffffffffffffffffffff1673ffffffffffffffffffffffffffffffffffffffff168152602001908152602001600020828154811061350c5761350b615268565b5b90600052602060002090600a02016000015403613527578091505b808061353290615ac5565b915050613464565b508091505092915050565b600061355082613331565b61358f576040517f08c379a000000000000000000000000000000000000000000000000000000000815260040161358690615b7f565b60405180910390fd5b600061359a8361144c565b90508073ffffffffffffffffffffffffffffffffffffffff168473ffffffffffffffffffffffffffffffffffffffff1614806135dc57506135db8185612cf9565b5b8061361a57508373ffffffffffffffffffffffffffffffffffffffff1661360284610a8f565b73ffffffffffffffffffffffffffffffffffffffff16145b91505092915050565b8273ffffffffffffffffffffffffffffffffffffffff166136438261144c565b73ffffffffffffffffffffffffffffffffffffffff1614613699576040517f08c379a000000000000000000000000000000000000000000000000000000000815260040161369090615c11565b60405180910390fd5b600073ffffffffffffffffffffffffffffffffffffffff168273ffffffffffffffffffffffffffffffffffffffff1603613708576040517f08c379a00000000000000000000000000000000000000000000000000000000081526004016136ff90615ca3565b60405180910390fd5b61371383838361408f565b61371e6000826133a5565b6001600360008573ffffffffffffffffffffffffffffffffffffffff1673ffffffffffffffffffffffffffffffffffffffff168152602001908152602001600020600082825461376e91906155c8565b925050819055506001600360008473ffffffffffffffffffffffffffffffffffffffff1673ffffffffffffffffffffffffffffffffffffffff16815260200190815260200160002060008282546137c591906156b2565b92505081905550816002600083815260200190815260200160002060006101000a81548173ffffffffffffffffffffffffffffffffffffffff021916908373ffffffffffffffffffffffffffffffffffffffff160217905550808273ffffffffffffffffffffffffffffffffffffffff168473ffffffffffffffffffffffffffffffffffffffff167fddf252ad1be2c89b69c2b068fc378daa952ba7f163c4a11628f55a4df523b3ef60405160405180910390a4613884838383614094565b505050565b3373ffffffffffffffffffffffffffffffffffffffff166138a98361144c565b73ffffffffffffffffffffffffffffffffffffffff16146138ff576040517f08c379a00000000000000000000000000000000000000000000000000000000081526004016138f690615d35565b60405180910390fd5b61390a3382846111ed565b6000613916833361345e565b9050600c60003373ffffffffffffffffffffffffffffffffffffffff1673ffffffffffffffffffffffffffffffffffffffff1681526020019081526020016000206001600c60003373ffffffffffffffffffffffffffffffffffffffff1673ffffffffffffffffffffffffffffffffffffffff168152602001908152602001600020805490506139a691906155c8565b815481106139b7576139b6615268565b5b90600052602060002090600a0201600c60003373ffffffffffffffffffffffffffffffffffffffff1673ffffffffffffffffffffffffffffffffffffffff1681526020019081526020016000208281548110613a1657613a15615268565b5b90600052602060002090600a0201600082015481600001556001820181600101908054613a4290614f83565b613a4d9291906144fd565b506002820181600201908054613a6290614f83565b613a6d9291906144fd565b506003820181600301908054613a8290614f83565b613a8d9291906144fd565b506004820181600401908054613aa290614f83565b613aad9291906144fd565b506005820181600501908054613ac290614f83565b613acd9291906144fd565b506006820181600601908054613ae290614f83565b613aed9291906144fd565b5060078201548160070155600882015481600801556009820160009054906101000a900460ff168160090160006101000a81548160ff0219169083151502179055506009820160019054906101000a900460ff168160090160016101000a81548160ff021916908315150217905550905050600c60003373ffffffffffffffffffffffffffffffffffffffff1673ffffffffffffffffffffffffffffffffffffffff168152602001908152602001600020805480613bae57613bad615d55565b5b60019003818190600052602060002090600a0201600080820160009055600182016000613bdb919061458a565b600282016000613beb919061458a565b600382016000613bfb919061458a565b600482016000613c0b919061458a565b600582016000613c1b919061458a565b600682016000613c2b919061458a565b600782016000905560088201600090556009820160006101000a81549060ff02191690556009820160016101000a81549060ff021916905550509055505050565b6000600660009054906101000a900473ffffffffffffffffffffffffffffffffffffffff16905081600660006101000a81548173ffffffffffffffffffffffffffffffffffffffff021916908373ffffffffffffffffffffffffffffffffffffffff1602179055508173ffffffffffffffffffffffffffffffffffffffff168173ffffffffffffffffffffffffffffffffffffffff167f8be0079c531659141344cd1fd0a4f28419497f9722a3daafe3b4186f6b6457e060405160405180910390a35050565b8173ffffffffffffffffffffffffffffffffffffffff168373ffffffffffffffffffffffffffffffffffffffff1603613da0576040517f08c379a0000000000000000000000000000000000000000000000000000000008152600401613d9790615dd0565b60405180910390fd5b80600560008573ffffffffffffffffffffffffffffffffffffffff1673ffffffffffffffffffffffffffffffffffffffff16815260200190815260200160002060008473ffffffffffffffffffffffffffffffffffffffff1673ffffffffffffffffffffffffffffffffffffffff16815260200190815260200160002060006101000a81548160ff0219169083151502179055508173ffffffffffffffffffffffffffffffffffffffff168373ffffffffffffffffffffffffffffffffffffffff167f17307eab39ab6107e8899845ad3d59bd9653f200f220920489ca2b5937696c3183604051613e91919061485d565b60405180910390a3505050565b613ea9848484613623565b613eb584848484614099565b613ef4576040517f08c379a0000000000000000000000000000000000000000000000000000000008152600401613eeb90615e62565b60405180910390fd5b50505050565b606060405180602001604052806000815250905090565b606060008203613f58576040518060400160405280600181526020017f3000000000000000000000000000000000000000000000000000000000000000815250905061406c565b600082905060005b60008214613f8a578080613f7390615ac5565b915050600a82613f83919061553d565b9150613f60565b60008167ffffffffffffffff811115613fa657613fa5614b47565b5b6040519080825280601f01601f191660200182016040528015613fd85781602001600182028036833780820191505090505b5090505b6000851461406557600182613ff191906155c8565b9150600a856140009190615e82565b603061400c91906156b2565b60f81b81838151811061402257614021615268565b5b60200101907effffffffffffffffffffffffffffffffffffffffffffffffffffffffffffff1916908160001a905350600a8561405e919061553d565b9450613fdc565b8093505050505b919050565b61408b828260405180602001604052806000815250614220565b5050565b505050565b505050565b60006140ba8473ffffffffffffffffffffffffffffffffffffffff1661427b565b15614213578373ffffffffffffffffffffffffffffffffffffffff1663150b7a026140e361339d565b8786866040518563ffffffff1660e01b81526004016141059493929190615f08565b6020604051808303816000875af192505050801561414157506040513d601f19601f8201168201806040525081019061413e9190615f69565b60015b6141c3573d8060008114614171576040519150601f19603f3d011682016040523d82523d6000602084013e614176565b606091505b5060008151036141bb576040517f08c379a00000000000000000000000000000000000000000000000000000000081526004016141b290615e62565b60405180910390fd5b805181602001fd5b63150b7a0260e01b7bffffffffffffffffffffffffffffffffffffffffffffffffffffffff1916817bffffffffffffffffffffffffffffffffffffffffffffffffffffffff191614915050614218565b600190505b949350505050565b61422a838361429e565b6142376000848484614099565b614276576040517f08c379a000000000000000000000000000000000000000000000000000000000815260040161426d90615e62565b60405180910390fd5b505050565b6000808273ffffffffffffffffffffffffffffffffffffffff163b119050919050565b600073ffffffffffffffffffffffffffffffffffffffff168273ffffffffffffffffffffffffffffffffffffffff160361430d576040517f08c379a000000000000000000000000000000000000000000000000000000000815260040161430490615fe2565b60405180910390fd5b61431681613331565b15614356576040517f08c379a000000000000000000000000000000000000000000000000000000000815260040161434d9061604e565b60405180910390fd5b6143626000838361408f565b6001600360008473ffffffffffffffffffffffffffffffffffffffff1673ffffffffffffffffffffffffffffffffffffffff16815260200190815260200160002060008282546143b291906156b2565b92505081905550816002600083815260200190815260200160002060006101000a81548173ffffffffffffffffffffffffffffffffffffffff021916908373ffffffffffffffffffffffffffffffffffffffff160217905550808273ffffffffffffffffffffffffffffffffffffffff16600073ffffffffffffffffffffffffffffffffffffffff167fddf252ad1be2c89b69c2b068fc378daa952ba7f163c4a11628f55a4df523b3ef60405160405180910390a461447360008383614094565b5050565b82805461448390614f83565b90600052602060002090601f0160209004810192826144a557600085556144ec565b82601f106144be57805160ff19168380011785556144ec565b828001600101855582156144ec579182015b828111156144eb5782518255916020019190600101906144d0565b5b5090506144f991906145ca565b5090565b82805461450990614f83565b90600052602060002090601f01602090048101928261452b5760008555614579565b82601f1061453c5780548555614579565b8280016001018555821561457957600052602060002091601f016020900482015b8281111561457857825482559160010191906001019061455d565b5b50905061458691906145ca565b5090565b50805461459690614f83565b6000825580601f106145a857506145c7565b601f0160209004906000526020600020908101906145c691906145ca565b5b50565b5b808211156145e35760008160009055506001016145cb565b5090565b6000604051905090565b600080fd5b600080fd5b6000819050919050565b61460e816145fb565b811461461957600080fd5b50565b60008135905061462b81614605565b92915050565b600060208284031215614647576146466145f1565b5b60006146558482850161461c565b91505092915050565b614667816145fb565b82525050565b600073ffffffffffffffffffffffffffffffffffffffff82169050919050565b60006146988261466d565b9050919050565b6146a88161468d565b82525050565b600081519050919050565b600082825260208201905092915050565b60005b838110156146e85780820151818401526020810190506146cd565b838111156146f7576000848401525b50505050565b6000601f19601f8301169050919050565b6000614719826146ae565b61472381856146b9565b93506147338185602086016146ca565b61473c816146fd565b840191505092915050565b60008115159050919050565b61475c81614747565b82525050565b600060e082019050614777600083018a61465e565b614784602083018961469f565b614791604083018861469f565b81810360608301526147a3818761470e565b90506147b26080830186614753565b6147bf60a0830185614753565b6147cc60c0830184614753565b98975050505050505050565b60007fffffffff0000000000000000000000000000000000000000000000000000000082169050919050565b61480d816147d8565b811461481857600080fd5b50565b60008135905061482a81614804565b92915050565b600060208284031215614846576148456145f1565b5b60006148548482850161481b565b91505092915050565b60006020820190506148726000830184614753565b92915050565b60006020820190508181036000830152614892818461470e565b905092915050565b60006020820190506148af600083018461469f565b92915050565b6148be8161468d565b81146148c957600080fd5b50565b6000813590506148db816148b5565b92915050565b600080604083850312156148f8576148f76145f1565b5b6000614906858286016148cc565b92505060206149178582860161461c565b9150509250929050565b60008060006060848603121561493a576149396145f1565b5b6000614948868287016148cc565b9350506020614959868287016148cc565b925050604061496a8682870161461c565b9150509250925092565b6000806040838503121561498b5761498a6145f1565b5b60006149998582860161461c565b92505060206149aa8582860161461c565b9150509250929050565b6000602082840312156149ca576149c96145f1565b5b60006149d8848285016148cc565b91505092915050565b60006020820190506149f6600083018461465e565b92915050565b614a0581614747565b8114614a1057600080fd5b50565b600081359050614a22816149fc565b92915050565b60008060408385031215614a3f57614a3e6145f1565b5b6000614a4d858286016148cc565b9250506020614a5e85828601614a13565b9150509250929050565b600061016082019050614a7e600083018e61465e565b8181036020830152614a90818d61470e565b90508181036040830152614aa4818c61470e565b90508181036060830152614ab8818b61470e565b90508181036080830152614acc818a61470e565b905081810360a0830152614ae0818961470e565b905081810360c0830152614af4818861470e565b9050614b0360e083018761465e565b614b1161010083018661465e565b614b1f610120830185614753565b614b2d610140830184614753565b9c9b505050505050505050505050565b600080fd5b600080fd5b7f4e487b7100000000000000000000000000000000000000000000000000000000600052604160045260246000fd5b614b7f826146fd565b810181811067ffffffffffffffff82111715614b9e57614b9d614b47565b5b80604052505050565b6000614bb16145e7565b9050614bbd8282614b76565b919050565b600067ffffffffffffffff821115614bdd57614bdc614b47565b5b614be6826146fd565b9050602081019050919050565b82818337600083830152505050565b6000614c15614c1084614bc2565b614ba7565b905082815260208101848484011115614c3157614c30614b42565b5b614c3c848285614bf3565b509392505050565b600082601f830112614c5957614c58614b3d565b5b8135614c69848260208601614c02565b91505092915050565b60008060008060808587031215614c8c57614c8b6145f1565b5b6000614c9a878288016148cc565b9450506020614cab878288016148cc565b9350506040614cbc8782880161461c565b925050606085013567ffffffffffffffff811115614cdd57614cdc6145f6565b5b614ce987828801614c44565b91505092959194509250565b600067ffffffffffffffff821115614d1057614d0f614b47565b5b614d19826146fd565b9050602081019050919050565b6000614d39614d3484614cf5565b614ba7565b905082815260208101848484011115614d5557614d54614b42565b5b614d60848285614bf3565b509392505050565b600082601f830112614d7d57614d7c614b3d565b5b8135614d8d848260208601614d26565b91505092915050565b600060208284031215614dac57614dab6145f1565b5b600082013567ffffffffffffffff811115614dca57614dc96145f6565b5b614dd684828501614d68565b91505092915050565b60008060408385031215614df657614df56145f1565b5b6000614e04858286016148cc565b9250506020614e15858286016148cc565b9150509250929050565b60008060008060008060c08789031215614e3c57614e3b6145f1565b5b600087013567ffffffffffffffff811115614e5a57614e596145f6565b5b614e6689828a01614d68565b965050602087013567ffffffffffffffff811115614e8757614e866145f6565b5b614e9389828a01614d68565b955050604087013567ffffffffffffffff811115614eb457614eb36145f6565b5b614ec089828a01614d68565b945050606087013567ffffffffffffffff811115614ee157614ee06145f6565b5b614eed89828a01614d68565b935050608087013567ffffffffffffffff811115614f0e57614f0d6145f6565b5b614f1a89828a01614d68565b92505060a087013567ffffffffffffffff811115614f3b57614f3a6145f6565b5b614f4789828a01614d68565b9150509295509295509295565b7f4e487b7100000000000000000000000000000000000000000000000000000000600052602260045260246000fd5b60006002820490506001821680614f9b57607f821691505b602082108103614fae57614fad614f54565b5b50919050565b7f4552433732313a20617070726f76656420717565727920666f72206e6f6e657860008201527f697374656e7420746f6b656e0000000000000000000000000000000000000000602082015250565b6000615010602c836146b9565b915061501b82614fb4565b604082019050919050565b6000602082019050818103600083015261503f81615003565b9050919050565b7f4552433732313a20617070726f76616c20746f2063757272656e74206f776e6560008201527f7200000000000000000000000000000000000000000000000000000000000000602082015250565b60006150a26021836146b9565b91506150ad82615046565b604082019050919050565b600060208201905081810360008301526150d181615095565b9050919050565b7f4552433732313a20617070726f76652063616c6c6572206973206e6f74206f7760008201527f6e6572206e6f7220617070726f76656420666f7220616c6c0000000000000000602082015250565b60006151346038836146b9565b915061513f826150d8565b604082019050919050565b6000602082019050818103600083015261516381615127565b9050919050565b7f57616c6c6574206973206e6f7420746865206f776e6572206f6620746869732060008201527f4e46540000000000000000000000000000000000000000000000000000000000602082015250565b60006151c66023836146b9565b91506151d18261516a565b604082019050919050565b600060208201905081810360008301526151f5816151b9565b9050919050565b7f4465616c2069732063757272656e746c7920696e20457363726f770000000000600082015250565b6000615232601b836146b9565b915061523d826151fc565b602082019050919050565b6000602082019050818103600083015261526181615225565b9050919050565b7f4e487b7100000000000000000000000000000000000000000000000000000000600052603260045260246000fd5b7f4552433732313a207472616e736665722063616c6c6572206973206e6f74206f60008201527f776e6572206e6f7220617070726f766564000000000000000000000000000000602082015250565b60006152f36031836146b9565b91506152fe82615297565b604082019050919050565b60006020820190508181036000830152615322816152e6565b9050919050565b7f546869732077616c6c657420646f65736e2774206f776e20746869732077616c60008201527f6c65740000000000000000000000000000000000000000000000000000000000602082015250565b60006153856023836146b9565b915061539082615329565b604082019050919050565b600060208201905081810360008301526153b481615378565b9050919050565b7f596f752063616e27742073656c6c207768696c65206272656564696e6720697360008201527f20656e61626c6564000000000000000000000000000000000000000000000000602082015250565b60006154176028836146b9565b9150615422826153bb565b604082019050919050565b600060208201905081810360008301526154468161540a565b9050919050565b7f4552433732313a206f776e657220717565727920666f72206e6f6e657869737460008201527f656e7420746f6b656e0000000000000000000000000000000000000000000000602082015250565b60006154a96029836146b9565b91506154b48261544d565b604082019050919050565b600060208201905081810360008301526154d88161549c565b9050919050565b7f4e487b7100000000000000000000000000000000000000000000000000000000600052601260045260246000fd5b7f4e487b7100000000000000000000000000000000000000000000000000000000600052601160045260246000fd5b6000615548826145fb565b9150615553836145fb565b925082615563576155626154df565b5b828204905092915050565b6000615579826145fb565b9150615584836145fb565b9250817fffffffffffffffffffffffffffffffffffffffffffffffffffffffffffffffff04831182151516156155bd576155bc61550e565b5b828202905092915050565b60006155d3826145fb565b91506155de836145fb565b9250828210156155f1576155f061550e565b5b828203905092915050565b600081905092915050565b60008190508160005260206000209050919050565b6000815461562981614f83565b61563381866155fc565b9450600182166000811461564e576001811461565f57615692565b60ff19831686528186019350615692565b61566885615607565b60005b8381101561568a5781548189015260018201915060208101905061566b565b838801955050505b50505092915050565b60006156a7828461561c565b915081905092915050565b60006156bd826145fb565b91506156c8836145fb565b9250827fffffffffffffffffffffffffffffffffffffffffffffffffffffffffffffffff038211156156fd576156fc61550e565b5b828201905092915050565b7f4f776e61626c653a2063616c6c6572206973206e6f7420746865206f776e6572600082015250565b600061573e6020836146b9565b915061574982615708565b602082019050919050565b6000602082019050818103600083015261576d81615731565b9050919050565b7f4552433732313a2062616c616e636520717565727920666f7220746865207a6560008201527f726f206164647265737300000000000000000000000000000000000000000000602082015250565b60006157d0602a836146b9565b91506157db82615774565b604082019050919050565b600060208201905081810360008301526157ff816157c3565b9050919050565b7f596f752063616e2774206272656564207768696c652073616c6520697320656e60008201527f61626c6564000000000000000000000000000000000000000000000000000000602082015250565b60006158626025836146b9565b915061586d82615806565b604082019050919050565b6000602082019050818103600083015261589181615855565b9050919050565b7f4552433732314d657461646174613a2055524920717565727920666f72206e6f60008201527f6e6578697374656e7420746f6b656e0000000000000000000000000000000000602082015250565b60006158f4602f836146b9565b91506158ff82615898565b604082019050919050565b60006020820190508181036000830152615923816158e7565b9050919050565b600081905092915050565b6000615940826146ae565b61594a818561592a565b935061595a8185602086016146ca565b80840191505092915050565b60006159728285615935565b915061597e8284615935565b91508190509392505050565b60006159968284615935565b915081905092915050565b7f546869732050726f706572747920416c7265616479204578697374732041732060008201527f4e46540000000000000000000000000000000000000000000000000000000000602082015250565b60006159fd6023836146b9565b9150615a08826159a1565b604082019050919050565b60006020820190508181036000830152615a2c816159f0565b9050919050565b7f4f776e61626c653a206e6577206f776e657220697320746865207a65726f206160008201527f6464726573730000000000000000000000000000000000000000000000000000602082015250565b6000615a8f6026836146b9565b9150615a9a82615a33565b604082019050919050565b60006020820190508181036000830152615abe81615a82565b9050919050565b6000615ad0826145fb565b91507fffffffffffffffffffffffffffffffffffffffffffffffffffffffffffffffff8203615b0257615b0161550e565b5b600182019050919050565b7f4552433732313a206f70657261746f7220717565727920666f72206e6f6e657860008201527f697374656e7420746f6b656e0000000000000000000000000000000000000000602082015250565b6000615b69602c836146b9565b9150615b7482615b0d565b604082019050919050565b60006020820190508181036000830152615b9881615b5c565b9050919050565b7f4552433732313a207472616e736665722066726f6d20696e636f72726563742060008201527f6f776e6572000000000000000000000000000000000000000000000000000000602082015250565b6000615bfb6025836146b9565b9150615c0682615b9f565b604082019050919050565b60006020820190508181036000830152615c2a81615bee565b9050919050565b7f4552433732313a207472616e7366657220746f20746865207a65726f2061646460008201527f7265737300000000000000000000000000000000000000000000000000000000602082015250565b6000615c8d6024836146b9565b9150615c9882615c31565b604082019050919050565b60006020820190508181036000830152615cbc81615c80565b9050919050565b7f546869732077616c6c6574206973206e6f7420746865206f776e6572206f662060008201527f74686973204e4654000000000000000000000000000000000000000000000000602082015250565b6000615d1f6028836146b9565b9150615d2a82615cc3565b604082019050919050565b60006020820190508181036000830152615d4e81615d12565b9050919050565b7f4e487b7100000000000000000000000000000000000000000000000000000000600052603160045260246000fd5b7f4552433732313a20617070726f766520746f2063616c6c657200000000000000600082015250565b6000615dba6019836146b9565b9150615dc582615d84565b602082019050919050565b60006020820190508181036000830152615de981615dad565b9050919050565b7f4552433732313a207472616e7366657220746f206e6f6e20455243373231526560008201527f63656976657220696d706c656d656e7465720000000000000000000000000000602082015250565b6000615e4c6032836146b9565b9150615e5782615df0565b604082019050919050565b60006020820190508181036000830152615e7b81615e3f565b9050919050565b6000615e8d826145fb565b9150615e98836145fb565b925082615ea857615ea76154df565b5b828206905092915050565b600081519050919050565b600082825260208201905092915050565b6000615eda82615eb3565b615ee48185615ebe565b9350615ef48185602086016146ca565b615efd816146fd565b840191505092915050565b6000608082019050615f1d600083018761469f565b615f2a602083018661469f565b615f37604083018561465e565b8181036060830152615f498184615ecf565b905095945050505050565b600081519050615f6381614804565b92915050565b600060208284031215615f7f57615f7e6145f1565b5b6000615f8d84828501615f54565b91505092915050565b7f4552433732313a206d696e7420746f20746865207a65726f2061646472657373600082015250565b6000615fcc6020836146b9565b9150615fd782615f96565b602082019050919050565b60006020820190508181036000830152615ffb81615fbf565b9050919050565b7f4552433732313a20746f6b656e20616c7265616479206d696e74656400000000600082015250565b6000616038601c836146b9565b915061604382616002565b602082019050919050565b600060208201905081810360008301526160678161602b565b905091905056fea264697066735822122022079602bd50548ba95de6ba3a84ad782029b71aaf33e3794f32c09bb134f0b564736f6c634300080e0033",
  "immutableReferences": {},
  "source": "pragma solidity >=0.8.0;\r\n\r\nimport \"@openzeppelin/contracts/token/ERC721/ERC721.sol\";\r\nimport \"@openzeppelin/contracts/access/Ownable.sol\";\r\n//import \"./ContractOwner.sol\";\r\n\r\n\r\ncontract Pupper is ERC721, Ownable {\r\n\r\n    \r\n    \r\n    uint pupperId=0;    \r\n    bool pauseContract;\r\n    uint public transactionFee;\r\n    uint public commission; \r\n    \r\n\r\n    modifier contractPaused(){\r\n        require(pauseContract == true);\r\n        _;\r\n    }\r\n\r\n    modifier contractNotPaused(){\r\n        require(pauseContract == false);\r\n        _;\r\n    }\r\n\r\n    constructor() ERC721(\"Pupper\", \"PUP\") {}   \r\n\r\n    \r\n    struct pupper{\r\n\r\n        \r\n        uint _pupperId;\r\n        string _pupperName;\r\n        string _breed;\r\n        string _sex;\r\n        string _genome;\r\n        string _genomeTestResultLink;\r\n        string _imageBase64;\r\n        uint _salePrice;\r\n        uint _breedingPrice;\r\n        bool _enableBreeding;\r\n        bool _enableSale;\r\n        \r\n    }\r\n     \r\n\r\n    mapping(uint=>escrow) public escrows;\r\n\r\n    mapping(address=>pupper[]) public puppers;\r\n\r\n    mapping(uint => pupper) public allpuppers;\r\n    mapping (string=>bool) public genomes;\r\n\r\n    function getIndex(uint _tokenId, address _address) private returns(uint){\r\n        uint index;\r\n\r\n        for(uint i=0; i<puppers[_address].length-1; i++){\r\n            \r\n            if(puppers[_address][i]._pupperId==_tokenId){\r\n\r\n                index =i;\r\n            }\r\n\r\n        }\r\n        return index;\r\n    }\r\n\r\n    function createPupper(string memory pupperName, string memory _breed, \r\n    string memory sex, string memory genome, string memory \r\n    genomeLink, string memory base64) public contractNotPaused{\r\n\r\n        require(genomes[genome]==false, \"This Property Already Exists As NFT\");\r\n\r\n        pupperId+=1;\r\n\r\n        _safeMint(msg.sender, pupperId);\r\n\r\n        puppers[msg.sender].push(pupper(pupperId, pupperName, _breed, sex, genome,genomeLink,base64,0,0,false,false));\r\n        allpuppers[pupperId]= pupper(pupperId, pupperName, _breed, sex, genome,genomeLink,base64,0,0,false,false);\r\n        genomes[genome]= true;\r\n        \r\n    }\r\n\r\n    function transferPupper(uint _tokenId, address newOwner) private {\r\n\r\n        require(ownerOf(_tokenId)==msg.sender, \"This wallet is not the owner of this NFT\");\r\n        safeTransferFrom(msg.sender, newOwner, _tokenId);\r\n        uint index = getIndex(_tokenId, msg.sender);\r\n\r\n        puppers[msg.sender][index]= puppers[msg.sender][puppers[msg.sender].length-1];\r\n        puppers[msg.sender].pop();\r\n\r\n\r\n    }\r\n\r\n    function enableSale(uint _tokenId, uint _salePrice) public  contractNotPaused{\r\n        require(ownerOf(_tokenId)==msg.sender,\"This wallet doesn't own this wallet\");\r\n        require(allpuppers[_tokenId]._enableBreeding==false, \"You can't sell while breeding is enabled\");\r\n\r\n        uint index = getIndex(_tokenId, msg.sender);\r\n        puppers[msg.sender][index]._enableSale =true;\r\n        puppers[msg.sender][index]._salePrice =_salePrice;\r\n\r\n        allpuppers[_tokenId]._enableSale=true;\r\n        allpuppers[_tokenId]._salePrice =_salePrice;\r\n\r\n\r\n    }\r\n    function disableSale(uint _tokenId) public {\r\n\r\n        require(ownerOf(_tokenId)==msg.sender,\"Wallet is not the owner of this NFT\");\r\n        require(escrows[_tokenId]._amount ==0, \"Deal is currently in Escrow\");\r\n        uint index = getIndex(_tokenId, msg.sender);\r\n        puppers[msg.sender][index]._enableSale =false;\r\n        puppers[msg.sender][index]._salePrice =0;\r\n\r\n        allpuppers[_tokenId]._enableSale=false;\r\n        allpuppers[_tokenId]._salePrice =0;\r\n\r\n    }\r\n\r\n    \r\n\r\n    function enableBreeding(uint _tokenId, uint _breedingPrice) public contractNotPaused{\r\n        require(ownerOf(_tokenId)==msg.sender,\"This wallet doesn't own this wallet\");\r\n        require(allpuppers[_tokenId]._enableSale==false, \"You can't breed while sale is enabled\");\r\n\r\n        uint index = getIndex(_tokenId, msg.sender);\r\n        puppers[msg.sender][index]._enableBreeding =true;\r\n        puppers[msg.sender][index]._breedingPrice =_breedingPrice;\r\n\r\n        allpuppers[_tokenId]._enableBreeding=true;\r\n        allpuppers[_tokenId]._breedingPrice =_breedingPrice;\r\n\r\n\r\n    }\r\n\r\n    function disableBreeding(uint _tokenId) public{\r\n        require(ownerOf(_tokenId)==msg.sender,\"Wallet is not the owner of this NFT\");\r\n        require(escrows[_tokenId]._amount ==0, \"Deal is currently in Escrow\");\r\n\r\n        uint index = getIndex(_tokenId, msg.sender);\r\n        puppers[msg.sender][index]._enableBreeding =false;\r\n        puppers[msg.sender][index]._breedingPrice =0;\r\n\r\n        allpuppers[_tokenId]._enableBreeding=false;\r\n        allpuppers[_tokenId]._breedingPrice =0;\r\n\r\n    }\r\n\r\n    struct escrow{\r\n            uint _amount;\r\n            address _sender;\r\n            address _receiver;\r\n            string _type;\r\n            bool _senderApproval;\r\n            bool _receiverApproval;\r\n            bool _processed;\r\n        }\r\n\r\n    function buy(uint _tokenId) public payable contractNotPaused{\r\n        require(allpuppers[_tokenId]._enableSale==true);\r\n        require(msg.value>=allpuppers[_tokenId]._salePrice);\r\n\r\n        allpuppers[_tokenId]._enableSale==false;\r\n        escrows[_tokenId]=escrow(msg.value,msg.sender,ownerOf(_tokenId), \"SALE\", false, false, false);\r\n\r\n\r\n    }\r\n\r\n    function breed(uint _tokenId) public payable contractNotPaused{\r\n        require(allpuppers[_tokenId]._enableBreeding==true);\r\n        require(msg.value>=allpuppers[_tokenId]._breedingPrice);\r\n\r\n        allpuppers[_tokenId]._enableBreeding==false;\r\n        escrows[_tokenId]=escrow(msg.value,msg.sender,ownerOf(_tokenId), \"BREEDING\", false, false, false);\r\n\r\n\r\n    }\r\n\r\n    function approveTransaction(uint _tokenId) public {\r\n        require(msg.sender == escrows[_tokenId]._sender || msg.sender == escrows[_tokenId]._receiver);\r\n        require(escrows[_tokenId]._processed==false);\r\n        if (msg.sender ==escrows[_tokenId]._sender){\r\n            escrows[_tokenId]._senderApproval = true;\r\n        }else\r\n        {\r\n            escrows[_tokenId]._receiverApproval = true;\r\n        }\r\n\r\n\r\n    }\r\n\r\n    function processEscrow(uint _tokenId) public{\r\n        require(msg.sender==ownerOf(_tokenId));\r\n        require(escrows[_tokenId]._senderApproval == true && escrows[_tokenId]._receiverApproval == true && escrows[_tokenId]._processed == false);\r\n        //Converting the address to payable\r\n        address payable receiver = payable(escrows[_tokenId]._receiver);\r\n        uint fee = escrows[_tokenId]._amount*(transactionFee/1000);\r\n        uint amount = escrows[_tokenId]._amount-fee;\r\n\r\n        if(receiver.send(amount)){\r\n            if(keccak256(bytes(escrows[_tokenId]._type))==keccak256(bytes(\"SALE\"))){\r\n                transferPupper( _tokenId, escrows[_tokenId]._sender);\r\n                escrows[_tokenId]._amount =0;\r\n                escrows[_tokenId]._processed=true;\r\n                commission+=fee;\r\n\r\n            }else{\r\n                escrows[_tokenId]._amount =0;\r\n                escrows[_tokenId]._processed=true;\r\n                commission+=fee;\r\n            }\r\n            \r\n\r\n        }\r\n\r\n\r\n    }\r\n    function refundEscrow(uint _tokenId) public {\r\n\r\n        require(escrows[_tokenId]._senderApproval == false && escrows[_tokenId]._receiverApproval == false && escrows[_tokenId]._processed == false );\r\n        address payable receiver = payable(escrows[_tokenId]._sender);\r\n        if(receiver.send(escrows[_tokenId]._amount)){\r\n            escrows[_tokenId]._amount =0;\r\n            escrows[_tokenId]._processed=true;\r\n\r\n        }\r\n    }\r\n    //Owner can withdraw his commission \r\n    function withdrawDevCommission() public onlyOwner{\r\n        address payable receiver = payable(owner());\r\n        require(commission>0);\r\n\r\n        if(receiver.send(commission)){\r\n            commission =0;\r\n\r\n        }\r\n    }\r\n    \r\n    \r\n\r\n       \r\n\r\n\r\n\r\n}",
  "sourcePath": "C:\\Users\\jayfo\\Desktop\\Web3\\nft_example\\contracts\\Pupper.sol",
  "compiler": {
    "name": "solc",
    "version": "0.8.14+commit.80d49f37.Emscripten.clang"
  },
  "schemaVersion": "3.4.4",
  "updatedAt": "2022-06-05T23:56:43.312Z",
  "devdoc": {
    "kind": "dev",
    "methods": {
      "approve(address,uint256)": {
        "details": "See {IERC721-approve}."
      },
      "balanceOf(address)": {
        "details": "See {IERC721-balanceOf}."
      },
      "getApproved(uint256)": {
        "details": "See {IERC721-getApproved}."
      },
      "isApprovedForAll(address,address)": {
        "details": "See {IERC721-isApprovedForAll}."
      },
      "name()": {
        "details": "See {IERC721Metadata-name}."
      },
      "owner()": {
        "details": "Returns the address of the current owner."
      },
      "ownerOf(uint256)": {
        "details": "See {IERC721-ownerOf}."
      },
      "renounceOwnership()": {
        "details": "Leaves the contract without owner. It will not be possible to call `onlyOwner` functions anymore. Can only be called by the current owner. NOTE: Renouncing ownership will leave the contract without an owner, thereby removing any functionality that is only available to the owner."
      },
      "safeTransferFrom(address,address,uint256)": {
        "details": "See {IERC721-safeTransferFrom}."
      },
      "safeTransferFrom(address,address,uint256,bytes)": {
        "details": "See {IERC721-safeTransferFrom}."
      },
      "setApprovalForAll(address,bool)": {
        "details": "See {IERC721-setApprovalForAll}."
      },
      "supportsInterface(bytes4)": {
        "details": "See {IERC165-supportsInterface}."
      },
      "symbol()": {
        "details": "See {IERC721Metadata-symbol}."
      },
      "tokenURI(uint256)": {
        "details": "See {IERC721Metadata-tokenURI}."
      },
      "transferFrom(address,address,uint256)": {
        "details": "See {IERC721-transferFrom}."
      },
      "transferOwnership(address)": {
        "details": "Transfers ownership of the contract to a new account (`newOwner`). Can only be called by the current owner."
      }
    },
    "version": 1
  },
  "userdoc": {
    "kind": "user",
    "methods": {},
    "version": 1
  }
}