{
  "contractName": "Transact",
  "abi": [
    {
      "anonymous": false,
      "inputs": [
        {
          "indexed": true,
          "internalType": "address",
          "name": "owner",
          "type": "address"
        },
        {
          "indexed": true,
          "internalType": "address",
          "name": "approved",
          "type": "address"
        },
        {
          "indexed": true,
          "internalType": "uint256",
          "name": "tokenId",
          "type": "uint256"
        }
      ],
      "name": "Approval",
      "type": "event"
    },
    {
      "anonymous": false,
      "inputs": [
        {
          "indexed": true,
          "internalType": "address",
          "name": "owner",
          "type": "address"
        },
        {
          "indexed": true,
          "internalType": "address",
          "name": "operator",
          "type": "address"
        },
        {
          "indexed": false,
          "internalType": "bool",
          "name": "approved",
          "type": "bool"
        }
      ],
      "name": "ApprovalForAll",
      "type": "event"
    },
    {
      "anonymous": false,
      "inputs": [
        {
          "indexed": true,
          "internalType": "address",
          "name": "previousOwner",
          "type": "address"
        },
        {
          "indexed": true,
          "internalType": "address",
          "name": "newOwner",
          "type": "address"
        }
      ],
      "name": "OwnershipTransferred",
      "type": "event"
    },
    {
      "anonymous": false,
      "inputs": [
        {
          "indexed": true,
          "internalType": "address",
          "name": "from",
          "type": "address"
        },
        {
          "indexed": true,
          "internalType": "address",
          "name": "to",
          "type": "address"
        },
        {
          "indexed": true,
          "internalType": "uint256",
          "name": "tokenId",
          "type": "uint256"
        }
      ],
      "name": "Transfer",
      "type": "event"
    },
    {
      "inputs": [
        {
          "internalType": "uint256",
          "name": "",
          "type": "uint256"
        }
      ],
      "name": "allpuppers",
      "outputs": [
        {
          "internalType": "uint256",
          "name": "_pupperId",
          "type": "uint256"
        },
        {
          "internalType": "string",
          "name": "_pupperName",
          "type": "string"
        },
        {
          "internalType": "string",
          "name": "_breed",
          "type": "string"
        },
        {
          "internalType": "string",
          "name": "_sex",
          "type": "string"
        },
        {
          "internalType": "string",
          "name": "_genome",
          "type": "string"
        },
        {
          "internalType": "string",
          "name": "_genomeTestResultLink",
          "type": "string"
        },
        {
          "internalType": "string",
          "name": "_imageBase64",
          "type": "string"
        },
        {
          "internalType": "uint256",
          "name": "_salePrice",
          "type": "uint256"
        },
        {
          "internalType": "uint256",
          "name": "_breedingPrice",
          "type": "uint256"
        },
        {
          "internalType": "bool",
          "name": "_enableBreeding",
          "type": "bool"
        },
        {
          "internalType": "bool",
          "name": "_enableSale",
          "type": "bool"
        }
      ],
      "stateMutability": "view",
      "type": "function"
    },
    {
      "inputs": [
        {
          "internalType": "address",
          "name": "to",
          "type": "address"
        },
        {
          "internalType": "uint256",
          "name": "tokenId",
          "type": "uint256"
        }
      ],
      "name": "approve",
      "outputs": [],
      "stateMutability": "nonpayable",
      "type": "function"
    },
    {
      "inputs": [
        {
          "internalType": "address",
          "name": "owner",
          "type": "address"
        }
      ],
      "name": "balanceOf",
      "outputs": [
        {
          "internalType": "uint256",
          "name": "",
          "type": "uint256"
        }
      ],
      "stateMutability": "view",
      "type": "function"
    },
    {
      "inputs": [
        {
          "internalType": "string",
          "name": "pupperName",
          "type": "string"
        },
        {
          "internalType": "string",
          "name": "_breed",
          "type": "string"
        },
        {
          "internalType": "string",
          "name": "sex",
          "type": "string"
        },
        {
          "internalType": "string",
          "name": "genome",
          "type": "string"
        },
        {
          "internalType": "string",
          "name": "genomeLink",
          "type": "string"
        },
        {
          "internalType": "string",
          "name": "base64",
          "type": "string"
        }
      ],
      "name": "createPupper",
      "outputs": [],
      "stateMutability": "nonpayable",
      "type": "function"
    },
    {
      "inputs": [
        {
          "internalType": "uint256",
          "name": "_tokenId",
          "type": "uint256"
        }
      ],
      "name": "disableBreeding",
      "outputs": [],
      "stateMutability": "nonpayable",
      "type": "function"
    },
    {
      "inputs": [
        {
          "internalType": "uint256",
          "name": "_tokenId",
          "type": "uint256"
        }
      ],
      "name": "disableSale",
      "outputs": [],
      "stateMutability": "nonpayable",
      "type": "function"
    },
    {
      "inputs": [
        {
          "internalType": "uint256",
          "name": "_tokenId",
          "type": "uint256"
        },
        {
          "internalType": "uint256",
          "name": "_breedingPrice",
          "type": "uint256"
        }
      ],
      "name": "enableBreeding",
      "outputs": [],
      "stateMutability": "nonpayable",
      "type": "function"
    },
    {
      "inputs": [
        {
          "internalType": "uint256",
          "name": "_tokenId",
          "type": "uint256"
        },
        {
          "internalType": "uint256",
          "name": "_salePrice",
          "type": "uint256"
        }
      ],
      "name": "enableSale",
      "outputs": [],
      "stateMutability": "nonpayable",
      "type": "function"
    },
    {
      "inputs": [
        {
          "internalType": "uint256",
          "name": "",
          "type": "uint256"
        }
      ],
      "name": "escrows",
      "outputs": [
        {
          "internalType": "uint256",
          "name": "_amount",
          "type": "uint256"
        },
        {
          "internalType": "address",
          "name": "_sender",
          "type": "address"
        },
        {
          "internalType": "address",
          "name": "_receiver",
          "type": "address"
        },
        {
          "internalType": "string",
          "name": "_type",
          "type": "string"
        },
        {
          "internalType": "bool",
          "name": "_senderApproval",
          "type": "bool"
        },
        {
          "internalType": "bool",
          "name": "_receiverApproval",
          "type": "bool"
        },
        {
          "internalType": "bool",
          "name": "_processed",
          "type": "bool"
        }
      ],
      "stateMutability": "view",
      "type": "function"
    },
    {
      "inputs": [
        {
          "internalType": "string",
          "name": "",
          "type": "string"
        }
      ],
      "name": "genomes",
      "outputs": [
        {
          "internalType": "bool",
          "name": "",
          "type": "bool"
        }
      ],
      "stateMutability": "view",
      "type": "function"
    },
    {
      "inputs": [
        {
          "internalType": "uint256",
          "name": "tokenId",
          "type": "uint256"
        }
      ],
      "name": "getApproved",
      "outputs": [
        {
          "internalType": "address",
          "name": "",
          "type": "address"
        }
      ],
      "stateMutability": "view",
      "type": "function"
    },
    {
      "inputs": [
        {
          "internalType": "address",
          "name": "owner",
          "type": "address"
        },
        {
          "internalType": "address",
          "name": "operator",
          "type": "address"
        }
      ],
      "name": "isApprovedForAll",
      "outputs": [
        {
          "internalType": "bool",
          "name": "",
          "type": "bool"
        }
      ],
      "stateMutability": "view",
      "type": "function"
    },
    {
      "inputs": [],
      "name": "name",
      "outputs": [
        {
          "internalType": "string",
          "name": "",
          "type": "string"
        }
      ],
      "stateMutability": "view",
      "type": "function"
    },
    {
      "inputs": [],
      "name": "owner",
      "outputs": [
        {
          "internalType": "address",
          "name": "",
          "type": "address"
        }
      ],
      "stateMutability": "view",
      "type": "function"
    },
    {
      "inputs": [
        {
          "internalType": "uint256",
          "name": "tokenId",
          "type": "uint256"
        }
      ],
      "name": "ownerOf",
      "outputs": [
        {
          "internalType": "address",
          "name": "",
          "type": "address"
        }
      ],
      "stateMutability": "view",
      "type": "function"
    },
    {
      "inputs": [
        {
          "internalType": "address",
          "name": "",
          "type": "address"
        },
        {
          "internalType": "uint256",
          "name": "",
          "type": "uint256"
        }
      ],
      "name": "puppers",
      "outputs": [
        {
          "internalType": "uint256",
          "name": "_pupperId",
          "type": "uint256"
        },
        {
          "internalType": "string",
          "name": "_pupperName",
          "type": "string"
        },
        {
          "internalType": "string",
          "name": "_breed",
          "type": "string"
        },
        {
          "internalType": "string",
          "name": "_sex",
          "type": "string"
        },
        {
          "internalType": "string",
          "name": "_genome",
          "type": "string"
        },
        {
          "internalType": "string",
          "name": "_genomeTestResultLink",
          "type": "string"
        },
        {
          "internalType": "string",
          "name": "_imageBase64",
          "type": "string"
        },
        {
          "internalType": "uint256",
          "name": "_salePrice",
          "type": "uint256"
        },
        {
          "internalType": "uint256",
          "name": "_breedingPrice",
          "type": "uint256"
        },
        {
          "internalType": "bool",
          "name": "_enableBreeding",
          "type": "bool"
        },
        {
          "internalType": "bool",
          "name": "_enableSale",
          "type": "bool"
        }
      ],
      "stateMutability": "view",
      "type": "function"
    },
    {
      "inputs": [],
      "name": "renounceOwnership",
      "outputs": [],
      "stateMutability": "nonpayable",
      "type": "function"
    },
    {
      "inputs": [
        {
          "internalType": "address",
          "name": "from",
          "type": "address"
        },
        {
          "internalType": "address",
          "name": "to",
          "type": "address"
        },
        {
          "internalType": "uint256",
          "name": "tokenId",
          "type": "uint256"
        }
      ],
      "name": "safeTransferFrom",
      "outputs": [],
      "stateMutability": "nonpayable",
      "type": "function"
    },
    {
      "inputs": [
        {
          "internalType": "address",
          "name": "from",
          "type": "address"
        },
        {
          "internalType": "address",
          "name": "to",
          "type": "address"
        },
        {
          "internalType": "uint256",
          "name": "tokenId",
          "type": "uint256"
        },
        {
          "internalType": "bytes",
          "name": "_data",
          "type": "bytes"
        }
      ],
      "name": "safeTransferFrom",
      "outputs": [],
      "stateMutability": "nonpayable",
      "type": "function"
    },
    {
      "inputs": [
        {
          "internalType": "address",
          "name": "operator",
          "type": "address"
        },
        {
          "internalType": "bool",
          "name": "approved",
          "type": "bool"
        }
      ],
      "name": "setApprovalForAll",
      "outputs": [],
      "stateMutability": "nonpayable",
      "type": "function"
    },
    {
      "inputs": [
        {
          "internalType": "bytes4",
          "name": "interfaceId",
          "type": "bytes4"
        }
      ],
      "name": "supportsInterface",
      "outputs": [
        {
          "internalType": "bool",
          "name": "",
          "type": "bool"
        }
      ],
      "stateMutability": "view",
      "type": "function"
    },
    {
      "inputs": [],
      "name": "symbol",
      "outputs": [
        {
          "internalType": "string",
          "name": "",
          "type": "string"
        }
      ],
      "stateMutability": "view",
      "type": "function"
    },
    {
      "inputs": [
        {
          "internalType": "uint256",
          "name": "tokenId",
          "type": "uint256"
        }
      ],
      "name": "tokenURI",
      "outputs": [
        {
          "internalType": "string",
          "name": "",
          "type": "string"
        }
      ],
      "stateMutability": "view",
      "type": "function"
    },
    {
      "inputs": [
        {
          "internalType": "address",
          "name": "from",
          "type": "address"
        },
        {
          "internalType": "address",
          "name": "to",
          "type": "address"
        },
        {
          "internalType": "uint256",
          "name": "tokenId",
          "type": "uint256"
        }
      ],
      "name": "transferFrom",
      "outputs": [],
      "stateMutability": "nonpayable",
      "type": "function"
    },
    {
      "inputs": [
        {
          "internalType": "address",
          "name": "newOwner",
          "type": "address"
        }
      ],
      "name": "transferOwnership",
      "outputs": [],
      "stateMutability": "nonpayable",
      "type": "function"
    },
    {
      "inputs": [
        {
          "internalType": "uint256",
          "name": "_tokenId",
          "type": "uint256"
        },
        {
          "internalType": "address",
          "name": "newOwner",
          "type": "address"
        }
      ],
      "name": "transferPupper",
      "outputs": [],
      "stateMutability": "nonpayable",
      "type": "function"
    },
    {
      "inputs": [
        {
          "internalType": "uint256",
          "name": "_tokenId",
          "type": "uint256"
        }
      ],
      "name": "buy",
      "outputs": [],
      "stateMutability": "payable",
      "type": "function"
    },
    {
      "inputs": [
        {
          "internalType": "uint256",
          "name": "_tokenId",
          "type": "uint256"
        }
      ],
      "name": "breed",
      "outputs": [],
      "stateMutability": "payable",
      "type": "function"
    },
    {
      "inputs": [
        {
          "internalType": "uint256",
          "name": "_tokenId",
          "type": "uint256"
        }
      ],
      "name": "approveTransaction",
      "outputs": [],
      "stateMutability": "nonpayable",
      "type": "function"
    },
    {
      "inputs": [
        {
          "internalType": "uint256",
          "name": "_tokenId",
          "type": "uint256"
        }
      ],
      "name": "processEscrow",
      "outputs": [],
      "stateMutability": "nonpayable",
      "type": "function"
    },
    {
      "inputs": [
        {
          "internalType": "uint256",
          "name": "_tokenId",
          "type": "uint256"
        }
      ],
      "name": "refundEscrow",
      "outputs": [],
      "stateMutability": "nonpayable",
      "type": "function"
    },
    {
      "inputs": [
        {
          "internalType": "address",
          "name": "_address",
          "type": "address"
        }
      ],
      "name": "setNewContractAddress",
      "outputs": [],
      "stateMutability": "nonpayable",
      "type": "function"
    },
    {
      "inputs": [
        {
          "internalType": "uint256",
          "name": "_devFee",
          "type": "uint256"
        }
      ],
      "name": "setDevFee",
      "outputs": [],
      "stateMutability": "nonpayable",
      "type": "function"
    },
    {
      "inputs": [],
      "name": "withdrawDevCommission",
      "outputs": [],
      "stateMutability": "nonpayable",
      "type": "function"
    }
  ],
  "bytecode": "0x60806040526000600a553480156200001657600080fd5b506040518060400160405280600681526020017f50757070657200000000000000000000000000000000000000000000000000008152506040518060400160405280600381526020017f505550000000000000000000000000000000000000000000000000000000000081525081600090805190602001906200009b929190620001ab565b508060019080519060200190620000b4929190620001ab565b505050620000d7620000cb620000dd60201b60201c565b620000e560201b60201c565b620002bf565b600033905090565b6000600660009054906101000a900473ffffffffffffffffffffffffffffffffffffffff16905081600660006101000a81548173ffffffffffffffffffffffffffffffffffffffff021916908373ffffffffffffffffffffffffffffffffffffffff1602179055508173ffffffffffffffffffffffffffffffffffffffff168173ffffffffffffffffffffffffffffffffffffffff167f8be0079c531659141344cd1fd0a4f28419497f9722a3daafe3b4186f6b6457e060405160405180910390a35050565b828054620001b9906200028a565b90600052602060002090601f016020900481019282620001dd576000855562000229565b82601f10620001f857805160ff191683800117855562000229565b8280016001018555821562000229579182015b82811115620002285782518255916020019190600101906200020b565b5b5090506200023891906200023c565b5090565b5b80821115620002575760008160009055506001016200023d565b5090565b7f4e487b7100000000000000000000000000000000000000000000000000000000600052602260045260246000fd5b60006002820490506001821680620002a357607f821691505b602082108103620002b957620002b86200025b565b5b50919050565b61626e80620002cf6000396000f3fe6080604052600436106101f95760003560e01c80638da5cb5b1161010d578063c2b8981b116100a0578063e36662e41161006f578063e36662e414610739578063e985e9c514610762578063eba5051a1461079f578063f2fde38b146107c8578063f3022de8146107f1576101f9565b8063c2b8981b1461065c578063c87b56dd146106a3578063cdd0a6f0146106e0578063d96a094a1461071d576101f9565b8063a22cb465116100dc578063a22cb465146105a7578063af9a1cd2146105d0578063b36196e4146105ec578063b88d4fde14610633576101f9565b80638da5cb5b146104ff57806390b770301461052a57806395d89b41146105535780639a1d3e421461057e576101f9565b8063242232d1116101905780636352211e1161015f5780636352211e1461042e5780636940e3381461046b578063699333aa1461049457806370a08231146104ab578063715018a6146104e8576101f9565b8063242232d11461038a578063356f9dfd146103b357806342842e0e146103dc5780635da4879b14610405576101f9565b8063095ea7b3116101cc578063095ea7b3146102e657806312fed7e11461030f5780631c75b6b21461033857806323b872dd14610361576101f9565b8063012f52ee146101fe57806301ffc9a71461024157806306fdde031461027e578063081812fc146102a9575b600080fd5b34801561020a57600080fd5b50610225600480360381019061022091906147bb565b61081a565b60405161023897969594939291906148ec565b60405180910390f35b34801561024d57600080fd5b50610268600480360381019061026391906149ba565b61094b565b60405161027591906149e7565b60405180910390f35b34801561028a57600080fd5b50610293610a2d565b6040516102a09190614a02565b60405180910390f35b3480156102b557600080fd5b506102d060048036038101906102cb91906147bb565b610abf565b6040516102dd9190614a24565b60405180910390f35b3480156102f257600080fd5b5061030d60048036038101906103089190614a6b565b610b44565b005b34801561031b57600080fd5b50610336600480360381019061033191906147bb565b610c5b565b005b34801561034457600080fd5b5061035f600480360381019061035a91906147bb565b610e6a565b005b34801561036d57600080fd5b5061038860048036038101906103839190614aab565b610f10565b005b34801561039657600080fd5b506103b160048036038101906103ac91906147bb565b610f70565b005b3480156103bf57600080fd5b506103da60048036038101906103d591906147bb565b61114e565b005b3480156103e857600080fd5b5061040360048036038101906103fe9190614aab565b6112c3565b005b34801561041157600080fd5b5061042c60048036038101906104279190614afe565b6112e3565b005b34801561043a57600080fd5b50610455600480360381019061045091906147bb565b611522565b6040516104629190614a24565b60405180910390f35b34801561047757600080fd5b50610492600480360381019061048d91906147bb565b6115d3565b005b3480156104a057600080fd5b506104a96118ff565b005b3480156104b757600080fd5b506104d260048036038101906104cd9190614b3e565b6119de565b6040516104df9190614b6b565b60405180910390f35b3480156104f457600080fd5b506104fd611a95565b005b34801561050b57600080fd5b50610514611b1d565b6040516105219190614a24565b60405180910390f35b34801561053657600080fd5b50610551600480360381019061054c9190614afe565b611b47565b005b34801561055f57600080fd5b50610568611d86565b6040516105759190614a02565b60405180910390f35b34801561058a57600080fd5b506105a560048036038101906105a091906147bb565b611e18565b005b3480156105b357600080fd5b506105ce60048036038101906105c99190614bb2565b612027565b005b6105ea60048036038101906105e591906147bb565b61203d565b005b3480156105f857600080fd5b50610613600480360381019061060e9190614a6b565b6122ae565b60405161062a9b9a99989796959493929190614bf2565b60405180910390f35b34801561063f57600080fd5b5061065a60048036038101906106559190614dfc565b61266f565b005b34801561066857600080fd5b50610683600480360381019061067e91906147bb565b6126d1565b60405161069a9b9a99989796959493929190614bf2565b60405180910390f35b3480156106af57600080fd5b506106ca60048036038101906106c591906147bb565b612a75565b6040516106d79190614a02565b60405180910390f35b3480156106ec57600080fd5b5061070760048036038101906107029190614f20565b612b1c565b60405161071491906149e7565b60405180910390f35b610737600480360381019061073291906147bb565b612b52565b005b34801561074557600080fd5b50610760600480360381019061075b9190614f69565b612dc3565b005b34801561076e57600080fd5b5061078960048036038101906107849190614fa9565b6131a6565b60405161079691906149e7565b60405180910390f35b3480156107ab57600080fd5b506107c660048036038101906107c19190614fe9565b61323a565b005b3480156107d457600080fd5b506107ef60048036038101906107ea9190614b3e565b61367d565b005b3480156107fd57600080fd5b5061081860048036038101906108139190614b3e565b613774565b005b600b6020528060005260406000206000915090508060000154908060010160009054906101000a900473ffffffffffffffffffffffffffffffffffffffff16908060020160009054906101000a900473ffffffffffffffffffffffffffffffffffffffff169080600301805461088f9061514d565b80601f01602080910402602001604051908101604052809291908181526020018280546108bb9061514d565b80156109085780601f106108dd57610100808354040283529160200191610908565b820191906000526020600020905b8154815290600101906020018083116108eb57829003601f168201915b5050505050908060040160009054906101000a900460ff16908060040160019054906101000a900460ff16908060040160029054906101000a900460ff16905087565b60007f80ac58cd000000000000000000000000000000000000000000000000000000007bffffffffffffffffffffffffffffffffffffffffffffffffffffffff1916827bffffffffffffffffffffffffffffffffffffffffffffffffffffffff19161480610a1657507f5b5e139f000000000000000000000000000000000000000000000000000000007bffffffffffffffffffffffffffffffffffffffffffffffffffffffff1916827bffffffffffffffffffffffffffffffffffffffffffffffffffffffff1916145b80610a265750610a2582613834565b5b9050919050565b606060008054610a3c9061514d565b80601f0160208091040260200160405190810160405280929190818152602001828054610a689061514d565b8015610ab55780601f10610a8a57610100808354040283529160200191610ab5565b820191906000526020600020905b815481529060010190602001808311610a9857829003601f168201915b5050505050905090565b6000610aca8261389e565b610b09576040517f08c379a0000000000000000000000000000000000000000000000000000000008152600401610b00906151f0565b60405180910390fd5b6004600083815260200190815260200160002060009054906101000a900473ffffffffffffffffffffffffffffffffffffffff169050919050565b6000610b4f82611522565b90508073ffffffffffffffffffffffffffffffffffffffff168373ffffffffffffffffffffffffffffffffffffffff1603610bbf576040517f08c379a0000000000000000000000000000000000000000000000000000000008152600401610bb690615282565b60405180910390fd5b8073ffffffffffffffffffffffffffffffffffffffff16610bde61390a565b73ffffffffffffffffffffffffffffffffffffffff161480610c0d5750610c0c81610c0761390a565b6131a6565b5b610c4c576040517f08c379a0000000000000000000000000000000000000000000000000000000008152600401610c4390615314565b60405180910390fd5b610c568383613912565b505050565b3373ffffffffffffffffffffffffffffffffffffffff16610c7b82611522565b73ffffffffffffffffffffffffffffffffffffffff1614610cd1576040517f08c379a0000000000000000000000000000000000000000000000000000000008152600401610cc8906153a6565b60405180910390fd5b6000600b60008381526020019081526020016000206000015414610d2a576040517f08c379a0000000000000000000000000000000000000000000000000000000008152600401610d2190615412565b60405180910390fd5b6000610d3682336139cb565b90506000600c60003373ffffffffffffffffffffffffffffffffffffffff1673ffffffffffffffffffffffffffffffffffffffff1681526020019081526020016000208281548110610d8b57610d8a615432565b5b90600052602060002090600a020160090160006101000a81548160ff0219169083151502179055506000600c60003373ffffffffffffffffffffffffffffffffffffffff1673ffffffffffffffffffffffffffffffffffffffff1681526020019081526020016000208281548110610e0657610e05615432565b5b90600052602060002090600a0201600801819055506000600d600084815260200190815260200160002060090160006101000a81548160ff0219169083151502179055506000600d6000848152602001908152602001600020600801819055505050565b610e7261390a565b73ffffffffffffffffffffffffffffffffffffffff16610e90611b1d565b73ffffffffffffffffffffffffffffffffffffffff1614610ee6576040517f08c379a0000000000000000000000000000000000000000000000000000000008152600401610edd906154ad565b60405180910390fd5b60001515600660149054906101000a900460ff16151514610f0657600080fd5b8060088190555050565b610f21610f1b61390a565b82613ab2565b610f60576040517f08c379a0000000000000000000000000000000000000000000000000000000008152600401610f579061553f565b60405180910390fd5b610f6b838383613b90565b505050565b600b600082815260200190815260200160002060010160009054906101000a900473ffffffffffffffffffffffffffffffffffffffff1673ffffffffffffffffffffffffffffffffffffffff163373ffffffffffffffffffffffffffffffffffffffff1614806110415750600b600082815260200190815260200160002060020160009054906101000a900473ffffffffffffffffffffffffffffffffffffffff1673ffffffffffffffffffffffffffffffffffffffff163373ffffffffffffffffffffffffffffffffffffffff16145b61104a57600080fd5b60001515600b600083815260200190815260200160002060040160029054906101000a900460ff1615151461107e57600080fd5b600b600082815260200190815260200160002060010160009054906101000a900473ffffffffffffffffffffffffffffffffffffffff1673ffffffffffffffffffffffffffffffffffffffff163373ffffffffffffffffffffffffffffffffffffffff160361111b576001600b600083815260200190815260200160002060040160006101000a81548160ff02191690831515021790555061114b565b6001600b600083815260200190815260200160002060040160016101000a81548160ff0219169083151502179055505b50565b60001515600b600083815260200190815260200160002060040160009054906101000a900460ff1615151480156111ac575060001515600b600083815260200190815260200160002060040160019054906101000a900460ff161515145b80156111df575060001515600b600083815260200190815260200160002060040160029054906101000a900460ff161515145b6111e857600080fd5b6000600b600083815260200190815260200160002060010160009054906101000a900473ffffffffffffffffffffffffffffffffffffffff1690508073ffffffffffffffffffffffffffffffffffffffff166108fc600b6000858152602001908152602001600020600001549081150290604051600060405180830381858888f19350505050156112bf576000600b6000848152602001908152602001600020600001819055506001600b600084815260200190815260200160002060040160026101000a81548160ff0219169083151502179055505b5050565b6112de8383836040518060200160405280600081525061266f565b505050565b60001515600660149054906101000a900460ff1615151461130357600080fd5b3373ffffffffffffffffffffffffffffffffffffffff1661132383611522565b73ffffffffffffffffffffffffffffffffffffffff1614611379576040517f08c379a0000000000000000000000000000000000000000000000000000000008152600401611370906155d1565b60405180910390fd5b60001515600d600084815260200190815260200160002060090160009054906101000a900460ff161515146113e3576040517f08c379a00000000000000000000000000000000000000000000000000000000081526004016113da90615663565b60405180910390fd5b60006113ef83336139cb565b90506001600c60003373ffffffffffffffffffffffffffffffffffffffff1673ffffffffffffffffffffffffffffffffffffffff168152602001908152602001600020828154811061144457611443615432565b5b90600052602060002090600a020160090160016101000a81548160ff02191690831515021790555081600c60003373ffffffffffffffffffffffffffffffffffffffff1673ffffffffffffffffffffffffffffffffffffffff16815260200190815260200160002082815481106114be576114bd615432565b5b90600052602060002090600a0201600701819055506001600d600085815260200190815260200160002060090160016101000a81548160ff02191690831515021790555081600d600085815260200190815260200160002060070181905550505050565b6000806002600084815260200190815260200160002060009054906101000a900473ffffffffffffffffffffffffffffffffffffffff169050600073ffffffffffffffffffffffffffffffffffffffff168173ffffffffffffffffffffffffffffffffffffffff16036115ca576040517f08c379a00000000000000000000000000000000000000000000000000000000081526004016115c1906156f5565b60405180910390fd5b80915050919050565b6115dc81611522565b73ffffffffffffffffffffffffffffffffffffffff163373ffffffffffffffffffffffffffffffffffffffff161461161357600080fd5b60011515600b600083815260200190815260200160002060040160009054906101000a900460ff161515148015611671575060011515600b600083815260200190815260200160002060040160019054906101000a900460ff161515145b80156116a4575060001515600b600083815260200190815260200160002060040160029054906101000a900460ff161515145b6116ad57600080fd5b6000600b600083815260200190815260200160002060020160009054906101000a900473ffffffffffffffffffffffffffffffffffffffff16905060006103e86008546116fa9190615773565b600b60008581526020019081526020016000206000015461171b91906157a4565b9050600081600b60008681526020019081526020016000206000015461174191906157fe565b90508273ffffffffffffffffffffffffffffffffffffffff166108fc829081150290604051600060405180830381858888f19350505050156118f9576040518060400160405280600481526020017f53414c450000000000000000000000000000000000000000000000000000000081525080519060200120600b60008681526020019081526020016000206003016040516117dd91906158d1565b6040518091039020036118935761182a84600b600087815260200190815260200160002060010160009054906101000a900473ffffffffffffffffffffffffffffffffffffffff16612dc3565b6000600b6000868152602001908152602001600020600001819055506001600b600086815260200190815260200160002060040160026101000a81548160ff021916908315150217905550816009600082825461188791906158e8565b925050819055506118f8565b6000600b6000868152602001908152602001600020600001819055506001600b600086815260200190815260200160002060040160026101000a81548160ff02191690831515021790555081600960008282546118f091906158e8565b925050819055505b5b50505050565b61190761390a565b73ffffffffffffffffffffffffffffffffffffffff16611925611b1d565b73ffffffffffffffffffffffffffffffffffffffff161461197b576040517f08c379a0000000000000000000000000000000000000000000000000000000008152600401611972906154ad565b60405180910390fd5b6000611985611b1d565b905060006009541161199657600080fd5b8073ffffffffffffffffffffffffffffffffffffffff166108fc6009549081150290604051600060405180830381858888f19350505050156119db5760006009819055505b50565b60008073ffffffffffffffffffffffffffffffffffffffff168273ffffffffffffffffffffffffffffffffffffffff1603611a4e576040517f08c379a0000000000000000000000000000000000000000000000000000000008152600401611a45906159b0565b60405180910390fd5b600360008373ffffffffffffffffffffffffffffffffffffffff1673ffffffffffffffffffffffffffffffffffffffff168152602001908152602001600020549050919050565b611a9d61390a565b73ffffffffffffffffffffffffffffffffffffffff16611abb611b1d565b73ffffffffffffffffffffffffffffffffffffffff1614611b11576040517f08c379a0000000000000000000000000000000000000000000000000000000008152600401611b08906154ad565b60405180910390fd5b611b1b6000613df6565b565b6000600660009054906101000a900473ffffffffffffffffffffffffffffffffffffffff16905090565b60001515600660149054906101000a900460ff16151514611b6757600080fd5b3373ffffffffffffffffffffffffffffffffffffffff16611b8783611522565b73ffffffffffffffffffffffffffffffffffffffff1614611bdd576040517f08c379a0000000000000000000000000000000000000000000000000000000008152600401611bd4906155d1565b60405180910390fd5b60001515600d600084815260200190815260200160002060090160019054906101000a900460ff16151514611c47576040517f08c379a0000000000000000000000000000000000000000000000000000000008152600401611c3e90615a42565b60405180910390fd5b6000611c5383336139cb565b90506001600c60003373ffffffffffffffffffffffffffffffffffffffff1673ffffffffffffffffffffffffffffffffffffffff1681526020019081526020016000208281548110611ca857611ca7615432565b5b90600052602060002090600a020160090160006101000a81548160ff02191690831515021790555081600c60003373ffffffffffffffffffffffffffffffffffffffff1673ffffffffffffffffffffffffffffffffffffffff1681526020019081526020016000208281548110611d2257611d21615432565b5b90600052602060002090600a0201600801819055506001600d600085815260200190815260200160002060090160006101000a81548160ff02191690831515021790555081600d600085815260200190815260200160002060080181905550505050565b606060018054611d959061514d565b80601f0160208091040260200160405190810160405280929190818152602001828054611dc19061514d565b8015611e0e5780601f10611de357610100808354040283529160200191611e0e565b820191906000526020600020905b815481529060010190602001808311611df157829003601f168201915b5050505050905090565b3373ffffffffffffffffffffffffffffffffffffffff16611e3882611522565b73ffffffffffffffffffffffffffffffffffffffff1614611e8e576040517f08c379a0000000000000000000000000000000000000000000000000000000008152600401611e85906153a6565b60405180910390fd5b6000600b60008381526020019081526020016000206000015414611ee7576040517f08c379a0000000000000000000000000000000000000000000000000000000008152600401611ede90615412565b60405180910390fd5b6000611ef382336139cb565b90506000600c60003373ffffffffffffffffffffffffffffffffffffffff1673ffffffffffffffffffffffffffffffffffffffff1681526020019081526020016000208281548110611f4857611f47615432565b5b90600052602060002090600a020160090160016101000a81548160ff0219169083151502179055506000600c60003373ffffffffffffffffffffffffffffffffffffffff1673ffffffffffffffffffffffffffffffffffffffff1681526020019081526020016000208281548110611fc357611fc2615432565b5b90600052602060002090600a0201600701819055506000600d600084815260200190815260200160002060090160016101000a81548160ff0219169083151502179055506000600d6000848152602001908152602001600020600701819055505050565b61203961203261390a565b8383613ebc565b5050565b60001515600660149054906101000a900460ff1615151461205d57600080fd5b60011515600d600083815260200190815260200160002060090160009054906101000a900460ff1615151461209157600080fd5b600d6000828152602001908152602001600020600801543410156120b457600080fd5b60001515600d600083815260200190815260200160002060090160009054906101000a905050506040518060e001604052803481526020013373ffffffffffffffffffffffffffffffffffffffff16815260200161211183611522565b73ffffffffffffffffffffffffffffffffffffffff1681526020016040518060400160405280600881526020017f4252454544494e47000000000000000000000000000000000000000000000000815250815260200160001515815260200160001515815260200160001515815250600b60008381526020019081526020016000206000820151816000015560208201518160010160006101000a81548173ffffffffffffffffffffffffffffffffffffffff021916908373ffffffffffffffffffffffffffffffffffffffff16021790555060408201518160020160006101000a81548173ffffffffffffffffffffffffffffffffffffffff021916908373ffffffffffffffffffffffffffffffffffffffff1602179055506060820151816003019080519060200190612247929190614601565b5060808201518160040160006101000a81548160ff02191690831515021790555060a08201518160040160016101000a81548160ff02191690831515021790555060c08201518160040160026101000a81548160ff02191690831515021790555090505050565b600c60205281600052604060002081815481106122ca57600080fd5b90600052602060002090600a0201600091509150508060000154908060010180546122f49061514d565b80601f01602080910402602001604051908101604052809291908181526020018280546123209061514d565b801561236d5780601f106123425761010080835404028352916020019161236d565b820191906000526020600020905b81548152906001019060200180831161235057829003601f168201915b5050505050908060020180546123829061514d565b80601f01602080910402602001604051908101604052809291908181526020018280546123ae9061514d565b80156123fb5780601f106123d0576101008083540402835291602001916123fb565b820191906000526020600020905b8154815290600101906020018083116123de57829003601f168201915b5050505050908060030180546124109061514d565b80601f016020809104026020016040519081016040528092919081815260200182805461243c9061514d565b80156124895780601f1061245e57610100808354040283529160200191612489565b820191906000526020600020905b81548152906001019060200180831161246c57829003601f168201915b50505050509080600401805461249e9061514d565b80601f01602080910402602001604051908101604052809291908181526020018280546124ca9061514d565b80156125175780601f106124ec57610100808354040283529160200191612517565b820191906000526020600020905b8154815290600101906020018083116124fa57829003601f168201915b50505050509080600501805461252c9061514d565b80601f01602080910402602001604051908101604052809291908181526020018280546125589061514d565b80156125a55780601f1061257a576101008083540402835291602001916125a5565b820191906000526020600020905b81548152906001019060200180831161258857829003601f168201915b5050505050908060060180546125ba9061514d565b80601f01602080910402602001604051908101604052809291908181526020018280546125e69061514d565b80156126335780601f1061260857610100808354040283529160200191612633565b820191906000526020600020905b81548152906001019060200180831161261657829003601f168201915b5050505050908060070154908060080154908060090160009054906101000a900460ff16908060090160019054906101000a900460ff1690508b565b61268061267a61390a565b83613ab2565b6126bf576040517f08c379a00000000000000000000000000000000000000000000000000000000081526004016126b69061553f565b60405180910390fd5b6126cb84848484614028565b50505050565b600d6020528060005260406000206000915090508060000154908060010180546126fa9061514d565b80601f01602080910402602001604051908101604052809291908181526020018280546127269061514d565b80156127735780601f1061274857610100808354040283529160200191612773565b820191906000526020600020905b81548152906001019060200180831161275657829003601f168201915b5050505050908060020180546127889061514d565b80601f01602080910402602001604051908101604052809291908181526020018280546127b49061514d565b80156128015780601f106127d657610100808354040283529160200191612801565b820191906000526020600020905b8154815290600101906020018083116127e457829003601f168201915b5050505050908060030180546128169061514d565b80601f01602080910402602001604051908101604052809291908181526020018280546128429061514d565b801561288f5780601f106128645761010080835404028352916020019161288f565b820191906000526020600020905b81548152906001019060200180831161287257829003601f168201915b5050505050908060040180546128a49061514d565b80601f01602080910402602001604051908101604052809291908181526020018280546128d09061514d565b801561291d5780601f106128f25761010080835404028352916020019161291d565b820191906000526020600020905b81548152906001019060200180831161290057829003601f168201915b5050505050908060050180546129329061514d565b80601f016020809104026020016040519081016040528092919081815260200182805461295e9061514d565b80156129ab5780601f10612980576101008083540402835291602001916129ab565b820191906000526020600020905b81548152906001019060200180831161298e57829003601f168201915b5050505050908060060180546129c09061514d565b80601f01602080910402602001604051908101604052809291908181526020018280546129ec9061514d565b8015612a395780601f10612a0e57610100808354040283529160200191612a39565b820191906000526020600020905b815481529060010190602001808311612a1c57829003601f168201915b5050505050908060070154908060080154908060090160009054906101000a900460ff16908060090160019054906101000a900460ff1690508b565b6060612a808261389e565b612abf576040517f08c379a0000000000000000000000000000000000000000000000000000000008152600401612ab690615ad4565b60405180910390fd5b6000612ac9614084565b90506000815111612ae95760405180602001604052806000815250612b14565b80612af38461409b565b604051602001612b04929190615b30565b6040516020818303038152906040525b915050919050565b600e818051602081018201805184825260208301602085012081835280955050505050506000915054906101000a900460ff1681565b60001515600660149054906101000a900460ff16151514612b7257600080fd5b60011515600d600083815260200190815260200160002060090160019054906101000a900460ff16151514612ba657600080fd5b600d600082815260200190815260200160002060070154341015612bc957600080fd5b60001515600d600083815260200190815260200160002060090160019054906101000a905050506040518060e001604052803481526020013373ffffffffffffffffffffffffffffffffffffffff168152602001612c2683611522565b73ffffffffffffffffffffffffffffffffffffffff1681526020016040518060400160405280600481526020017f53414c4500000000000000000000000000000000000000000000000000000000815250815260200160001515815260200160001515815260200160001515815250600b60008381526020019081526020016000206000820151816000015560208201518160010160006101000a81548173ffffffffffffffffffffffffffffffffffffffff021916908373ffffffffffffffffffffffffffffffffffffffff16021790555060408201518160020160006101000a81548173ffffffffffffffffffffffffffffffffffffffff021916908373ffffffffffffffffffffffffffffffffffffffff1602179055506060820151816003019080519060200190612d5c929190614601565b5060808201518160040160006101000a81548160ff02191690831515021790555060a08201518160040160016101000a81548160ff02191690831515021790555060c08201518160040160026101000a81548160ff02191690831515021790555090505050565b3373ffffffffffffffffffffffffffffffffffffffff16612de383611522565b73ffffffffffffffffffffffffffffffffffffffff1614612e39576040517f08c379a0000000000000000000000000000000000000000000000000000000008152600401612e3090615bc6565b60405180910390fd5b612e443382846112c3565b6000612e5083336139cb565b9050600c60003373ffffffffffffffffffffffffffffffffffffffff1673ffffffffffffffffffffffffffffffffffffffff1681526020019081526020016000206001600c60003373ffffffffffffffffffffffffffffffffffffffff1673ffffffffffffffffffffffffffffffffffffffff16815260200190815260200160002080549050612ee091906157fe565b81548110612ef157612ef0615432565b5b90600052602060002090600a0201600c60003373ffffffffffffffffffffffffffffffffffffffff1673ffffffffffffffffffffffffffffffffffffffff1681526020019081526020016000208281548110612f5057612f4f615432565b5b90600052602060002090600a0201600082015481600001556001820181600101908054612f7c9061514d565b612f87929190614687565b506002820181600201908054612f9c9061514d565b612fa7929190614687565b506003820181600301908054612fbc9061514d565b612fc7929190614687565b506004820181600401908054612fdc9061514d565b612fe7929190614687565b506005820181600501908054612ffc9061514d565b613007929190614687565b50600682018160060190805461301c9061514d565b613027929190614687565b5060078201548160070155600882015481600801556009820160009054906101000a900460ff168160090160006101000a81548160ff0219169083151502179055506009820160019054906101000a900460ff168160090160016101000a81548160ff021916908315150217905550905050600c60003373ffffffffffffffffffffffffffffffffffffffff1673ffffffffffffffffffffffffffffffffffffffff1681526020019081526020016000208054806130e8576130e7615be6565b5b60019003818190600052602060002090600a02016000808201600090556001820160006131159190614714565b6002820160006131259190614714565b6003820160006131359190614714565b6004820160006131459190614714565b6005820160006131559190614714565b6006820160006131659190614714565b600782016000905560088201600090556009820160006101000a81549060ff02191690556009820160016101000a81549060ff021916905550509055505050565b6000600560008473ffffffffffffffffffffffffffffffffffffffff1673ffffffffffffffffffffffffffffffffffffffff16815260200190815260200160002060008373ffffffffffffffffffffffffffffffffffffffff1673ffffffffffffffffffffffffffffffffffffffff16815260200190815260200160002060009054906101000a900460ff16905092915050565b60001515600660149054906101000a900460ff1615151461325a57600080fd5b60001515600e8460405161326e9190615c15565b908152602001604051809103902060009054906101000a900460ff161515146132cc576040517f08c379a00000000000000000000000000000000000000000000000000000000081526004016132c390615c9e565b60405180910390fd5b6001600a60008282546132df91906158e8565b925050819055506132f233600a546141fb565b600c60003373ffffffffffffffffffffffffffffffffffffffff1673ffffffffffffffffffffffffffffffffffffffff168152602001908152602001600020604051806101600160405280600a54815260200188815260200187815260200186815260200185815260200184815260200183815260200160008152602001600081526020016000151581526020016000151581525090806001815401808255809150506001900390600052602060002090600a02016000909190919091506000820151816000015560208201518160010190805190602001906133d6929190614601565b5060408201518160020190805190602001906133f3929190614601565b506060820151816003019080519060200190613410929190614601565b50608082015181600401908051906020019061342d929190614601565b5060a082015181600501908051906020019061344a929190614601565b5060c0820151816006019080519060200190613467929190614601565b5060e0820151816007015561010082015181600801556101208201518160090160006101000a81548160ff0219169083151502179055506101408201518160090160016101000a81548160ff0219169083151502179055505050604051806101600160405280600a548152602001878152602001868152602001858152602001848152602001838152602001828152602001600081526020016000815260200160001515815260200160001515815250600d6000600a548152602001908152602001600020600082015181600001556020820151816001019080519060200190613552929190614601565b50604082015181600201908051906020019061356f929190614601565b50606082015181600301908051906020019061358c929190614601565b5060808201518160040190805190602001906135a9929190614601565b5060a08201518160050190805190602001906135c6929190614601565b5060c08201518160060190805190602001906135e3929190614601565b5060e0820151816007015561010082015181600801556101208201518160090160006101000a81548160ff0219169083151502179055506101408201518160090160016101000a81548160ff0219169083151502179055509050506001600e846040516136509190615c15565b908152602001604051809103902060006101000a81548160ff021916908315150217905550505050505050565b61368561390a565b73ffffffffffffffffffffffffffffffffffffffff166136a3611b1d565b73ffffffffffffffffffffffffffffffffffffffff16146136f9576040517f08c379a00000000000000000000000000000000000000000000000000000000081526004016136f0906154ad565b60405180910390fd5b600073ffffffffffffffffffffffffffffffffffffffff168173ffffffffffffffffffffffffffffffffffffffff1603613768576040517f08c379a000000000000000000000000000000000000000000000000000000000815260040161375f90615d30565b60405180910390fd5b61377181613df6565b50565b61377c61390a565b73ffffffffffffffffffffffffffffffffffffffff1661379a611b1d565b73ffffffffffffffffffffffffffffffffffffffff16146137f0576040517f08c379a00000000000000000000000000000000000000000000000000000000081526004016137e7906154ad565b60405180910390fd5b80600760006101000a81548173ffffffffffffffffffffffffffffffffffffffff021916908373ffffffffffffffffffffffffffffffffffffffff16021790555050565b60007f01ffc9a7000000000000000000000000000000000000000000000000000000007bffffffffffffffffffffffffffffffffffffffffffffffffffffffff1916827bffffffffffffffffffffffffffffffffffffffffffffffffffffffff1916149050919050565b60008073ffffffffffffffffffffffffffffffffffffffff166002600084815260200190815260200160002060009054906101000a900473ffffffffffffffffffffffffffffffffffffffff1673ffffffffffffffffffffffffffffffffffffffff1614159050919050565b600033905090565b816004600083815260200190815260200160002060006101000a81548173ffffffffffffffffffffffffffffffffffffffff021916908373ffffffffffffffffffffffffffffffffffffffff160217905550808273ffffffffffffffffffffffffffffffffffffffff1661398583611522565b73ffffffffffffffffffffffffffffffffffffffff167f8c5be1e5ebec7d5bd14f71427d1e84f3dd0314c0f7b2291e5b200ac8c7c3b92560405160405180910390a45050565b60008060005b6001600c60008673ffffffffffffffffffffffffffffffffffffffff1673ffffffffffffffffffffffffffffffffffffffff16815260200190815260200160002080549050613a2091906157fe565b811015613aa75784600c60008673ffffffffffffffffffffffffffffffffffffffff1673ffffffffffffffffffffffffffffffffffffffff1681526020019081526020016000208281548110613a7957613a78615432565b5b90600052602060002090600a02016000015403613a94578091505b8080613a9f90615d50565b9150506139d1565b508091505092915050565b6000613abd8261389e565b613afc576040517f08c379a0000000000000000000000000000000000000000000000000000000008152600401613af390615e0a565b60405180910390fd5b6000613b0783611522565b90508073ffffffffffffffffffffffffffffffffffffffff168473ffffffffffffffffffffffffffffffffffffffff161480613b495750613b4881856131a6565b5b80613b8757508373ffffffffffffffffffffffffffffffffffffffff16613b6f84610abf565b73ffffffffffffffffffffffffffffffffffffffff16145b91505092915050565b8273ffffffffffffffffffffffffffffffffffffffff16613bb082611522565b73ffffffffffffffffffffffffffffffffffffffff1614613c06576040517f08c379a0000000000000000000000000000000000000000000000000000000008152600401613bfd90615e9c565b60405180910390fd5b600073ffffffffffffffffffffffffffffffffffffffff168273ffffffffffffffffffffffffffffffffffffffff1603613c75576040517f08c379a0000000000000000000000000000000000000000000000000000000008152600401613c6c90615f2e565b60405180910390fd5b613c80838383614219565b613c8b600082613912565b6001600360008573ffffffffffffffffffffffffffffffffffffffff1673ffffffffffffffffffffffffffffffffffffffff1681526020019081526020016000206000828254613cdb91906157fe565b925050819055506001600360008473ffffffffffffffffffffffffffffffffffffffff1673ffffffffffffffffffffffffffffffffffffffff1681526020019081526020016000206000828254613d3291906158e8565b92505081905550816002600083815260200190815260200160002060006101000a81548173ffffffffffffffffffffffffffffffffffffffff021916908373ffffffffffffffffffffffffffffffffffffffff160217905550808273ffffffffffffffffffffffffffffffffffffffff168473ffffffffffffffffffffffffffffffffffffffff167fddf252ad1be2c89b69c2b068fc378daa952ba7f163c4a11628f55a4df523b3ef60405160405180910390a4613df183838361421e565b505050565b6000600660009054906101000a900473ffffffffffffffffffffffffffffffffffffffff16905081600660006101000a81548173ffffffffffffffffffffffffffffffffffffffff021916908373ffffffffffffffffffffffffffffffffffffffff1602179055508173ffffffffffffffffffffffffffffffffffffffff168173ffffffffffffffffffffffffffffffffffffffff167f8be0079c531659141344cd1fd0a4f28419497f9722a3daafe3b4186f6b6457e060405160405180910390a35050565b8173ffffffffffffffffffffffffffffffffffffffff168373ffffffffffffffffffffffffffffffffffffffff1603613f2a576040517f08c379a0000000000000000000000000000000000000000000000000000000008152600401613f2190615f9a565b60405180910390fd5b80600560008573ffffffffffffffffffffffffffffffffffffffff1673ffffffffffffffffffffffffffffffffffffffff16815260200190815260200160002060008473ffffffffffffffffffffffffffffffffffffffff1673ffffffffffffffffffffffffffffffffffffffff16815260200190815260200160002060006101000a81548160ff0219169083151502179055508173ffffffffffffffffffffffffffffffffffffffff168373ffffffffffffffffffffffffffffffffffffffff167f17307eab39ab6107e8899845ad3d59bd9653f200f220920489ca2b5937696c318360405161401b91906149e7565b60405180910390a3505050565b614033848484613b90565b61403f84848484614223565b61407e576040517f08c379a00000000000000000000000000000000000000000000000000000000081526004016140759061602c565b60405180910390fd5b50505050565b606060405180602001604052806000815250905090565b6060600082036140e2576040518060400160405280600181526020017f300000000000000000000000000000000000000000000000000000000000000081525090506141f6565b600082905060005b600082146141145780806140fd90615d50565b915050600a8261410d9190615773565b91506140ea565b60008167ffffffffffffffff8111156141305761412f614cd1565b5b6040519080825280601f01601f1916602001820160405280156141625781602001600182028036833780820191505090505b5090505b600085146141ef5760018261417b91906157fe565b9150600a8561418a919061604c565b603061419691906158e8565b60f81b8183815181106141ac576141ab615432565b5b60200101907effffffffffffffffffffffffffffffffffffffffffffffffffffffffffffff1916908160001a905350600a856141e89190615773565b9450614166565b8093505050505b919050565b6142158282604051806020016040528060008152506143aa565b5050565b505050565b505050565b60006142448473ffffffffffffffffffffffffffffffffffffffff16614405565b1561439d578373ffffffffffffffffffffffffffffffffffffffff1663150b7a0261426d61390a565b8786866040518563ffffffff1660e01b815260040161428f94939291906160d2565b6020604051808303816000875af19250505080156142cb57506040513d601f19601f820116820180604052508101906142c89190616133565b60015b61434d573d80600081146142fb576040519150601f19603f3d011682016040523d82523d6000602084013e614300565b606091505b506000815103614345576040517f08c379a000000000000000000000000000000000000000000000000000000000815260040161433c9061602c565b60405180910390fd5b805181602001fd5b63150b7a0260e01b7bffffffffffffffffffffffffffffffffffffffffffffffffffffffff1916817bffffffffffffffffffffffffffffffffffffffffffffffffffffffff1916149150506143a2565b600190505b949350505050565b6143b48383614428565b6143c16000848484614223565b614400576040517f08c379a00000000000000000000000000000000000000000000000000000000081526004016143f79061602c565b60405180910390fd5b505050565b6000808273ffffffffffffffffffffffffffffffffffffffff163b119050919050565b600073ffffffffffffffffffffffffffffffffffffffff168273ffffffffffffffffffffffffffffffffffffffff1603614497576040517f08c379a000000000000000000000000000000000000000000000000000000000815260040161448e906161ac565b60405180910390fd5b6144a08161389e565b156144e0576040517f08c379a00000000000000000000000000000000000000000000000000000000081526004016144d790616218565b60405180910390fd5b6144ec60008383614219565b6001600360008473ffffffffffffffffffffffffffffffffffffffff1673ffffffffffffffffffffffffffffffffffffffff168152602001908152602001600020600082825461453c91906158e8565b92505081905550816002600083815260200190815260200160002060006101000a81548173ffffffffffffffffffffffffffffffffffffffff021916908373ffffffffffffffffffffffffffffffffffffffff160217905550808273ffffffffffffffffffffffffffffffffffffffff16600073ffffffffffffffffffffffffffffffffffffffff167fddf252ad1be2c89b69c2b068fc378daa952ba7f163c4a11628f55a4df523b3ef60405160405180910390a46145fd6000838361421e565b5050565b82805461460d9061514d565b90600052602060002090601f01602090048101928261462f5760008555614676565b82601f1061464857805160ff1916838001178555614676565b82800160010185558215614676579182015b8281111561467557825182559160200191906001019061465a565b5b5090506146839190614754565b5090565b8280546146939061514d565b90600052602060002090601f0160209004810192826146b55760008555614703565b82601f106146c65780548555614703565b8280016001018555821561470357600052602060002091601f016020900482015b828111156147025782548255916001019190600101906146e7565b5b5090506147109190614754565b5090565b5080546147209061514d565b6000825580601f106147325750614751565b601f0160209004906000526020600020908101906147509190614754565b5b50565b5b8082111561476d576000816000905550600101614755565b5090565b6000604051905090565b600080fd5b600080fd5b6000819050919050565b61479881614785565b81146147a357600080fd5b50565b6000813590506147b58161478f565b92915050565b6000602082840312156147d1576147d061477b565b5b60006147df848285016147a6565b91505092915050565b6147f181614785565b82525050565b600073ffffffffffffffffffffffffffffffffffffffff82169050919050565b6000614822826147f7565b9050919050565b61483281614817565b82525050565b600081519050919050565b600082825260208201905092915050565b60005b83811015614872578082015181840152602081019050614857565b83811115614881576000848401525b50505050565b6000601f19601f8301169050919050565b60006148a382614838565b6148ad8185614843565b93506148bd818560208601614854565b6148c681614887565b840191505092915050565b60008115159050919050565b6148e6816148d1565b82525050565b600060e082019050614901600083018a6147e8565b61490e6020830189614829565b61491b6040830188614829565b818103606083015261492d8187614898565b905061493c60808301866148dd565b61494960a08301856148dd565b61495660c08301846148dd565b98975050505050505050565b60007fffffffff0000000000000000000000000000000000000000000000000000000082169050919050565b61499781614962565b81146149a257600080fd5b50565b6000813590506149b48161498e565b92915050565b6000602082840312156149d0576149cf61477b565b5b60006149de848285016149a5565b91505092915050565b60006020820190506149fc60008301846148dd565b92915050565b60006020820190508181036000830152614a1c8184614898565b905092915050565b6000602082019050614a396000830184614829565b92915050565b614a4881614817565b8114614a5357600080fd5b50565b600081359050614a6581614a3f565b92915050565b60008060408385031215614a8257614a8161477b565b5b6000614a9085828601614a56565b9250506020614aa1858286016147a6565b9150509250929050565b600080600060608486031215614ac457614ac361477b565b5b6000614ad286828701614a56565b9350506020614ae386828701614a56565b9250506040614af4868287016147a6565b9150509250925092565b60008060408385031215614b1557614b1461477b565b5b6000614b23858286016147a6565b9250506020614b34858286016147a6565b9150509250929050565b600060208284031215614b5457614b5361477b565b5b6000614b6284828501614a56565b91505092915050565b6000602082019050614b8060008301846147e8565b92915050565b614b8f816148d1565b8114614b9a57600080fd5b50565b600081359050614bac81614b86565b92915050565b60008060408385031215614bc957614bc861477b565b5b6000614bd785828601614a56565b9250506020614be885828601614b9d565b9150509250929050565b600061016082019050614c08600083018e6147e8565b8181036020830152614c1a818d614898565b90508181036040830152614c2e818c614898565b90508181036060830152614c42818b614898565b90508181036080830152614c56818a614898565b905081810360a0830152614c6a8189614898565b905081810360c0830152614c7e8188614898565b9050614c8d60e08301876147e8565b614c9b6101008301866147e8565b614ca96101208301856148dd565b614cb76101408301846148dd565b9c9b505050505050505050505050565b600080fd5b600080fd5b7f4e487b7100000000000000000000000000000000000000000000000000000000600052604160045260246000fd5b614d0982614887565b810181811067ffffffffffffffff82111715614d2857614d27614cd1565b5b80604052505050565b6000614d3b614771565b9050614d478282614d00565b919050565b600067ffffffffffffffff821115614d6757614d66614cd1565b5b614d7082614887565b9050602081019050919050565b82818337600083830152505050565b6000614d9f614d9a84614d4c565b614d31565b905082815260208101848484011115614dbb57614dba614ccc565b5b614dc6848285614d7d565b509392505050565b600082601f830112614de357614de2614cc7565b5b8135614df3848260208601614d8c565b91505092915050565b60008060008060808587031215614e1657614e1561477b565b5b6000614e2487828801614a56565b9450506020614e3587828801614a56565b9350506040614e46878288016147a6565b925050606085013567ffffffffffffffff811115614e6757614e66614780565b5b614e7387828801614dce565b91505092959194509250565b600067ffffffffffffffff821115614e9a57614e99614cd1565b5b614ea382614887565b9050602081019050919050565b6000614ec3614ebe84614e7f565b614d31565b905082815260208101848484011115614edf57614ede614ccc565b5b614eea848285614d7d565b509392505050565b600082601f830112614f0757614f06614cc7565b5b8135614f17848260208601614eb0565b91505092915050565b600060208284031215614f3657614f3561477b565b5b600082013567ffffffffffffffff811115614f5457614f53614780565b5b614f6084828501614ef2565b91505092915050565b60008060408385031215614f8057614f7f61477b565b5b6000614f8e858286016147a6565b9250506020614f9f85828601614a56565b9150509250929050565b60008060408385031215614fc057614fbf61477b565b5b6000614fce85828601614a56565b9250506020614fdf85828601614a56565b9150509250929050565b60008060008060008060c087890312156150065761500561477b565b5b600087013567ffffffffffffffff81111561502457615023614780565b5b61503089828a01614ef2565b965050602087013567ffffffffffffffff81111561505157615050614780565b5b61505d89828a01614ef2565b955050604087013567ffffffffffffffff81111561507e5761507d614780565b5b61508a89828a01614ef2565b945050606087013567ffffffffffffffff8111156150ab576150aa614780565b5b6150b789828a01614ef2565b935050608087013567ffffffffffffffff8111156150d8576150d7614780565b5b6150e489828a01614ef2565b92505060a087013567ffffffffffffffff81111561510557615104614780565b5b61511189828a01614ef2565b9150509295509295509295565b7f4e487b7100000000000000000000000000000000000000000000000000000000600052602260045260246000fd5b6000600282049050600182168061516557607f821691505b6020821081036151785761517761511e565b5b50919050565b7f4552433732313a20617070726f76656420717565727920666f72206e6f6e657860008201527f697374656e7420746f6b656e0000000000000000000000000000000000000000602082015250565b60006151da602c83614843565b91506151e58261517e565b604082019050919050565b60006020820190508181036000830152615209816151cd565b9050919050565b7f4552433732313a20617070726f76616c20746f2063757272656e74206f776e6560008201527f7200000000000000000000000000000000000000000000000000000000000000602082015250565b600061526c602183614843565b915061527782615210565b604082019050919050565b6000602082019050818103600083015261529b8161525f565b9050919050565b7f4552433732313a20617070726f76652063616c6c6572206973206e6f74206f7760008201527f6e6572206e6f7220617070726f76656420666f7220616c6c0000000000000000602082015250565b60006152fe603883614843565b9150615309826152a2565b604082019050919050565b6000602082019050818103600083015261532d816152f1565b9050919050565b7f57616c6c6574206973206e6f7420746865206f776e6572206f6620746869732060008201527f4e46540000000000000000000000000000000000000000000000000000000000602082015250565b6000615390602383614843565b915061539b82615334565b604082019050919050565b600060208201905081810360008301526153bf81615383565b9050919050565b7f4465616c2069732063757272656e746c7920696e20457363726f770000000000600082015250565b60006153fc601b83614843565b9150615407826153c6565b602082019050919050565b6000602082019050818103600083015261542b816153ef565b9050919050565b7f4e487b7100000000000000000000000000000000000000000000000000000000600052603260045260246000fd5b7f4f776e61626c653a2063616c6c6572206973206e6f7420746865206f776e6572600082015250565b6000615497602083614843565b91506154a282615461565b602082019050919050565b600060208201905081810360008301526154c68161548a565b9050919050565b7f4552433732313a207472616e736665722063616c6c6572206973206e6f74206f60008201527f776e6572206e6f7220617070726f766564000000000000000000000000000000602082015250565b6000615529603183614843565b9150615534826154cd565b604082019050919050565b600060208201905081810360008301526155588161551c565b9050919050565b7f546869732077616c6c657420646f65736e2774206f776e20746869732077616c60008201527f6c65740000000000000000000000000000000000000000000000000000000000602082015250565b60006155bb602383614843565b91506155c68261555f565b604082019050919050565b600060208201905081810360008301526155ea816155ae565b9050919050565b7f596f752063616e27742073656c6c207768696c65206272656564696e6720697360008201527f20656e61626c6564000000000000000000000000000000000000000000000000602082015250565b600061564d602883614843565b9150615658826155f1565b604082019050919050565b6000602082019050818103600083015261567c81615640565b9050919050565b7f4552433732313a206f776e657220717565727920666f72206e6f6e657869737460008201527f656e7420746f6b656e0000000000000000000000000000000000000000000000602082015250565b60006156df602983614843565b91506156ea82615683565b604082019050919050565b6000602082019050818103600083015261570e816156d2565b9050919050565b7f4e487b7100000000000000000000000000000000000000000000000000000000600052601260045260246000fd5b7f4e487b7100000000000000000000000000000000000000000000000000000000600052601160045260246000fd5b600061577e82614785565b915061578983614785565b92508261579957615798615715565b5b828204905092915050565b60006157af82614785565b91506157ba83614785565b9250817fffffffffffffffffffffffffffffffffffffffffffffffffffffffffffffffff04831182151516156157f3576157f2615744565b5b828202905092915050565b600061580982614785565b915061581483614785565b92508282101561582757615826615744565b5b828203905092915050565b600081905092915050565b60008190508160005260206000209050919050565b6000815461585f8161514d565b6158698186615832565b945060018216600081146158845760018114615895576158c8565b60ff198316865281860193506158c8565b61589e8561583d565b60005b838110156158c0578154818901526001820191506020810190506158a1565b838801955050505b50505092915050565b60006158dd8284615852565b915081905092915050565b60006158f382614785565b91506158fe83614785565b9250827fffffffffffffffffffffffffffffffffffffffffffffffffffffffffffffffff0382111561593357615932615744565b5b828201905092915050565b7f4552433732313a2062616c616e636520717565727920666f7220746865207a6560008201527f726f206164647265737300000000000000000000000000000000000000000000602082015250565b600061599a602a83614843565b91506159a58261593e565b604082019050919050565b600060208201905081810360008301526159c98161598d565b9050919050565b7f596f752063616e2774206272656564207768696c652073616c6520697320656e60008201527f61626c6564000000000000000000000000000000000000000000000000000000602082015250565b6000615a2c602583614843565b9150615a37826159d0565b604082019050919050565b60006020820190508181036000830152615a5b81615a1f565b9050919050565b7f4552433732314d657461646174613a2055524920717565727920666f72206e6f60008201527f6e6578697374656e7420746f6b656e0000000000000000000000000000000000602082015250565b6000615abe602f83614843565b9150615ac982615a62565b604082019050919050565b60006020820190508181036000830152615aed81615ab1565b9050919050565b600081905092915050565b6000615b0a82614838565b615b148185615af4565b9350615b24818560208601614854565b80840191505092915050565b6000615b3c8285615aff565b9150615b488284615aff565b91508190509392505050565b7f546869732077616c6c6574206973206e6f7420746865206f776e6572206f662060008201527f74686973204e4654000000000000000000000000000000000000000000000000602082015250565b6000615bb0602883614843565b9150615bbb82615b54565b604082019050919050565b60006020820190508181036000830152615bdf81615ba3565b9050919050565b7f4e487b7100000000000000000000000000000000000000000000000000000000600052603160045260246000fd5b6000615c218284615aff565b915081905092915050565b7f546869732050726f706572747920416c7265616479204578697374732041732060008201527f4e46540000000000000000000000000000000000000000000000000000000000602082015250565b6000615c88602383614843565b9150615c9382615c2c565b604082019050919050565b60006020820190508181036000830152615cb781615c7b565b9050919050565b7f4f776e61626c653a206e6577206f776e657220697320746865207a65726f206160008201527f6464726573730000000000000000000000000000000000000000000000000000602082015250565b6000615d1a602683614843565b9150615d2582615cbe565b604082019050919050565b60006020820190508181036000830152615d4981615d0d565b9050919050565b6000615d5b82614785565b91507fffffffffffffffffffffffffffffffffffffffffffffffffffffffffffffffff8203615d8d57615d8c615744565b5b600182019050919050565b7f4552433732313a206f70657261746f7220717565727920666f72206e6f6e657860008201527f697374656e7420746f6b656e0000000000000000000000000000000000000000602082015250565b6000615df4602c83614843565b9150615dff82615d98565b604082019050919050565b60006020820190508181036000830152615e2381615de7565b9050919050565b7f4552433732313a207472616e736665722066726f6d20696e636f72726563742060008201527f6f776e6572000000000000000000000000000000000000000000000000000000602082015250565b6000615e86602583614843565b9150615e9182615e2a565b604082019050919050565b60006020820190508181036000830152615eb581615e79565b9050919050565b7f4552433732313a207472616e7366657220746f20746865207a65726f2061646460008201527f7265737300000000000000000000000000000000000000000000000000000000602082015250565b6000615f18602483614843565b9150615f2382615ebc565b604082019050919050565b60006020820190508181036000830152615f4781615f0b565b9050919050565b7f4552433732313a20617070726f766520746f2063616c6c657200000000000000600082015250565b6000615f84601983614843565b9150615f8f82615f4e565b602082019050919050565b60006020820190508181036000830152615fb381615f77565b9050919050565b7f4552433732313a207472616e7366657220746f206e6f6e20455243373231526560008201527f63656976657220696d706c656d656e7465720000000000000000000000000000602082015250565b6000616016603283614843565b915061602182615fba565b604082019050919050565b6000602082019050818103600083015261604581616009565b9050919050565b600061605782614785565b915061606283614785565b92508261607257616071615715565b5b828206905092915050565b600081519050919050565b600082825260208201905092915050565b60006160a48261607d565b6160ae8185616088565b93506160be818560208601614854565b6160c781614887565b840191505092915050565b60006080820190506160e76000830187614829565b6160f46020830186614829565b61610160408301856147e8565b81810360608301526161138184616099565b905095945050505050565b60008151905061612d8161498e565b92915050565b6000602082840312156161495761614861477b565b5b60006161578482850161611e565b91505092915050565b7f4552433732313a206d696e7420746f20746865207a65726f2061646472657373600082015250565b6000616196602083614843565b91506161a182616160565b602082019050919050565b600060208201905081810360008301526161c581616189565b9050919050565b7f4552433732313a20746f6b656e20616c7265616479206d696e74656400000000600082015250565b6000616202601c83614843565b915061620d826161cc565b602082019050919050565b60006020820190508181036000830152616231816161f5565b905091905056fea264697066735822122011827d12cc19a29add8c06aa33180a7ab4519ec89662dbd164d071eff077f39764736f6c634300080e0033",
  "immutableReferences": {},
  "source": "pragma solidity >=0.8.0;\r\n\r\nimport \"./Pupper.sol\";\r\n\r\n\r\n\r\ncontract Transact is Pupper{\r\n\r\n    \r\n\r\n\r\n\r\n    function buy(uint _tokenId) public payable contractNotPaused{\r\n        require(allpuppers[_tokenId]._enableSale==true);\r\n        require(msg.value>=allpuppers[_tokenId]._salePrice);\r\n\r\n        allpuppers[_tokenId]._enableSale==false;\r\n        escrows[_tokenId]=escrow(msg.value,msg.sender,ownerOf(_tokenId), \"SALE\", false, false, false);\r\n\r\n\r\n    }\r\n\r\n    function breed(uint _tokenId) public payable contractNotPaused{\r\n        require(allpuppers[_tokenId]._enableBreeding==true);\r\n        require(msg.value>=allpuppers[_tokenId]._breedingPrice);\r\n\r\n        allpuppers[_tokenId]._enableBreeding==false;\r\n        escrows[_tokenId]=escrow(msg.value,msg.sender,ownerOf(_tokenId), \"BREEDING\", false, false, false);\r\n\r\n\r\n    }\r\n\r\n    function approveTransaction(uint _tokenId) public {\r\n        require(msg.sender == escrows[_tokenId]._sender || msg.sender == escrows[_tokenId]._receiver);\r\n        require(escrows[_tokenId]._processed==false);\r\n        if (msg.sender ==escrows[_tokenId]._sender){\r\n            escrows[_tokenId]._senderApproval = true;\r\n        }else\r\n        {\r\n            escrows[_tokenId]._receiverApproval = true;\r\n        }\r\n\r\n\r\n    }\r\n\r\n    function processEscrow(uint _tokenId) public{\r\n        require(msg.sender==ownerOf(_tokenId));\r\n        require(escrows[_tokenId]._senderApproval == true && escrows[_tokenId]._receiverApproval == true && escrows[_tokenId]._processed == false);\r\n        //Converting the address to payable\r\n        address payable receiver = payable(escrows[_tokenId]._receiver);\r\n        uint fee = escrows[_tokenId]._amount*(transactionFee/1000);\r\n        uint amount = escrows[_tokenId]._amount-fee;\r\n\r\n        if(receiver.send(amount)){\r\n            if(keccak256(bytes(escrows[_tokenId]._type))==keccak256(bytes(\"SALE\"))){\r\n                transferPupper( _tokenId, escrows[_tokenId]._sender);\r\n                escrows[_tokenId]._amount =0;\r\n                escrows[_tokenId]._processed=true;\r\n                commission+=fee;\r\n\r\n            }else{\r\n                escrows[_tokenId]._amount =0;\r\n                escrows[_tokenId]._processed=true;\r\n                commission+=fee;\r\n            }\r\n            \r\n\r\n        }\r\n\r\n\r\n    }\r\n    function refundEscrow(uint _tokenId) public {\r\n\r\n        require(escrows[_tokenId]._senderApproval == false && escrows[_tokenId]._receiverApproval == false && escrows[_tokenId]._processed == false );\r\n        address payable receiver = payable(escrows[_tokenId]._sender);\r\n        if(receiver.send(escrows[_tokenId]._amount)){\r\n            escrows[_tokenId]._amount =0;\r\n            escrows[_tokenId]._processed=true;\r\n\r\n        }\r\n    }\r\n\r\n    //Owner can add the address of new contract when they upgrade\r\n    function setNewContractAddress(address _address) public onlyOwner {\r\n\r\n        newContractAddress = _address;\r\n\r\n    }\r\n    \r\n    //Owner sets the fee they will deduct on each deposit. Fee percentage = developerFee/1000\r\n    function setDevFee(uint _devFee) public onlyOwner contractNotPaused{\r\n\r\n        transactionFee = _devFee;\r\n\r\n    }\r\n\r\n    //Owner can withdraw his commission \r\n    function withdrawDevCommission() public onlyOwner{\r\n        address payable receiver = payable(owner());\r\n        require(commission>0);\r\n\r\n        if(receiver.send(commission)){\r\n            commission =0;\r\n\r\n        }\r\n    }\r\n}",
  "sourcePath": "C:\\Users\\jayfo\\Desktop\\Web3\\nft_example\\contracts\\Transact.sol",
  "compiler": {
    "name": "solc",
    "version": "0.8.14+commit.80d49f37.Emscripten.clang"
  },
  "schemaVersion": "3.4.4",
  "updatedAt": "2022-06-05T21:52:00.431Z",
  "devdoc": {
    "kind": "dev",
    "methods": {
      "approve(address,uint256)": {
        "details": "See {IERC721-approve}."
      },
      "balanceOf(address)": {
        "details": "See {IERC721-balanceOf}."
      },
      "getApproved(uint256)": {
        "details": "See {IERC721-getApproved}."
      },
      "isApprovedForAll(address,address)": {
        "details": "See {IERC721-isApprovedForAll}."
      },
      "name()": {
        "details": "See {IERC721Metadata-name}."
      },
      "owner()": {
        "details": "Returns the address of the current owner."
      },
      "ownerOf(uint256)": {
        "details": "See {IERC721-ownerOf}."
      },
      "renounceOwnership()": {
        "details": "Leaves the contract without owner. It will not be possible to call `onlyOwner` functions anymore. Can only be called by the current owner. NOTE: Renouncing ownership will leave the contract without an owner, thereby removing any functionality that is only available to the owner."
      },
      "safeTransferFrom(address,address,uint256)": {
        "details": "See {IERC721-safeTransferFrom}."
      },
      "safeTransferFrom(address,address,uint256,bytes)": {
        "details": "See {IERC721-safeTransferFrom}."
      },
      "setApprovalForAll(address,bool)": {
        "details": "See {IERC721-setApprovalForAll}."
      },
      "supportsInterface(bytes4)": {
        "details": "See {IERC165-supportsInterface}."
      },
      "symbol()": {
        "details": "See {IERC721Metadata-symbol}."
      },
      "tokenURI(uint256)": {
        "details": "See {IERC721Metadata-tokenURI}."
      },
      "transferFrom(address,address,uint256)": {
        "details": "See {IERC721-transferFrom}."
      },
      "transferOwnership(address)": {
        "details": "Transfers ownership of the contract to a new account (`newOwner`). Can only be called by the current owner."
      }
    },
    "version": 1
  },
  "userdoc": {
    "kind": "user",
    "methods": {},
    "version": 1
  }
}